:020000040800F2
:10000000000002208D0100089301000897010008FC
:10001000090200080D020008550200080000000057
:100020000000000000000000000000000D190008A2
:10003000A102000800000000D9190008211D0008D5
:100040008901000889010008890100088901000868
:100050008901000889010008890100088901000858
:100060008901000889010008890100088901000848
:100070008901000889010008890100088901000838
:100080008901000889010008890100088901000828
:100090008901000889010008890100088901000818
:1000A0008901000889010008890100088901000808
:1000B00089010008890100088901000889010008F8
:1000C00089010008890100088901000889010008E8
:1000D00089010008890100088901000889010008D8
:1000E00089010008890100088901000889010008C8
:1000F00089010008890100088901000889010008B8
:1001000089010008890100088901000889010008A7
:100110008901000889010008890100088901000897
:100120008901000889010008890100088901000887
:100130008901000889010008890100088901000877
:100140008901000889010008890100088901000867
:100150008901000889010008890100088901000857
:100160008901000889010008890100088901000847
:1001700089010008890100088901000800000000C9
:100180008901000889010008FEE7FFFF08B500F0BB
:1001900093F800BEFEE71EF0040F0CBFEFF30880DB
:1001A000EFF309807146414A10472DE9F04182B0D2
:1001B00004468846124B5E6B9F6B9D6A1B6B13F067
:1001C000020F03D00E4BDB6A002B0CDB0D4801F055
:1001D0001BFFCDF800803B4632462946204601F001
:1001E0001BFE00BEFEE74BF6AB6101F08FFE002860
:1001F000ECD0034B4FF00042DA6202B0BDE8F08170
:1002000000ED00E04065020800BEFEE71EF0040FAE
:100210000CBFEFF30880EFF309807146244A1047C2
:100220002DE9F04182B004468846084B5E6B9F6B17
:100230009D6A074801F0E8FECDF800803B46324653
:100240002946204601F0E8FD00BEFEE700ED00E093
:10025000506502081EF0040F0CBFEFF30880EFF3A7
:1002600009807146134A10472DE9F04182B00446D7
:100270008846084B5E6B9F6B9D6A074801F0C4FE81
:10028000CDF800803B4632462946204601F0C4FDA9
:1002900000BEFEE700ED00E05C65020800BEFEE780
:1002A00000BEFEE700BEFEE770470000AB0100089D
:1002B000210200086902000800B583B001F0A4FD26
:1002C000304B314A1360314A1360314B314A324965
:1002D0008B4204D21168196004330432F7E72A4BC9
:1002E0001A682E4B9A4200D0FEE7284B1A682C4B16
:1002F0009A42F9D1234B2B4A13602B4A13602B4BA4
:1003000002E000221A600433294A9342F9D3254BB4
:100310001B6813B9244B1B6803B1FEE701F078FD9D
:10032000694601A801F09EFF224C234BE41AA41059
:100330000025AC4214DC214C214BE41AA41000250A
:10034000AC4213DC0099019800F0F0F905461D4C11
:100350001D4BE41AA410002C0EDC284601F01EFFF1
:10036000154B53F8253098470135E2E7144B53F805
:10037000253098470135E3E7013C134B53F824300F
:100380009847E8E7BABADECA000000200003002060
:1003900000000020BCA40208040300207856341298
:1003A0003254769804030020581C002004030020D7
:1003B0005C1C0020F4030008F40300081804000883
:0C03C000F40300082804000818040008DA
:1003CC00BCA402080000002004030020BCA4020806
:1003DC000000001000000010040300205C1C002032
:1003EC000000001000000010F10700089908000838
:1003FC00D1090008210A0008512C00080D920008B0
:10040C00D9040108F16401082D8A0108FF070008CE
:0C041C00A7080008DF0900082F0A0008EC
:1004300010B50446024B036002F0E2FF204610BDF7
:10044000BC61020810B50446044B036002F0D8FFFB
:100450000821204602F0A8FD204610BDBC6102081C
:1004600010B50446024B036002F0CAFF204610BDDF
:10047000D061020810B50446044B036002F0C0FFCF
:100480000821204602F090FD204610BDD0610208F0
:1004900010B5044643685A108168881813F0010F9C
:1004A00002D12368984703E08A582368D358F9E7B4
:1004B0001CB10C21204602F077FD10BD02F041FC7A
:1004C000074B084AD121084802F070F802F063FC9B
:1004D0001CB10C21204602F067FD02F0AEFC00BF0B
:1004E0000C620208DC6202081462020810B50446BD
:1004F00043685A108168881813F0010F02D12368ED
:10050000984703E08A582368D358F9E71CB10C21B7
:10051000204602F049FD10BD02F013FC074B084ACB
:10052000D121084802F042F802F035FC1CB10C2140
:10053000204602F039FD02F080FC00BF0C62020888
:100540003C6202081462020838B504460D460128D0
:1005500005D01CB94FF6FF739D4208D038BD4FF649
:10056000FF739942F5D1044802F092FEF1E7024888
:1005700002F01AFFF2E700BF08030020F0B58FB0C9
:10058000044602A880E806001F4623682BBB04AB84
:1005900002AA92E8030083E8030006AA82E80300A7
:1005A00008AB83E803000CAE86E803000C2002F0E1
:1005B00019F805460AAB96E8030083E8030085E8CE
:1005C0000300AF602389227900922A461849204609
:1005D00001F03AFB78B90FB0F0BD082002F012FB31
:1005E000044614490AF066F9134B2360134A144970
:1005F000204602F029FD0C21284602F0D5FC0820F7
:1006000002F000FB04460F490AF054F90E4B236038
:100610000E4A0F49204602F017FD204602F008FB63
:1006200002F00BFC204602F003FB02F006FC00BFC8
:1006300091040008DC610208D0610208610400082E
:10064000A8610208F4610208BC61020831040008D4
:1006500078610208F0B58FB0044602A880E8060071
:100660001F4623682BBB04AB02AA92E8030083E871
:10067000030006AA82E8030008AB83E803000CAE7F
:1006800086E803000C2001F0ADFF05460AAB96E8B2
:10069000030083E8030085E80300AF602389227923
:1006A00000922A461849204601F0CEFA78B90FB0D8
:1006B000F0BD082002F0A6FA044614490AF0FAF840
:1006C000134B2360134A1449204602F0BDFC0C2151
:1006D000284602F069FC082002F094FA04460F490B
:1006E0000AF0E8F80E4B23600E4A0F49204602F04C
:1006F000ABFC204602F09CFA02F09FFB204602F081
:1007000097FA02F09AFB00BFED040008DC610208D2
:10071000D061020861040008A8610208F4610208BF
:10072000BC610208310400087861020800B59BB082
:1007300012A800F089F80AA800F017F901F001FAF0
:1007400000230793032108914FF48062ADF8242021
:1007500004930591ADF81820234A169217936A4620
:1007600016AB93E8030082E8030012AB06CA07A8A1
:10077000FFF704FF1D4B18930023199302AA1AAB2D
:1007800013E9030082E803000AAB06CA04A8FFF7D6
:1007900061FF01F0DBF9049B13B104A801F09CFA9E
:1007A000079B13B107A801F097FA0AA800F0FAF81E
:1007B00012A800F05AF800201BB05DF804FB049B5F
:1007C00013B104A801F088FA079B13B107A801F040
:1007D00083FA0AA800F0E6F812A800F046F802F042
:1007E0002CFBF6E7F8E700BF79080008B10900081C
:1007F00008B54FF6FF710120FFF7A6FE08BD08B54A
:100800004FF6FF710020FFF79FFE08BD38B5044684
:100810000D46012805D01CB94FF6FF739D4208D044
:1008200038BD4FF6FF739942F5D1044802F030FD10
:10083000F1E7024802F0B8FDF2E700BF0C03002028
:1008400008B500F04AF808BD10B504460C22032193
:1008500000F04CF80D22032104F1080000F046F8E6
:100860002046FFF7EDFF204610BD10B50446FFF708
:10087000E7FF204610BD000008B54FF4FA7001F004
:1008800041FA08220249034809F0B7FBF5E700BF27
:1008900078630208B008002008B54FF6FF71012008
:1008A000FFF7B4FF08BD08B54FF6FF710020FFF752
:1008B000ADFF08BD10B404682368416849000122F7
:1008C0008A401343236010BC704701684B6940683D
:1008D0000122824013434B61704701684B694068B5
:1008E0000122824023EA02034B61704710B504469F
:1008F000074B53F8213003604260084601F006FAC6
:100900002046FFF7D7FF2046FFF7E7FF204610BD40
:100910000400002038B504460D46012805D01CB956
:100920004FF6FF739D4208D038BD4FF6FF739942D2
:10093000F5D1044802F0ACFCF1E7024802F034FDC6
:10094000F2E700BF1003002010B504461830FFF78F
:10095000BCFF04F11000FFF7B8FF04F10800FFF737
:10096000B4FF2046FFF7B1FF10BD10B504460822C2
:100970000321FFF7BBFF0922032104F10800FFF761
:10098000B5FF0A22032104F11000FFF7AFFF0B228D
:10099000032104F11800FFF7A9FF2046FFF7D4FF59
:1009A000204610BD10B50446FFF7CEFF204610BD0F
:1009B00008B54FF47A7001F0A5F90C2202490348FA
:1009C00009F01BFBF5E700BF84630208B0080020B4
:1009D00008B54FF6FF710120FFF79CFF08BD08B571
:1009E0004FF6FF710020FFF795FF08BD38B50446AC
:1009F0000D46012805D01CB94FF6FF739D4208D063
:100A000038BD4FF6FF739942F5D1044802F040FC1F
:100A1000F1E7024802F0C8FCF2E700BF140300202F
:100A200008B54FF6FF710120FFF7E0FF08BD08B5DC
:100A30004FF6FF710020FFF7D9FF08BD00F1080352
:100A400043604FF0FF328260C360036100230360A4
:100A5000704700230361704743684B609A688A605F
:100A60009A685160996008610368013303607047B8
:100A700030B40D68B5F1FF3F02D000F1080202E08A
:100A8000026904E01A4653681C68AC42FAD95368FC
:100A90004B6099608A6051600861036801330360AC
:100AA00030BC704703694268816891608268416820
:100AB00051605A68824205D00022026118680138EC
:100AC0001860704782685A60F6E710B5044600F077
:100AD00051FFA26BE36B9A4204D0002400F06AFF3E
:100AE000204610BD0124F9E710B5044600F042FF8E
:100AF000A36B23B1002400F05DFF204610BD01244C
:100B0000F9E738B504461546026C62B9036823B1AB
:100B10000020A36B0133A36338BD406800F086FE5C
:100B200000236360F5E76DB980681DF0C8FB226C97
:100B3000A3681344A360626893421CD32368A36034
:100B40000020E6E7C0681DF0BAFB226C5242E36861
:100B50001344E36021688B4202D263681A44E26066
:100B6000022D01D00020D4E7A36B33B1A36B013B6E
:100B7000A3630020CDE70020CBE70020C9E7026C8B
:100B800072B110B5C3681344C3604468A34201D373
:100B90000368C3600C46C16820461DF090FB10BD81
:100BA000704710B5044600F0E5FE04E000F0D8FD03
:100BB000A36C013BA364A36C002B08DD636A33B113
:100BC00004F1240000F048FD0028F1D0EEE74FF0DA
:100BD000FF33A36400F0EEFE00F0CCFE04E000F072
:100BE000BFFD636C013B6364636C002B08DD23690C
:100BF00033B104F1100000F02FFD0028F1D0EEE732
:100C00004FF0FF33636400F0D5FE10BD38B508B374
:100C10000D46044600F0AEFE2168E26B236C03FB38
:100C2000021060600020A063A160013A02FB031380
:100C3000E3604FF0FF336364A3648DB923692BB184
:100C400004F1100000F008FD012806D000F0B2FE0B
:100C5000012038BD00F078FEFEE700F069FEF5E700
:100C600004F11000FFF7EAFE04F12400FFF7E6FEAE
:100C7000ECE7F8B588B10D4617460646542000F05B
:100C80003FFF044648B105FB06F0013000F038FF95
:100C9000206028B9204600F03FFF00F055FEFEE737
:100CA000E663256401212046FFF7B0FF84F8507009
:100CB0002046F8BDF0B585B0019258B10F461D46EB
:100CC000044651B1022D0ED1E36B012B0BD000F085
:100CD0003BFEFEE700F038FEFEE7036C002BF1D090
:100CE00000F032FEFEE700F041FD20B9019B23B188
:100CF00000F02AFEFEE700262EE000262CE02A4621
:100D000039462046FFF7FDFE636A2BB968B900F04B
:100D100051FE012005B0F0BD04F1240000F09CFC60
:100D20000128F4D100F004FEF1E700F001FEEEE747
:100D300000F040FE0020EDE702A800F0CDFC012607
:100D400017E0002363641EE00023A3641FE0204635
:100D5000FFF727FF00F030FB00F00CFEA26BE36B07
:100D60009A42CCD3022DCAD0019B002BE0D0002E9A
:100D7000E2D000F01FFE00F091FA00F0FBFD636C82
:100D8000B3F1FF3FDDD0A36CB3F1FF3FDCD000F047
:100D900011FE01A902A800F0AFFC98B92046FFF7A8
:100DA00094FE0028D3D0019904F1100000F022FC39
:100DB0002046FFF7F6FE00F0FFFA0028CCD100F045
:100DC000B7FDC9E72046FFF7ECFE00F0F5FA00207A
:100DD000A0E7F0B585B0019258B10E461F46044613
:100DE00051B100F0C3FC68B9019B6BB100F0ACFDE0
:100DF000FEE700F0A9FDFEE7036C002BF1D000F048
:100E0000A3FDFEE7002549E0002547E0E5683146FF
:100E10002046FFF7B4FEC7B9A36B013BA363236869
:100E200033B1236943B900F0C5FD012005B0F0BD21
:100E300000F040FD6060F4E704F1100000F00CFCED
:100E40000128F0D100F074FDEDE7E560636A002B46
:100E5000E9D004F1240000F0FFFB0028E3D000F00B
:100E600067FDE0E700F0A6FD0020DFE702A800F044
:100E700033FC01251CE00023636423E00023A3640A
:100E800024E000F077FD606800F080FC00F092FD47
:100E90002BE02046FFF785FE00F08EFA00F06AFD99
:100EA000A36B002BB2D1019B002BDBD0002DDDD03A
:100EB00000F080FD00F0F2F900F05CFD636CB3F12E
:100EC000FF3FD8D0A36CB3F1FF3FD7D000F072FD45
:100ED00001A902A800F010FCB0B92046FFF704FEFB
:100EE0000028D6D02368002BCBD0019904F1240030
:100EF00000F080FB2046FFF754FE00F05DFA00286A
:100F0000CCD100F015FDC9E72046FFF74AFE00F0FE
:100F100053FA00208AE70000084B1B681B683BB1AE
:100F2000064B1B68DB68DB685A68054B1A60704724
:100F3000034B4FF0FF321A60704700BF1C030020C4
:100F40002800002010B50446006B00F0E5FD2046A7
:100F500000F0E2FD10BD70B506460C46542000F0CE
:100F6000CFFD054638B144B12C635CB1B200A52178
:100F700020461DF0C8F9284670BDB00000F0C0FD45
:100F80000446F1E7284600F0C7FD0025F3E738B531
:100F90000446154600230F2B07D8C856E21882F8DE
:100FA0003400CA560AB10133F5E7002384F8433010
:100FB000062D00D90625E562E56400232365201D82
:100FC000FFF747FD04F11800FFF743FD2461C5F169
:100FD0000705A561646238BD38B50024062C15D913
:100FE0000E4D2846FFF72AFD0D4C2046FFF726FD43
:100FF0000C48FFF723FD0C48FFF720FD0B48FFF7D7
:101000001DFD0B4B1D600B4B1C6038BD0A4B1420A3
:1010100000FB0430FFF712FD0134DFE7C8030020B6
:10102000DC030020F4030020200400200C04002036
:101030001C030020200300202403002010B50F4BC8
:101040001B6858600E4B1B6883420ED804460D4B3C
:1010500018680A4B19680431FFF70AFD0A4B1B6830
:10106000A34209D9084B1C6006E0084B1868034BE3
:1010700019680431FFF7FCFC10BD00BF1803002005
:10108000340400201C03002028000020200300203E
:101090002DE9F04F83B00C9EDDF8348040B18B46D3
:1010A00017469A468146062E05D900F04DFCFEE70C
:1010B00000F04AFCFEE70E991046FFF74CFF04468D
:1010C000002859D0036B07F18045013D03EB8503F0
:1010D00023F0070500970F9B32465946FFF757FF4D
:1010E00052464946284600F001FC2060B8F1000F46
:1010F00001D0C8F8004000F03DFC224A13680133DB
:101100001360214B1B6853B1204B1B6873B91E4BF6
:101110001B68DB6AB34209D81B4B1C6006E01A4B04
:101120001C601368012B01D1FFF756FF184A1368A2
:10113000013313606364E36A01229A401549086829
:1011400002430A6003EB83039A00211D12481044F6
:10115000FFF782FC00F02EFC0C4B1B687BB10A4BA6
:101160001B68DB6AB34203D3012003B0BDE8F08FF4
:1011700000F0DEFB0120F8E74FF0FF30F5E701203B
:10118000F3E700BFB003002018030020080400208C
:10119000BC030020C40300202403002038B504460B
:1011A00000F0E8FB002C34D0251D2846FFF77AFC20
:1011B00070B9E26A02EB82018B001C49CB583BB943
:1011C000012303FA02F21A490B6823EA02030B60B7
:1011D000A36A1BB104F11800FFF764FC2946154807
:1011E000FFF73AFC144A136801331360134A13687B
:1011F0000133136000F0DEFB114B1B68ABB1114BE8
:101200001B68A3420BD1104B1B682BB100F09CFB59
:10121000FEE70C4B1C68C7E700F08AFB05E000F016
:10122000A9FBFFF779FE00F0C5FB38BD24030020C1
:10123000C403002020040020C0030020BC030020C1
:101240000804002018030020B803002000B585B072
:101250000023039302930193009380220B490C48CF
:10126000FFF716FF012803D068B105B05DF804FB55
:1012700000F06AFB074B01221A60074B00221A603C
:1012800000F0F2FBF1E700F05FFBFEE79463020879
:10129000551500080804002034040020024A136891
:1012A00001331360704700BFB8030020F8B5374B17
:1012B0001B68002B5FD1364B1A6801321A601E681A
:1012C00096B9344B1B681B6813B100F03DFBFEE779
:1012D000304A1168304B1868106019602F4A136843
:1012E00001331360FFF718FE2D4B1B68B34238D94A
:1012F00000242C4B1B68DB6A03EB83039A002A4B08
:101300009B58012B3CD901243AE00124214B1B6856
:101310001B6843B31F4B1B68DB68DD686B689E422C
:1013200026D32F1D3846FFF7BDFBAB6A1BB105F175
:101330001800FFF7B7FBEB6A01229A401B490868C7
:1013400002430A6003EB83039A00394616481044AF
:10135000FFF782FBEA6A134B1B68DB6A9A42D4D21E
:10136000D4E70024D2E70E4B4FF0FF321A60C0E7FB
:101370000B4A1360BDE70E4A136801331360002463
:101380000C4B1B6803B101242046F8BDB8030020B4
:10139000340400201C03002020030020F003002060
:1013A000280000201803002024030020C40300208C
:1013B000B40300203804002038B52F4B1B6813B944
:1013C00000F0C2FAFEE700F0D5FA2B4B1A68013A9A
:1013D0001A601B68002B4AD1284B1B6823BB0024D2
:1013E00000F0E8FA204638BD254BDB68DC6804F1E4
:1013F0001800FFF757FB251D2846FFF753FBE36A4C
:1014000001229A401F49086802430A6003EB8303E4
:101410009A0029461C481044FFF71EFBE26A1B4B4A
:101420001B68DB6A9A420ED2154B1B68002BDBD17E
:10143000174B1B687BB9174B1B68012B19D100F0A8
:1014400077FA0124CCE7134B01221A60ECE7104A2B
:101450001368013B13600E4B1B68002BEBD0FFF7AA
:1014600025FF0028F3D00B4B01221A60EFE7002480
:10147000B6E70024B4E700BFB8030020B0030020A3
:10148000F4030020C40300202403002018030020DC
:10149000B40300203804002010B510B30446124BEA
:1014A0001B6813B100F050FAFEE7FFF7F7FE0F4B91
:1014B0001B681C440E4B18680430FFF7F3FA50B950
:1014C0000B4B1B68DA6A012303FA02F209490B6825
:1014D00023EA02030B602046FFF7B0FDFFF76CFF25
:1014E00008B900F025FA10BDB8030020340400202C
:1014F00018030020C4030020134B1B6813B310B55E
:10150000FFF7CCFE114B1C68FFF756FF24B90E4BBA
:101510001B68002BF4D110BD00F02CFA0B4BDB68DC
:10152000DC68201DFFF7BEFA094A1368013B13600F
:10153000054A1368013B136000F03CFA2046FFF7B0
:1015400001FDE4E7704700BFC00300202004002035
:10155000B003002008B5FFF7CFFF034B1B68012B3A
:10156000F9D900F0E5F9F6E7240300201C4B1B68CD
:101570001BB11C4B01221A60704710B5194B002299
:101580001A60194B1B68B3FA83F3DBB2C3F11F0374
:1015900003EB83018A0015498A58F2B113489A0077
:1015A000D418A10001444C6864684C601A4491004E
:1015B00008310844844206D1606803EB830291003D
:1015C0000A4A0A44506003EB83039A00074B134412
:1015D0005B68DA68064B1A6010BD00F0B5F9FEE7EB
:1015E000B803002038040020C40300202403002096
:1015F0001803002038B5F0B10C46134D2968183196
:10160000FFF736FA28680430FFF74CFA48B92B6820
:10161000DA6A012303FA02F20C490B6823EA020397
:101620000B60B4F1FF3F09D1074B1968043108483A
:10163000FFF712FA07E000F087F9FEE7054B18689C
:101640002044FFF7FBFC38BD18030020C403002032
:101650000C0400203404002038B5C368DC6824B3CF
:1016600004F118052846FFF71DFA154B1B68FBB956
:10167000251D2846FFF716FAE36A01229A40114910
:10168000086802430A6003EB83039A0029460E4868
:101690001044FFF7E1F9E26A0C4B1B68DB6A9A42DF
:1016A0000BD901200A4B186038BD00F04DF9FEE758
:1016B00029460848FFF7D0F9EDE70020F4E700BF1E
:1016C000B8030020C40300202403002018030020D6
:1016D00038040020F403002008B530B1044A126831
:1016E0000260044A1268426008BD00F02DF9FEE76E
:1016F000F00300203404002038B5C0B10D46044684
:10170000C1B100F037F9144B19682B68B3F1FF3FF2
:101710001BD02068114A1268904202D062688A4247
:1017200018D96268881A834207D801240EE000F0B5
:101730000BF9FEE700F008F9FEE7521A13442B609C
:101740002046FFF7C9FF002400E0002400F032F932
:10175000204638BD0124F9E734040020F0030020BE
:10176000014B01221A60704738040020054B1B68AA
:1017700033B1054B1B680BB1002070470220704746
:101780000120704708040020B8030020002845D03D
:1017900038B50446C26A22490968C96A8A4214D225
:1017A0008169002905DB1E490968C96AC1F1070181
:1017B0008161606902EB820291001A4A0A449042F8
:1017C00004D0174A1268D26AE26238BD251D284645
:1017D000FFF768F990B1124B1B68DB6AE3620122E4
:1017E0009A401149086802430A6003EB83039A0098
:1017F00029460C481044FFF72FF9E6E7E36A03EBAC
:1018000083018A0007498A58002AE4D101229A40BC
:1018100005490B6823EA02030B60DCE7704700BF51
:101820001803002024030020C4030020002839D01E
:1018300038B50446036D43B1013B0365C16AC26C10
:10184000914231D023B100202BE000F07DF8FEE77B
:10185000051D2846FFF726F970B9E26A142303FB39
:1018600002F31249CB583BB9012303FA02F21049A3
:101870000B6823EA02030B60E36CE362C3F1070227
:10188000A261012404FA03F20949086802430A60CC
:1018900003EB83039A00294604481044FFF7DCF861
:1018A000204638BD002070470020FAE724030020BE
:1018B000C4030020054B1B6823B1044B1A68136D49
:1018C00001331365014B1868704700BF18030020EF
:1018D00005480068006862B661B6BFF34F8FBFF37A
:1018E0006F8F00DF00BF000008ED00E04FF0807355
:1018F00040F8043C40F8081C034B40F80C3C40F80E
:10190000202C4038704700BF59190008074B196850
:101910000868B0E8F00F80F30988BFF36F8F4FF0CD
:10192000000080F311884EF00D0E70471803002060
:10193000044B4FF080521A60BFF34F8FBFF36F8F8D
:10194000704700BF04ED00E0EFF311804FF050014D
:1019500081F311887047002008B5054B1B68B3F16F
:10196000FF3F02D0FFF7F0FFFEE7FFF7EDFFFEE7D6
:101970002C00002008B5FFF7E7FF0A4B1A68013278
:101980001A60BFF34F8FBFF36F8F1B68012B00D01E
:1019900008BD054B1B6813F0FF0FF9D0FFF7D4FF0C
:1019A000FEE700BF2C00002004ED00E080F311886A
:1019B0007047000008B5074B1B683BB1013B054A67
:1019C000136013B90020FFF7F1FF08BDFFF7BCFF5C
:1019D000FEE700BF2C000020EFF30980BFF36F8FFC
:1019E0000D4B1A6820E9F00F10602DE908404FF008
:1019F000500080F31188FFF7B9FD4FF0000080F32D
:101A00001188BDE8084019680868B0E8F00F80F355
:101A10000988BFF36F8F70471803002008B5FFF7E0
:101A200093FFFFF743FC18B1034B4FF080521A604D
:101A30000020FFF7BBFF08BD04ED00E0064B1B686C
:101A4000064AA2FB03239B09013B054A1360054B91
:101A500007221A60704700BF40000020D34D62107B
:101A600014E000E010E000E000B583B01F4B1A78EE
:101A7000D2B20192FF221A701B78DBB28DF80330CC
:101A80009DF8033003F05003194A1370194B0722D5
:101A90001A6009E0174A1368013B13609DF8033090
:101AA0005B00DBB28DF803309DF8033013F0800F3C
:101AB000F0D1104A13681B0203F4E0631360019B2A
:101AC000DBB20A4A13700C4B1A6842F470021A60B7
:101AD0001A6842F070421A60FFF7B0FF074B00220D
:101AE0001A60FFF7F5FEFFF737FF00BF00E400E0E4
:101AF0003C0400204004002020ED00E02C000020E9
:101B000010B50446FFF7CAFB20461CF01BFB044639
:101B1000FFF752FC204610BD48B110B50446FFF750
:101B2000BDFB20461CF016FBFFF746FC10BD7047BE
:101B3000704708B5FFF7E4FF08BD08B5FFF7ECFFF5
:101B400008BD08B5FFF7F4FF002008BD08B5034B3A
:101B500001221A70FFF77AFB002008BD4404002020
:101B600008B50820FFF7E5FF08BD38B50546FFF7C3
:101B7000F7FFC0B10446032200210120FFF779F8E6
:101B8000206020B100231A461946FFF793F8206819
:101B900058B100234FF0FF321946FFF71AF9002021
:101BA00060602C6000E0012038BD0120FCE70000EF
:101BB00010B50E4B1B7813B1A8B104680EE00C4BA6
:101BC0000C4AB1210C4800F0F1FC00231A461946DA
:101BD0002068FFF76FF86368013B63606368002B60
:101BE000F3D1002010BD0220FCE700BF4404002018
:101BF000B86302089C630208D463020808B503684E
:101C0000186818B100221A60FFF7C8FA08BD00B5BD
:101C100083B00190C368006998470198037A2BB993
:101C200001A8FFF7EBFF03B05DF804FB0430FFF7FA
:101C3000BFFFF5E708B51420FFF77BFF08BD08B527
:101C4000FFF77BFF08BD00002DE9F04784B09DF849
:101C5000306091B38846A3F5807189B2B1F5706F99
:101C60002DD8711EC9B204292BD899461746824631
:101C7000FFF7E0FF0546CAF8000038B30430FFF76D
:101C800074FF044608B101241CE0C5F80C802F61E4
:101C900001232B72002303930293019500962B4698
:101CA0004FEA99020A490B48FFF7F2F9012801D0DF
:101CB000012407E0CAF8005004E0032402E00524F0
:101CC00000E00624204604B0BDE8F0870124F9E7CF
:101CD000106402080F1C000880B103681A687AB10A
:101CE00000B583B002A840F8043DFFF787FF0198D4
:101CF000FFF7A5FF002003B05DF804FB022070474A
:101D00000720704708B5FFF7C7FB08BD03490B68FC
:101D1000012202FA00F003430B60704730380240A2
:101D200008B5FFF77BFE08BD0C4B1A6842F00102B4
:101D30001A60002199601A6822F0847222F48032BD
:101D40001A60074A5A601A6822F480221A60D96021
:101D5000044B4FF000629A60704700BF00380240A9
:101D60001030002400ED00E0224B9B6803F00C03D0
:101D7000042B15D0082B17D01BB11F4B1F4A1A601C
:101D800002E01D4B1D4A1A601A4B9B68C3F30313F4
:101D90001B4AD35CDAB218490B68D3400B6070471A
:101DA000154B184A1A60EFE7124B5A685B6803F04C
:101DB0003F0312F4800F13D0124AB2FBF3F20D4B23
:101DC0005B68C3F3881303FB02F30A4A5268C2F349
:101DD000014201325200B3FBF2F3074A1360D3E72A
:101DE000064AB2FBF3F2034B5B68C3F3881303FBB1
:101DF00002F3EAE700380240400000200024F4002B
:101E00003000002000127A0008B5FFF78DFF08BDF2
:101E100008B5FFF7A9FF08BDF8B504460D461746FB
:101E20001E46274800F0F0F82168264800F0ECF83C
:101E30006168254800F0E8F8A168244800F0E4F85B
:101E4000E168234800F0E0F82169224800F0DCF85E
:101E50006169214800F0D8F8A169204800F0D4F861
:101E6000E1691F4800F0D0F81E4800F0CDF829467F
:101E70001D4800F0C9F81D4CE16A1D4800F0C4F887
:101E8000216B1C4800F0C0F8E16B1B4800F0BCF867
:101E900015F0800F0AD115F4004F0CD1174800F04F
:101EA000B3F80699164800F0AFF8F8BD3946154862
:101EB00000F0AAF8EFE73146134800F0A5F8EDE787
:101EC000206402083064020840640208506402087A
:101ED000606402087064020880640208906402086A
:101EE000A0640208B0640208BC64020800ED00E0CF
:101EF000CC640208DC640208EC6402081C65020879
:101F000024650208FC6402080C65020838B5836980
:101F10001B888B4201D0002038BD04460368456809
:101F2000013B302B68D8DFE803F045211C1C5D30F5
:101F3000332D191967191919191936192467192711
:101F4000673967676767676767676767676767674F
:101F50006767676767676767671919004FF0FF333F
:101F60000360A3690233A3610120D5E70023036066
:101F7000F7E700230360F4E700232B606B60AB609E
:101F8000EB60EEE700230360EBE7AB680360E8E794
:101F900000230360E5E700230360E2E7BFF34F8F10
:101FA0001649CA6802F4E062154B1343CB60BFF3D5
:101FB0004F8FFEE7134928681DF027FA40B96B6878
:101FC00013B901232360CCE7042B05D0082B06D0DE
:101FD0004FF0FF332360C4E702232360C1E70323EC
:101FE0002360BEE72B68023B012B02D9AB6803607C
:101FF000B7E700230360B4E700208DE700ED00E0C1
:102000000400FA053C6502080FB400B583B004ABC8
:1020100053F8042B0193802106481FF02FFA002863
:1020200003DD0146034800F04FF803B05DF804EB10
:1020300004B070474804002010B504461DF068FF46
:102040000146204600F040F80121024800F03CF82B
:1020500010BD00BFB8640208F0B585B006460C4656
:10206000174B1B6883B9174B019304230293032377
:102070000393012501AF28463946ABBE0546B5F1AD
:10208000FF3F14D00E4B1D600D4B1B680193029651
:102090000394052501AE28463146ABBE0546B5F191
:1020A000FF3F07D0AC4208D0601B05B0F0BD4FF039
:1020B000FF30FAE74FF0FF30F7E74FF0FF30F4E77B
:1020C000C80400203C65020808B5FFF7C5FF08BD3D
:1020D00008B50348FFF7B0FF012000F05FF800BF2C
:1020E0006C65020808B503460C4A12685AB10B4ADF
:1020F0001068033323F003030344094A934206D8CC
:10210000064A136008BD054A06491160EFE71BF057
:102110006BFB0C2303604FF0FF30F3E7CC0400208F
:1021200000F801205C1C002030B513240025204657
:102130002946ABBE0446204630BD38B504461BF0E8
:1021400053FB0546FFF7F0FF2860204638BDB0F18D
:10215000FF3F00D0704708B5FFF7EFFF08BD000054
:1021600010B504460B4B186808B1836B5BB1132C98
:102170000CD8094B53F83430B3F1FF3F08D0064870
:1021800000EBC40010BD1BF037FCF0E70020F9E7BE
:102190000020F7E7D00000205805002000B530B936
:1021A000044D182420462946ABBE0446FEE7024DE6
:1021B000F7E700BF26000200230002002DE9F041EE
:1021C00084B0234F01970326039600230293012432
:1021D00001AD20462946ABBE80461E4BC3F80080A9
:1021E000019703960423029320462946ABBE8046FE
:1021F000194BC3F8008001970396082302932046E9
:102200002946ABBE0446154B1C60B4F1FF3F01D01C
:1022100000230AE0104B1A68104B1A60F8E7104AC6
:102220004FF0FF3142F833100133132BF7DD0C4B25
:10223000084A12681A6000225A60074909689960C2
:10224000DA600649096819615A6104B0BDE8F08195
:102250003C65020850050020540500204C05002074
:10226000580500202DE9F04F83B083468A462F4B56
:1022700000934F23019315266C4630462146ABBE92
:102280000646002E3DD1B146284B002283F84F2050
:10229000009D3746B04617E01BF0DAFE204490F967
:1022A0000130002B0FDB092C0DD0082E27DC222C4F
:1022B00001D0272C01D1013527461D4B43F826506C
:1022C00001364FF00108013595F90040BCB1B8F175
:1022D000000FE1D037B1A742F5D100232B704F4654
:1022E000C846F0E71BF0B4FE204490F90130002B03
:1022F00001DB092CE7D100232B70B846E3E70EB1D0
:1023000006E00026094B00221A70094A13600136C4
:10231000074B002243F82620CBF80060CAF80030B3
:10232000FFF74CFF03B0BDE8F08F00BFD4040020DE
:102330002405002030B585B0019002910392062457
:1023400001AD20462946ABBE04462046FFF7FFFEFE
:1023500005B030BD70B50E461546FFF701FF68B1F8
:1023600004462A4631460068FFF7E4FFB0F1FF3F1C
:1023700003D0281A63680344636070BD1BF034FA0D
:10238000092303604FF0FF30F7E7F0B583B00C4648
:102390001546FFF7E5FEC0B10646022D1CD8012DFB
:1023A00021D0022D35D03368009301940A256F4661
:1023B00028463946ABBE05462846FFF7C8FE00282A
:1023C0003BDB7460204603B0F0BD1BF00DFA09231F
:1023D00003604FF0FF30F6E71BF006FA16230360A8
:1023E0004FF0FF30EFE74368E418DCD51BF0FCF951
:1023F000162303607368002B1CDD002C02DC4FF0F9
:10240000FF30E0E71BF0F0F98B2303604FF0FF3063
:10241000D9E7036802AF47F8083D0C25284639463E
:10242000ABBE05462846FFF792FEB0F1FF3FCAD08B
:102430000444B8E74FF0FF30C5E74FF0FF30C2E784
:1024400008B5FFF7A2FF08BD30B585B00190029135
:102450000392052401AD20462946ABBE0446204622
:10246000FFF775FE05B030BD70B50E461446FFF798
:1024700077FE70B10546224631460068FFF7E4FF5B
:10248000021E11DBA01A6B6803446B60944207D0F4
:1024900070BD1BF0A9F9092303604FF0FF30F7E787
:1024A0000020FFF74AFEF3E74FF0FF30F0E730B5CA
:1024B00083B002AD45F8040D022420462946ABBE88
:1024C00004462046FFF743FE03B030BD38B504464E
:1024D000FFF746FE90B10546013C012C04D80D4B98
:1024E0009A681B699A4210D02868FFF7E0FF0346FC
:1024F00010B94FF0FF322A60184638BD1BF074F94E
:10250000092303604FF0FF33F6E74FF0FF3303601A
:102510000023F1E75805002070B50C46FFF720FEB8
:10252000A8B10646636843F4005363604FF48063C8
:1025300063640C2528463146ABBE05462846FFF7A6
:1025400006FEB0F1FF3F01D02061002070BD1BF0FE
:102550004BF9092303604FF0FF30F7E738B5054624
:102560000C465822002120461BF0CDFE214628466D
:10257000FFF7D2FF38BD38B5FFF7F2FD80B1054651
:10258000092420462946ABBE04462046012C06D02D
:102590001BF02AF90446FFF7C7FD2060002038BD74
:1025A0001BF022F9092303600020F8E700B583B08F
:1025B0000C461946134652B1074A53B10193009293
:1025C000234602460548FFF71FFDFFF781FD044A39
:1025D000F3E7034BF2E700BF80650208906502084D
:1025E0009063020810B5002814BF04460124204659
:1025F0001BF0A8FD30B900F07FFB08B9FFF768FDBC
:102600008047F4E710BD70B50023A0EBC006C0EB17
:10261000C00210F8015B941905F07F02A240134339
:102620002A06F4D40B6070BD30B500231A4610F8AA
:10263000014B04F07F0595402B43250602F107026C
:10264000F5D41F2A06D8640642BF4FF0FF3404FABF
:1026500002F213430B6030BD5028F7B505460E4615
:1026600014461F4607D1D01C20F0030050F8043B4D
:102670003B6003B0F0BD00F00F030C2B2ED8DFE859
:1026800003F025071D25292D2D2D2D182125290085
:1026900001A92046FFF7B7FF019B002BE8D005F00A
:1026A0007002102A08BF264633442A0648BF1B681A
:1026B000DEE701A92046FFF7B7FFEDE7204630F837
:1026C000023BEAE7204630F9023BE6E7204650F8B5
:1026D000043BE2E7204650F8083BDEE7FFF7F8FC52
:1026E0001FB503AB009300230A4619461AF078FA87
:1026F000039805B05DF804FB00F07000202808B5D1
:1027000010D004D8C0B1102816D0FFF7E1FC402843
:102710000DD0502810D03028F7D10846BDE8084029
:102720001BF014B80846BDE808401BF013B8084673
:10273000BDE808401AF0FABF002008BDFF2970B5B7
:102740000C4615461E460BD001462046FFF7D4FF27
:10275000014633462A462046BDE87040FFF77CBF5D
:102760000021F6E773B50E461446054608B11AF087
:10277000DDFF20603178FF2906F101021DD0231D05
:102780002846FFF7DBFF024613782375FF2B02F183
:10279000010014D01023237501A9FFF734FF019B1A
:1027A0000344E3600378637501A90130FFF72BFF51
:1027B000019B0344236102B070BD6060E4E7002325
:1027C000EFE700002DE9F04F91B00023049300F0F3
:1027D0000303012B07460C46164611D003D3022BE8
:1027E00003D0FFF775FC02071AD5314620461AF0D0
:1027F00089FF18B1092011B0BDE8F08F0820FAE771
:1028000000F0080505F0FF0875BBD1F820901046D0
:102810000D21FFF765FF814540F04581062500E069
:10282000012510AB07F0080743F82C4D0093002357
:102830003D430C22194630461AF0F4F9062D40F0BB
:102840003E81276BD4E90A98002F0CBF4FF0010A94
:102850004FF0030A15F0080500F0C780BAF1010F28
:1028600040F0BE8000F0D2FA0225DAE700203BE11A
:10287000079A1344BB4240F23F81089F0FB10B9B64
:102880001F44099810B10E9B01381844002FACD09A
:10289000002800F0048115F00803029334D0472388
:1028A00023704E2363705523A3704323E3704623A4
:1028B00023714F2363715223A3710023E3714FF0FF
:1028C000000A6FF0030B07A9FFF7AEFE08A90390FB
:1028D000FFF7AAFE0799002967D03EDD9DF83C006E
:1028E000FF2834D000F00703042B3FF67AAF01A293
:1028F00052F823F01B290008E32700085529000897
:102900001B29000849290008E379012B0CBF54F862
:10291000203C04F158030493D1E74FF0040C0D9AC6
:1029200009AB0CFB11220C99FFF796FE099931B106
:102930007CB304AB0022204600F0A2FA48B3DDF8D5
:102940001C904FF0030A38E04FF0080CE7E74FF017
:10295000000CE4E74FF0020CE1E70D9B01FB0BB12B
:1029600003EB0109E4B1029AD2B9049B0693A9F1E1
:10297000040959F8041F41B106AB0022494420461E
:1029800000F07EFA0028F4D0012181F00101002935
:10299000D5D1089800287ED0039B0344184692E7BF
:1029A0005958B1FA81F14909F1E74FF0010AF0E70E
:1029B0004FF000094F464FF0010AEB077FF54AAF91
:1029C000BAF1020F3FF411AF0D213046049DFFF71D
:1029D00087FEC4E90A98C4E90805276306200AE7C8
:1029E000B9F1000F2ADA00F023FABAF1010F02D18F
:1029F000204600F05EF9B9F1000F1FDA0AAA41463D
:102A00003046FFF7AFFE9DF83C00FF280FD031465F
:102A1000FFF772FE6FF0030309FB03320D9B0C906E
:102A20001344002253F8221019B10132FAE7284664
:102A3000F0E7C4E90A200422C4E90C2310AB3046B5
:102A400043F81C4D009300231A4619461AF0EAF881
:102A500010AB012243F8209D009300231946304615
:102A60001AF0E0F80F213046FFF73AFE10AB00F005
:102A70000100074343F8247D009300230F221946E9
:102A800030461AF0CFF8BAF1020F02D1204600F01A
:102A900055FA0720AFE6BAF1000F3FF4A6AE814623
:102AA0004FF0020A89E710AA434642F82C4D4146EE
:102AB000009230460C2245F002051AF0B3F8304679
:102AC0001AF03AFE804600283FF48FAE01460AAA6B
:102AD0003046FFF747FE81469DF83C00FF283FF453
:102AE000C5AE3146FFF708FE0C900F213046FFF7C8
:102AF000F7FD20F00100471E0E9B4B457FF658AFB7
:102B00004A4606AB9DF83D100020FFF717FE07ABC5
:102B100002469DF83D100020FFF710FE08AB02466C
:102B20009DF83D100020FFF709FE09A9FFF76BFD96
:102B30000A9B069A1344BB4281467FF699AEDDF8A4
:102B40003890D9E71C4A536870B5A0F108041646BE
:102B500023B150F8081C6518AB4203D940F8043C77
:102B6000746070BD08D11D685B6840F8043C29445E
:102B700040F8081C5460F4E704325E6826B1B542A0
:102B800002D21A1D3346F8E7B54202BF2E686D68BF
:102B90005D6013681D6808BF89195E19B4421FBFC4
:102BA0005B6840F8043C136840F8081C06BF4919EC
:102BB00019605C60D5E700BFF805002000F108034C
:102BC00030B5082B0E4A38BF0823073352F8040FDC
:102BD00023F0070368B1D0E900148B420AD9021D23
:102BE0002046F7E7C5186C60C15010680360156097
:102BF000083030BDC91A0729F4D81460F8E700BFBF
:102C0000F805002010B500F1800420461BF09AFA68
:102C1000034630B92046FFF7D1FF034608B900F05C
:102C2000F5F88022002118461BF06DFB803010BDA6
:102C3000064A93688038984205D9D268134498426E
:102C400001D2FFF77FBF1BF085BA00BFF805002057
:102C500038B5084C4FF41E652846E5601BF072FA43
:102C6000A06010B9E060606038BD0023606005605E
:102C70004360F9E7F80500200378472B17D1437824
:102C80004E2B14D18378552B11D1C378432B0ED101
:102C90000379432B0BD143792B2B08D183792B2B31
:102CA00005D1C07901288CBF002001207047002089
:102CB000704710B5044648B100F043F82046FFF7CE
:102CC000DBFF18B154F8140C00F094F800F09EF8F3
:102CD00038B50246FFF7D0FF40B152F8184C002536
:102CE000104600F02EF825B100F0A2F804460125A8
:102CF000F6E7204600F08FF8024B1868BFF35B8FB1
:102D0000704700BF080600200378472B17D143788F
:102D10004E2B14D18378552B11D1C378432B0ED170
:102D20000379432B0BD143792B2B08D183792B2BA0
:102D300005D1C07901288CBF0020012070470020F8
:102D4000704738B5054600F051F80146026828463C
:102D5000A5F12004FFF7D8FF30B90AB100F056F80A
:102D60000C601446204638BD55F80C3C002BB4BF0F
:102D7000C3F10103013345F80C3C4B68A24203F157
:102D8000FF334B6028461CBF45F8102C0C606C6A62
:102D900019F01EFFE6E710B500F024F802680146BE
:102DA0009AB102F120042046FFF7AEFF28B908606F
:102DB0002046BDE8104019F00DBF5369002B05DA1D
:102DC000013301D110690860536110BD013B002B34
:102DD00002D113690B60EBE7F6DA00F017F8002078
:102DE00070470000004870470C06002000487047FC
:102DF0000C06002008B58047FFF76AF9024B1868F7
:102E0000BFF35B8F704700BF4C00002008B5FFF791
:102E1000F5FFFFF7EFFF08B58047FFF7F7FF00006A
:102E2000024B1868BFF35B8F704700BF5000002053
:102E300008B5FFF7F5FFFFF7EEFF1EB400F09BF8B3
:102E40001EBC1AF089FA0378472B17D143784E2B12
:102E500014D18378552B11D1C378432B0ED103792C
:102E6000432B0BD143792B2B08D183792B2B05D105
:102E7000C07901288CBF00200120704700207047D6
:102E80002DE9F3411E460378472B0D460246C179D2
:102E900013D143784E2B10D18378552B0DD1C378A5
:102EA000432B0AD10379462B07D143794F2B04D109
:102EB0008379522B01D1002931D01046FFF7C3FF8F
:102EC00080F00100C0B200230024019453BB58BB22
:102ED00001290ABF52F8203CA2F12003783B0129C6
:102EE00008BF52F8202C1C6818BF58320192236882
:102EF00020469B689847C8B1019B1B680193022735
:102F00002B6801AAD3F81080214601232846C04728
:102F100070B1019B3360384602B0BDE8F0810123F7
:102F20000846D1E7034CE2E7034CE0E70127E7E777
:102F30000746F0E7187902082079020810B5044620
:102F4000FFF754FF02462046A4F12001FFF77BFF64
:102F500060B154F8043C0133012B44F8043C03D124
:102F6000936844F8083C9160012010BD9368002BE1
:102F7000F9D0FFF74BFF10B5FFF738FF8268014625
:102F80000AB9FFF743FF02F120042046FFF75BFF79
:102F900040B1D369013BD36113B9906988609361F3
:102FA000204610BD8860FBE70DF0F9BA012810B586
:102FB00003D951F8140CFFF71DFFA1F12803BFF34B
:102FC0005B8F53E8002F013A43E800200028F8D136
:102FD000BFF35B8F5AB951F81C3C01F158040BB197
:102FE000204698472046BDE81040FFF721BE10BD9F
:102FF00038B5002540E91E1240F8805C0446FFF712
:103000000FFF44F8700CFFF7F9FE472304F8583C13
:103010004E2304F8573C552304F8563C432304F848
:10302000553C04F8543C2B2304F8533C04F8523C20
:10303000044B44F86C0C04F8515C44F8503CA4F187
:10304000800038BDAD2F000808B504460D46164671
:10305000FFF7CCFE436801334360324629462046E1
:10306000FFF7C6FF0446012344F8283B20461AF028
:1030700061F92046FFF765FEFFF7C8FE10B5034B68
:103080000360044600F0B2F8204610BDFC6502085B
:1030900010B50446FFF7F2FF20460C21FFF784FF2E
:1030A000204610BD2DE9F041069E9642074688460F
:1030B00015461C460AD0B868036806961E6A2A465A
:1030C00023464146B446BDE8F0416047194600F04A
:1030D00057F80028EFD00620BDE8F0812DE9F14F28
:1030E0000E461946834617469946DDE90A4ADDE948
:1030F0000C8500F045F890B1002E2C602F7109DB93
:103100003444A0450CBF06240124AC71002001B05A
:10311000BDE8F08F0236F9D10123AB71F6E74445E3
:1031200006D15146584600F02BF808B16F71EDE713
:10313000DBF808000368CDE90C85CDE90A4ADC69B3
:103140003A464B463146A44601B0BDE8F04F6047D1
:103150002DE9F04104460D4616461F4600F077F86B
:1031600048B9A06803689C6932463B462946A44694
:10317000BDE8F0416047BDE8F0817047002070472E
:10318000814208B50ED0406803782A2B0CD04968DC
:103190000B782A2B08BF01311CF037F9B0FA80F008
:1031A000400908BD0120FCE70020FAE77FB50024B4
:1031B0001023CDE902340368009415469E698DF80A
:1031C00004406B461268B0479DF8043003F00603D4
:1031D000062B03BF009B2B600120204604B070BD6E
:1031E000009890420CBF06200120704710B5034B99
:1031F00003600446FFF7C1FF204610BD7066020859
:1032000010B50446FFF7F2FF20460821FFF7CCFE79
:10321000204610BD2DE9F0419846DDE90834069EB0
:103220009E420746154607D10799FFF7A9FF18B137
:1032300065710020BDE8F08141463846FFF7A0FFE8
:103240000028F6D0012326602571A371F1E738B577
:1032500015461C46FFF794FF20B10823E3600623C0
:103260002560237138BD2DE9F04105460C46164610
:103270001F46FFF785FF48B9032F07D8236832465A
:10328000294620465B69BDE8F0411847BDE8F0815A
:103290002DE9F843334D2B685A1C07462A60002B52
:1032A0005CD1314C314B3248DFF8F080DFF8F090E0
:1032B000304E01221A702368996806F013FD2368C6
:1032C0002D48596806F00EFD23682C48D96806F091
:1032D00009FD2749404606F081FD2749484607F089
:1032E0005BFB2649304606F079FD2449244806F068
:1032F00075FD3369C6F8748043F400533361236865
:1033000020489968C9F8788006F0FCFC23681E48BC
:1033100059681E4EDFF88C8006F0F4FC23681C48C8
:10332000D9681C4C06F0EEFC1649304606F0E6FD66
:103330001549404607F07AFB1549204606F0DEFDA8
:103340001349154806F0DAFD2369C8F8786043F49C
:10335000005323612B68666701332B603846BDE854
:10336000F88300BF080C0020D00000204800002097
:10337000680600209807002018060020400600205C
:1033800024080020E006002090060020F00A00201B
:10339000B8060020D0090020600A0020B0080020F4
:1033A000080700203C0900200D4A1368591E022B13
:1033B00010B50446116011D10A4806F041FD0A48D3
:1033C00006F03EFD094806F03BFD094806F0C8FD41
:1033D000084806F0C5FD084806F0C2FD204610BDAD
:1033E000080C0020B00800209807002024080020C6
:1033F000F00A0020D0090020600A002040687047D1
:1034000010B5054B044640F8043B06F06BF8204627
:103410000DF0C4F8204610BDBC66020810B5044685
:10342000FFF7EEFF20460DF0BAF8204610BD000071
:1034300010B5034B0360044607F09EFB204610BD09
:10344000D066020810B5034B0360044607F094FBF6
:10345000204610BDE066020810B50446FFF7E8FFFD
:1034600020460DF09CF8204610BD10B50446FFF72D
:10347000E9FF20460DF093F8204610BD08B5836F94
:103480003BB14161D0E904231A4205D0034807F05B
:103490002FFB41F00101F4E708BD00BFE866020818
:1034A00008B543691943FFF7E9FF08BD70B5C46F5C
:1034B0000D460CB907F0F5FA237F4BB9204607F00B
:1034C000C6F92368294620469B69BDE87040184725
:1034D0000C44607F70BD90F8753010B504463BB960
:1034E0002021FFF7E3FF012384F8740084F875308E
:1034F00094F8740010BD000010B5044607F0FCFA03
:10350000064B23600023236784F8743084F87530F9
:10351000C4E91E33C4E92033204610BDD06602083A
:1035200038B5044608460D4608F010FC10B1284690
:1035300008F036F9E067284608F026FC10B1284666
:1035400008F00AFAC4F88000284608F03BFC10B1E5
:10355000284608F01FFAC4F8840038BD38B5044680
:103560000D460EF058F904F16C012046FFF7D8FF24
:10357000A567B5FA85F500236D0984F8743084F8E1
:10358000753023672361656138BD000008B5C36FDE
:103590003BB14161D0E904231A4205D0034807F04A
:1035A000A7FA41F00101F4E708BD00BFE866020890
:1035B00008B543691943FFF7E9FF08BD10B5044694
:1035C00007F09AFA064B23600023C4E91C3384F801
:1035D0007830C4E91F33C4E92133204610BD00BF51
:1035E000E066020838B5044608460D4601F0A6F824
:1035F00010B1284600F0D0FFC4F88000284601F042
:10360000BBF810B1284601F003F8C4F8840028463E
:1036100001F0D0F810B1284601F018F8C4F888007D
:1036200038BD38B504460D460EF0F5F804F16C01CE
:103630002046FFF7D7FFE567B5FA85F500236D094A
:10364000636784F8783023672361656138BD70470C
:10365000704730B500224FF0FF344FF0FF35C0E91E
:103660000045C0E9022230BD82B08DE80C004FF069
:10367000FF334FF0FF32C0E900230023C0E90233DB
:1036800002B0704700207047002070474FF0FF30B5
:103690007047036810B55B6A04469847431C1EBF19
:1036A000A36813F8010BA36010BD4FF0FF30704703
:1036B0004FF0FF3070477047704730B500224FF031
:1036C000FF344FF0FF35C0E90045C0E9022230BDAC
:1036D00082B08DE80C004FF0FF334FF0FF32C0E9AD
:1036E00000230023C0E9023302B070470020704776
:1036F000002070474FF0FF307047036810B55B6AD9
:1037000004469847431C1EBFA36853F8040BA360EC
:1037100010BD4FF0FF3070474FF0FF307047000092
:1037200010B5044B044640F81C3B0EF0BFF9204690
:1037300010BD00BF6067020810B5044B044640F896
:103740001C3B0EF0B3F9204610BD00BFA067020875
:1037500010B50446FFF7E4FF20460CF020FF20469A
:1037600010BD10B50446FFF7E7FF20460CF017FF29
:10377000204610BD2DE9F04106460D469046002436
:1037800044451DDAD6E905073B1A0FD0A8EB04071C
:103790009F42A8BF1F463A4629461AF090FD73691A
:1037A0003C443D44A0451F447761E9DD33682978F6
:1037B0005B6B30469847013002D001340135DFE7BA
:1037C0002046BDE8F0812DE9F04107460E469046BF
:1037D0000025454521DAD7E90504844213D0241A8F
:1037E000A410A8EB05039C42A8BF1C461CB12246AE
:1037F00031461EF0F8FD7B692544A4002644A84507
:103800001C447C61E5DD3B6831685B6B384698475A
:10381000013002D001350436DBE72846BDE8F081EF
:103820002DE9F04106460D469046002444451DDA38
:10383000D6E902177B1A0FD0A8EB04079F42A8BF56
:103840001F463A4628461AF03AFDB3683C443D44C8
:10385000A0451F44B760E9DD336830469B6A98474E
:10386000431C03D0287001340135DFE72046BDE852
:10387000F0812DE9F04107460E469046002545456A
:1038800021DAD7E902148C4213D0641AA410A8EBF1
:1038900005039C42A8BF1C461CB1224630461EF0C0
:1038A000A2FDBB682544A4002644A8451C44BC6076
:1038B000E5DD3B6838469B6A9847431C03D030607F
:1038C00001350436DBE72846BDE8F08103689B69D3
:1038D0001847D0E902318B42024602D303689B6A43
:1038E000184713F8010B93607047D0E902218A4210
:1038F00002D303685B6A18471078704730B4D0E988
:103900000525954203D8036830BC5B6B18471170DE
:1039100042690132426130BC0846704703681B6B44
:103920001847000010B5074B036000230446C0E9A8
:103930000133C0E90333C0E905331C300DF03CFC12
:10394000204610BD6067020803689B691847D0E9EC
:1039500002318B42024602D303689B6A184753F830
:10396000040B93607047D0E902218A4202D30368B6
:103970005B6A18471068704703681B6B18470000A4
:1039800010B5074B036000230446C0E90133C0E9CA
:103990000333C0E905331C300DF00EFC204610BD8A
:1039A000A067020883685869704783689869704700
:1039B0008368586B704783689B6B0020DAB262F3B0
:1039C0000700C3F3072262F30F20C3F3074262F339
:1039D00017401B0E82B063F31F6002B0704783680C
:1039E000DB6B0020DAB262F30700C3F3072262F355
:1039F0000F20C3F3074262F317401B0E82B063F33C
:103A00001F6002B07047836858697047836898697F
:103A100070478368586B704783689B6B0020DAB2ED
:103A200062F30700C3F3072262F30F20C3F30742D8
:103A300062F317401B0E82B063F31F6002B0704741
:103A40008368DB6B0020DAB262F30700C3F307225E
:103A500062F30F20C3F3074262F317401B0E82B0DC
:103A600063F31F6002B070478368586A70478368C9
:103A7000986A704700207047002070477047002008
:103A8000914204D251F8043B03EB7060F8E77047B1
:103A900010B50D4B036090F86C3004467BB1806824
:103AA00008B10CF0E5FDE06908B10CF0E1FD606AD9
:103AB00008B10CF0DDFDE06A08B10CF0D9FD20463C
:103AC0000DF086FF204610BDE86A020810B50D4BC8
:103AD000036090F86C3004467BB1806808B10CF04C
:103AE000C7FDE06908B10CF0C3FD606A08B10CF0D5
:103AF000BFFDE06A08B10CF0BBFD20460DF068FF89
:103B0000204610BDF86A020810B5034B0360044656
:103B10000DF05EFF204610BD7C6A020810B5034B15
:103B2000036004460DF054FF204610BD946A02085D
:103B30000B4B10B5036090F8243104465BB18068EC
:103B400008B10CF095FD606908B10CF091FDE069D9
:103B500008B10CF08DFD20460DF03AFF204610BD57
:103B6000086B020810B5034B036004460DF030FFEC
:103B7000204610BD4069020810B5034B036004469F
:103B80000DF026FF204610BD7C69020810B5034BDE
:103B9000036004460DF01CFF204610BDAC6902080E
:103BA00010B5034B036004460DF012FF204610BD14
:103BB000AC6A020810B5034B036004460DF008FF21
:103BC000204610BDC06A020810B50446FFF760FF2A
:103BD00020460CF0E4FC204610BD10B50446FFF76B
:103BE00075FF20460CF0DBFC204610BD10B50446E6
:103BF000FFF78AFF20460CF0D2FC204610BD10B51E
:103C00000446FFF78BFF20460CF0C9FC204610BD90
:103C100010B50446FFF78CFF20460CF0C0FC204690
:103C200010BD10B50446FFF79DFF20460CF0B7FC11
:103C3000204610BD10B50446FFF79EFF20460CF04D
:103C4000AEFC204610BD10B50446FFF79FFF20468E
:103C50000CF0A5FC204610BD10B50446FFF7A0FFF0
:103C600020460CF09CFC204610BD10B50446FFF722
:103C7000A1FF20460CF093FC204610BD13B58B68C5
:103C800001AA9968044605F0BFFE204602B010BDA7
:103C900013B58B6801AA9968044605F0B5FE204665
:103CA00002B010BD13B58B6801AA9968044605F0EF
:103CB000ABFE204602B010BD13B58B6801AAD969CE
:103CC000044606F047FD204602B010BD13B58B68D0
:103CD00001AA596A044606F03DFD204602B010BD17
:103CE00013B58B6801AAD96A044606F033FD204655
:103CF00002B010BD13B58B6801AAD969044606F05D
:103D000029FD204602B010BD13B58B6801AA596A7F
:103D1000044606F01FFD204602B010BD13B58B68A7
:103D200001AAD96A044606F015FD204602B010BD6E
:103D300013B58B6801AA5969044606F00BFD2046AD
:103D400002B010BD13B58B6801AAD969044606F00C
:103D500001FD204602B010BD10B5054B044640F8E9
:103D6000083B0EF02BFB20460DF032FE204610BD26
:103D7000346A020810B50446FFF7EEFF20460CF047
:103D80000EFC204610BD000010B5054B044640F85F
:103D9000083B0EF013FB20460DF01AFE204610BD26
:103DA000C068020810B50446FFF7EEFF20460CF08D
:103DB000F6FB204610BD000038B50D4B03600569C9
:103DC00004460DF029FE854203D015B128460CF0BB
:103DD0004FFCA06810B103685B68984704F10C00C1
:103DE0000EF0ECFA20460DF0F3FD204638BD00BF82
:103DF000BC69020810B50446FFF7DEFF20460CF050
:103E0000CEFB204610BD2DE9F04385B01C4681460F
:103E100003AB02A806F0B4FC01AB21460C9A03A840
:103E200006F0AEFC029D039C55F80C3C54F80C7C4B
:103E300005EB830804EB87072246294648460DF028
:103E400090FB064678B928461EF042F905EB80053E
:103E500020461EF03DF9A84504EB80040DD13E1B21
:103E600018BF4FF0FF3603A806F008FA02A806F0C4
:103E700005FA304605B0BDE8F083A74202D004350C
:103E80000434D9E70126EEE72DE9F34715461C4631
:103E9000284B036022466B460746894601A82946FF
:103EA00006F06EFC019EDFF890A056F80C3C641BF7
:103EB00006EB8308204B64109C4294BFA0004FF097
:103EC000FF300CF006FE054623463246294648469A
:103ED0000DF052FB844211D8441C28460CF0C8FB5C
:103EE000544594BFA0004FF0FF300CF0F2FD234684
:103EF00005460146324648460DF03EFB024629463D
:103F0000384606F043FB30461EF0E2F806EB80062A
:103F1000B04505D000213846043606F0C0FBD3E793
:103F200028460CF0A5FB01A806F0A8F9384602B017
:103F3000BDE8F087FC0B0020FEFFFF1F0A2807D812
:103F40002F2917D93030814214D2A1F130007047A7
:103F5000A1F1300009280FD9A1F16103052B02D886
:103F6000A1F157007047A1F14103052B02D8A1F13F
:103F7000370070474FF0FF307047000008B42DE95C
:103F8000F7410F460420002190461AF06FF81649B9
:103F900005461BF03AFA28B328461BF0B9FF461C29
:103FA00030460CF096FD2946324604461AF087F951
:103FB0000D4904201AF05AF80AAB099A01934146B8
:103FC00038461DF05BFA054634B1214604201AF04C
:103FD0004DF820460CF04CFB284603B0BDE8F041FC
:103FE00001B070470446E7E72E6B020813460A4605
:103FF00011B119681EF0E8B9084670470AB11EF001
:10400000F2B9704713460A4611B119461EF0F1B9CC
:104010007047000000310B4A026018BF01210022E6
:104020004160C0E902220274C0E90522C0E907220A
:10403000C0E90922C0E90B22C0E90D22C26380F861
:104040006C207047E86A020800310B4A026018BF12
:10405000012100224160C0E902220274C0E9052268
:10406000C0E90722C0E90922C0E90B22C0E90D22FC
:10407000C26380F86C207047F86A020810B50032FD
:1040800018BF01224260054B036000220446816094
:1040900011460DF0D1F9204610BD00BF006A02089C
:1040A00003689B6818470368DB68184710B50B68FE
:1040B00004461B699847204610BD10B50B6804469E
:1040C0005B699847204610BD10B50B6804469B6994
:1040D0009847204610BD10B50B680446DB69984729
:1040E000204610BD03681B6A184703685B6A82B0EC
:1040F00002B0184703689B6A82B002B018470000FC
:1041000010B5003218BF01224260054B0360002247
:104110000446816011460DF03DF9204610BD00BFF8
:10412000CC69020803689B6818470368DB68184776
:1041300010B50B6804461B699847204610BD10B5A2
:104140000B6804465B699847204610BD10B50B68A4
:1041500004469B699847204610BD10B50B6804467D
:10416000DB699847204610BD03681B6A184703683F
:104170005B6A82B002B0184703689B6A82B002B0E3
:104180001847F0B589B006AC84E80C00139A0B68A8
:104190000592129A0492119A03929DF8402002927D
:1041A0000EAA05460E4692E803008DE80300284655
:1041B0009F68314694E80C00B847284609B0F0BD26
:1041C000F0B589B006AC84E80C00139A0B68059230
:1041D000129A0492119A03929DF8402002920EAA1C
:1041E00005460E4692E803008DE803002846DF6886
:1041F000314694E80C00B847284609B0F0BD70B5C8
:1042000088B006AC84E80C00DDE91023CDE9042376
:104210000E9B02930D9B01930E689DF83030009326
:10422000B66894E80C000546B047284608B070BD53
:1042300070B586B004AC84E80C000D9A03920C9A19
:1042400002920B9A01920B689DF828200092DE687A
:1042500094E80C000546B047284606B070BD000043
:104260000031094A026018BF012100224160C0E903
:1042700002220274C0E90522C0E90722C0E909222E
:1042800080F82421704700BF086B020810B5003287
:1042900018BF0122044B4260044603608160002184
:1042A0000DF0DEF9204610BD1C69020803689B680A
:1042B00018470368DB68184710B50B6804461B698C
:1042C0009847204610BD10B50B6804465B699847B7
:1042D000204610BD10B50B6804469B6998472046E0
:1042E00010BD0000003218BF0122074B10B542601C
:1042F0000360816004460DF08FFB002120612046A1
:104300000DF04CFE204610BDBC69020883689A6817
:104310000A60DB684B60704783681A690A605B69F2
:104320004B60704783689A690A60DB694B6070472D
:104330008368DA6A0A601A6B4A605A6B8A609A6B01
:10434000CA60DA6B0A611A6C4A615B6C8B617047F8
:1043500083689A6C0A60DA6C4A601A6D8A605A6DDA
:10436000CA609A6D0A61DA6D4A611B6E8B61704793
:1043700083685A6E0A609A6E4A60DA6E8A601A6FB3
:10438000CA605A6F0A619A6F4A61DA6F8A61D3F81C
:104390008020CA61D3F884200A62D3F888204A6258
:1043A000D3F88C208A62D3F89030CB627047836850
:1043B000D3F894200A60D3F898204A60D3F89C2060
:1043C0008A60D3F8A020CA60D3F8A4200A61D3F889
:1043D000A8204A61D3F8AC208A61D3F8B020CA6122
:1043E000D3F8B4200A62D3F8B8204A62D3F8BC20CC
:1043F0008A62D3F8C030CB62704703689B68184765
:10440000F0B589B006AC84E80C00129A0B680492EF
:10441000119A0392109A02920EAA05460E4692E84D
:1044200003008DE803002846DF68314694E80C005D
:10443000B847284609B0F0BDF0B589B006AC84E8AD
:104440000C00129A0B680492119A0392109A02922D
:104450000EAA05460E4692E803008DE803002846A2
:104460001F69314694E80C00B847284609B0F0BDF2
:10447000F0B589B006AC84E80C00129A0B6804927F
:10448000119A0392109A02920EAA05460E4692E8DD
:1044900003008DE8030028465F69314694E80C006C
:1044A000B847284609B0F0BDF0B589B006AC84E83D
:1044B0000C00129A0B680492119A0392109A0292BD
:1044C0000EAA05460E4692E803008DE80300284632
:1044D0009F69314694E80C00B847284609B0F0BD02
:1044E000F0B589B006AC84E80C00129A0B6804920F
:1044F000119A0392109A02920EAA05460E4692E86D
:1045000003008DE803002846DF69314694E80C007B
:10451000B847284609B0F0BD003110B518BF0121D9
:10452000044B4160036004460DF06CFAA060204625
:1045300010BD00BF346A020803689B68184773B552
:10454000079E01960D68069E0096ED680446A847F2
:10455000204602B070BD03681B691847003110B5D2
:1045600018BF0121044B4160036004460DF04AFA74
:10457000A060204610BD00BFC068020810B40468E7
:10458000A468A44610BC604738B50D680446ED68C1
:10459000A847204638BD000010B504460A480DF073
:1045A0009BFA2368D3E90123834202D952F8200001
:1045B00008B906F076FA0023044A05490BF0F1FF2A
:1045C00008B90CF052F810BD040C0020F471020878
:1045D000047C020810B504460A480DF07DFA2368F1
:1045E000D3E90123834202D952F8200008B906F02A
:1045F00058FA0023044A05490BF0D3FF08B90CF020
:1046000034F810BDCC0B0020306C0208047C02088A
:1046100010B504460A480DF05FFA2368D3E9012378
:10462000834202D952F8200008B906F03AFA002372
:10463000044A05490BF0B5FF08B90CF016F810BD97
:10464000C40B0020046C0208047C020810B5044668
:104650000A480DF041FA2368D3E90123834202D9C5
:1046600052F8200008B906F01CFA0023044A054954
:104670000BF097FF08B90BF0F8FF10BDC80B002036
:10468000F86B0208047C020810B504460A480DF0D5
:1046900023FA2368D3E90123834202D952F8200088
:1046A00008B906F0FEF90023044A05490BF079FF2A
:1046B00008B90BF0DAFF10BDD80B0020506B0208D0
:1046C000047C020810B504460A480DF005FA236878
:1046D000D3E90123834202D952F8200008B906F039
:1046E000E0F90023044A05490BF05BFF08B90BF021
:1046F000BCFF10BDDC0B0020306B0208047C0208FC
:1047000010B504460A480DF0E7F92368D3E9012300
:10471000834202D952F8200008B906F0C2F90023FA
:10472000044A05490BF03DFF08B90BF09EFF10BD90
:10473000C00B0020706B0208047C020810B5044610
:104740000A480DF0C9F923689A6882420CD95B685F
:1047500053F8200038B10023054A06490BF021FF29
:10476000003018BF012010BD0020FCE7040C002021
:10477000F4710208047C020810B504460A480DF0E2
:10478000ABF923689A6882420CD95B6853F8200021
:1047900038B10023054A06490BF003FF003018BF6B
:1047A000012010BD0020FCE7C40B0020046C0208AF
:1047B000047C020810B504460A480DF08DF9236800
:1047C0009A6882420CD95B6853F8200038B1002304
:1047D000054A06490BF0E5FE003018BF012010BD68
:1047E0000020FCE7C80B0020F86B0208047C0208DC
:1047F0002DE9F043DDE907740026B446013B12F8C9
:104800000CE0A4EB0708BEEBA80F02EB0C0509DBDC
:10481000A0F1040C3B46A34211D053F8047B4CF8A2
:10482000047FF8E74FFA8EF9B9F1000FF0DD634528
:10483000A4EB8E048CBF0CF1010C0136DFE7404481
:1048400016F1FF360FD301602B789B00074604EB6F
:10485000030E744502D104331844F1E754F804CB35
:1048600047F804CFF5E7954210D0016015F8013DF7
:104870009B00064604EB030C644502D10433184444
:10488000F1E754F8047B46F8047FF5E7BDE8F083D0
:10489000F7B5DDE9087408461946DDE90A36C7B1FF
:1048A000FD1AAD1003EB850CCDE9003C1346024622
:1048B0002046FFF79DFF041BA4103FB13268394624
:1048C000521BFFF79BFB33685D1B2C44346003B025
:1048D000F0BD3568E6E773B5099DDDE907401E4682
:1048E0002B6800EB8303CDE90003134620460A46FC
:1048F0003146FFF77DFF001B8010286002B070BDBD
:1049000030B59DF80C4084B103460A25B1FBF5F49F
:1049100005FB1411043152F8211043F8041D2146FF
:10492000002CF3D1C01A801030BD03F04A04402C93
:104930000AD1034601F007040434C90852F82440A0
:1049400043F8044DF6D1EDE713F4804F14BF14255E
:104950000425034601F00F042C44090952F82440B1
:1049600043F8044DF6D1DDE72DE9F04114469DF8FA
:1049700020201D460746DDE90683D2B106462046C3
:1049800029460A22002317F0E5FD0432204658F894
:10499000223046F8043D294600230A2217F0DAFDAA
:1049A00004460D4654EA0503E9D1B81B8010BDE862
:1049B000F08103F04A02402A11D1064604F00703B1
:1049C0000433EA0858F8233046F8043DE30843EA84
:1049D00045731C46154654EA0503EFD1E5E713F489
:1049E000804F14BF14210421064604F00F030B442A
:1049F0002A0958F8233046F8043D230943EA057391
:104A00001C46154654EA0503EFD1CEE710B40468FE
:104A1000E46AA44610BC60472DE9FF4704460846F7
:104A20000F46FFF74FFE0546FFF73AFB6061284649
:104A3000FFF739FBA0612846FFF754FB2946606366
:104A40006846FFF733FB009B53F80C0CE0600CF05A
:104A500040F8002301460646E268684604F098FCE8
:104A6000E3682BB196F90030002BD4BF002301235B
:104A70002946237401A8FFF720FB019B53F80C0C77
:104A8000344B2062984294BF80004FF0FF300CF00E
:104A900020F8226A80460023014601A805F04EFB5B
:104AA000294602A8FFF710FB029B53F80C0C294B78
:104AB000A062984294BF80004FF0FF300CF009F8DC
:104AC000A26A81460023014602A805F037FB294669
:104AD00003A8FFF700FB039B53F80C0C1D4B20634E
:104AE000984294BF80004FF0FF300BF0F2FF226B32
:104AF00001460023824603A805F020FB2846FFF765
:104B0000F4FAA0632846FFF7F5FAE0633846FFF7AA
:104B100043FD114B196804F1400301F10B02FFF74B
:104B200075FF012384F86C30A660C4F81C80C4F8BB
:104B30002490C4F82CA003A805F0A0FB02A805F05F
:104B40009DFB01A805F09AFB684604F0CBFC04B07D
:104B5000BDE8F087FEFFFF1F5C0000202DE9F0415B
:104B600005460F480CF0B8FF2B68DE6856F8208029
:104B70000446B8F1000F0FD17020FDF733FD414618
:104B80000746FFF747FA29463846FFF745FF224612
:104B9000394628680DF05EF856F82400BDE8F0812B
:104BA000DC0B00202DE9FF47044608460F46FFF7BF
:104BB0006BFD0546FFF7B6FA60612846FFF7B5FAC8
:104BC000A0612846FFF7D0FA294660636846FFF7E0
:104BD000AFFA009B53F80C0CE0600BF07AFF002357
:104BE00001460646E268684604F0D2FBE3682BB152
:104BF00096F90030002BD4BF0023012329462374EB
:104C000001A8FFF79CFA019B53F80C0C344B20626F
:104C1000984294BF80004FF0FF300BF05AFF226A99
:104C200080460023014601A805F088FA294602A81B
:104C3000FFF78CFA029B53F80C0C294BA0629842A8
:104C400094BF80004FF0FF300BF043FFA26A814613
:104C50000023014602A805F071FA294603A8FFF7D0
:104C60007CFA039B53F80C0C1D4B2063984294BFB5
:104C700080004FF0FF300BF02CFF226B0146002329
:104C8000824603A805F05AFA2846FFF770FAA06397
:104C90002846FFF771FAE0633846FFF77DFC114BB9
:104CA000196804F1400301F10B02FFF7AFFE012385
:104CB00084F86C30A660C4F81C80C4F82490C4F852
:104CC0002CA003A805F0DAFA02A805F0D7FA01A88B
:104CD00005F0D4FA684604F005FC04B0BDE8F0879E
:104CE000FEFFFF1F5C0000202DE9F04105460F4844
:104CF0000CF0F2FE2B68DE6856F820800446B8F10E
:104D0000000F0FD17020FDF76DFC41460746FFF7FD
:104D10009BF929463846FFF745FF22463946286861
:104D20000CF098FF56F82400BDE8F081D80B002065
:104D30002DE9F043044685B008460F46FFF74AFCCC
:104D40000146054601A8FFF7B7FA019B53F80C0C82
:104D5000E0600BF0BEFE002301460646E26801A8B3
:104D600004F016FBE3682BB196F90030002BD4BF9A
:104D7000002301232946237402A8FFF7A4FA029B0B
:104D800053F80C0C2B4BA061984294BF80004FF05D
:104D9000FF300BF09EFEA26981460023014602A867
:104DA00005F0CCF9294603A8FFF794FA039B53F8C2
:104DB0000C0C204B2062984294BF80004FF0FF30D3
:104DC0000BF087FE226A01460023804603A805F007
:104DD000B5F92846FFF76AFA60622846FFF769FAD4
:104DE000A0623846FFF7D8FB134B196804F12C0377
:104DF00001F124020546FFF709FE104B1968284609
:104E000001F11A0204F1BC03FFF700FE012384F84C
:104E10002431A660C4F81490C4F81C8003A805F0DF
:104E20002DFA02A805F02AFA01A804F05BFB05B0F0
:104E3000BDE8F083FEFFFF1F580000205400002053
:104E40002DE9F041054610480CF046FE2B68DE685F
:104E500056F820800446B8F1000F10D14FF494703A
:104E6000FDF7C0FB41460746FFF7FAF929463846E9
:104E7000FFF75EFF2246394628680CF0EBFE56F835
:104E80002400BDE8F08100BFCC0B002010B5044623
:104E9000006820B1FEF75BFD4FF0FF3363602046F2
:104EA00010BD03689B681847F7B56C4684E8060098
:104EB0009DF80450089F06463DB93A4619460098A9
:104EC000FEF75AFD874218BF01258DF8045094E87B
:104ED000030086E80300304603B0F0BD2DE9F04F33
:104EE0008FB00DF1180ADDF86080049008F16C04B1
:104EF00020468AE80C00FFF74FFB06462046FFF7E6
:104F0000F3FE1A9B1D68036C2A689A42044655F802
:104F10000C3C00F08480826B0992D0F82890426AA1
:104F2000029232683046576905EB83032A46042112
:104F3000B847401B8610B346002E00F0C6800EAF67
:104F40007A4B47F8103D7100384605F0D5FA626B90
:104F5000B31A002B74DD16EA220638BF1E46E3683A
:104F6000002B67D000227100384605F039FA384628
:104F700005F0F8F905EB8603CDE900530A98A1691D
:104F8000D4E90223FFF734FC0390384605F0EAF930
:104F90000A9B0399C91A4FF0FF328910384605F071
:104FA000EBF9636B002B0BDD61690AA805F077FB59
:104FB000002E47DB626B05EB86010AA805F0E6FAD6
:104FC000D8F80C2002F0B00303930A9B12F400728D
:104FD00053F80C3C18BF226A0EAD4B441344534A9D
:104FE00045F80C2D59002846059305F085FA039BDA
:104FF000D8F80860102B059B2CD1B3422CBF4FF082
:10500000000B4FF0010BF31A0027059309ABDB5D92
:10501000042B2BD8DFE803F07E7321656E00C26B92
:105020000992C26A0292D0F83090002B3FF479AF17
:10503000043576E732462946384605F001FAB0E7EE
:105040001E46AEE7626C71420AA805F0D9FA5A46CC
:105050002946B2E74FF0000BD5E7D8F80C309B0596
:1050600004D5D4E907120BA805F090FA0137042FF4
:10507000CCD1B9F1010F06D9029909F1FF320431FF
:10508000284605F083FA0B9B53F80C1C8E4209D975
:10509000039B202BA6EB010140D1199A284605F06D
:1050A000AFFA31460CAC00919AE806000B9B204603
:1050B000FFF7FAFE94E80300069028468DF81C10CE
:1050C00005F0DCF80AA805F0D9F89AE803000023F7
:1050D000C8F80830049B83E8030018460FB0BDE809
:1050E000F08FB9F1000FC1D0029B1968284605F076
:1050F000D6FABBE70AA9284605F044FAB6E7BBF1A1
:10510000000F05D0199A05990BA805F079FAADE7BB
:105110001999EBE7BBF1000FA8D0F3E70A46199BFA
:105120000021284605F068F9BBE700BFFC0B002012
:105130002DE9F04F8FB00DF1180ADDF86080049072
:1051400008F16C0420468AE80C00FFF725FA0646B1
:105150002046FFF703FD1A9B1D68036C2A689A42DC
:10516000044655F80C3C00F08480826B0992D0F81C
:105170002890426A029232683046576905EB8303F1
:105180002A460421B847401B8610B346002E00F083
:10519000C6800EAF7A4B47F8103D7100384605F0D7
:1051A000ABF9626BB31A002B74DD16EA220638BF26
:1051B0001E46E368002B67D000227100384605F0D8
:1051C0000FF9384605F0CEF805EB8603CDE900531C
:1051D0000A98A169D4E90223FFF70AFB0390384635
:1051E00005F0C0F80A9B0399C91A4FF0FF328910E5
:1051F000384605F0C1F8636B002B0BDD61690AA826
:1052000005F04DFA002E47DB626B05EB86010AA81C
:1052100005F0BCF9D8F80C2002F0B00303930A9B08
:1052200012F4007253F80C3C18BF226A0EAD4B44C6
:105230001344534A45F80C2D59002846059305F0B0
:105240005BF9039BD8F80860102B059B2CD1B34267
:105250002CBF4FF0000B4FF0010BF31A0027059302
:1052600009ABDB5D042B2BD8DFE803F07E732165EF
:105270006E00C26B0992C26A0292D0F83090002B85
:105280003FF479AF043576E732462946384605F0D3
:10529000D7F8B0E71E46AEE7626C71420AA805F087
:1052A000AFF95A462946B2E74FF0000BD5E7D8F8D8
:1052B0000C309B0504D5D4E907120BA805F066F95C
:1052C0000137042FCCD1B9F1010F06D9029909F1A8
:1052D000FF320431284605F059F90B9B53F80C1C9A
:1052E0008E4209D9039B202BA6EB010140D1199ACC
:1052F000284605F085F931460CAC00919AE8060085
:105300000B9B2046FFF7D0FD94E80300069028464B
:105310008DF81C1004F0B2FF0AA804F0AFFF9AE861
:1053200003000023C8F80830049B83E803001846F4
:105330000FB0BDE8F08FB9F1000FC1D0029B196822
:10534000284605F0ACF9BBE70AA9284605F01AF98A
:10535000B6E7BBF1000F05D0199A05990BA805F027
:105360004FF9ADE71999EBE7BBF1000FA8D0F3E7D0
:105370000A46199B0021284605F03EF8BBE700BF0E
:10538000FC0B00202DE9F04F8FB004AF07F11005A2
:1053900085E80C0097F85030BB607B6D81468A46EB
:1053A00007F1200003F16C010CF01CFB07F1200059
:1053B000FFF7F2F892B0F8600CF024FB07F1280632
:1053C000D7E9183446F8040D0DF110084FF0000B22
:1053D000CDE90234CDF800B02C4B40224146304696
:1053E000FEF7CCFD3F28044618DD0F3424F00704F7
:1053F000ADEB040D421C7A600CF004FBD7E91834C5
:105400000DF11008CDE902347862CDF800B01F4BE1
:105410007A6841463046FEF7B1FD044607F124069E
:10542000214607F11C030022304604F00DFF4444DE
:10543000304604F097FF7B6AF86822464146FFF742
:10544000E5FABB680296ABB1BB6D01937B6D00932F
:10545000514695E80C004846FFF740FD304604F001
:105460000DFF07F120000CF021FB48462C37BD460C
:10547000BDE8F08FBB6D01937B6D0093514695E8BD
:105480000C004846FFF754FEE8E700BF286B02080F
:10549000F0B587B004AC84E80C00DDE90D320F9D57
:1054A0009DF830700093CDE90125064694E80C0084
:1054B00027B1FFF713FD304607B0F0BDFFF738FE08
:1054C000F9E703681B6B184703689B6A18472DE9C7
:1054D000F8431D46C368DDE9086703F0B003202BDD
:1054E00089461446A6EB07060CD13A4629462046C3
:1054F000FEF784FD4A46314604EB8700FEF782FD45
:10550000BDE8F883102B0FD04FF000084A46314613
:105510002046FEF777FDA7EB080205EB880104EBB8
:105520008600FEF76BFDEBE76C30FFF735F82D21B9
:105530008046FFF7C9FF2B68984205D12B6844F8D5
:10554000043B4FF00108E1E72B214046FFF7BCFF89
:105550002B689842F2D030214046FFF7B5FF2B6808
:105560009842D1D1012FCFDD78214046FFF7ACFF23
:105570006B68984207D12B6823606B6863604FF0BB
:1055800002080834C2E758214046FFF79DFF6B68C8
:105590009842B9D1EFE737B5089C184623681546FD
:1055A000CDE90023DDE90623FFF791FF256003B075
:1055B00030BD2DE9F04F8BB004AFC7E900103E6C51
:1055C00007F1080106F16C0081E80C00FFF738FCD8
:1055D000F568B96C05F04A0A96B0BAF1400F044676
:1055E00000F12C090DF1100B02D0BAF1080F71D1A6
:1055F0004FF000082B464A46CDF800800BF15000D2
:10560000FFF77EF9227C7861C0F114030BEB830372
:1056100092B1C0001030ADEB000D0DF1180B07F189
:105620001402CDE90232CDE9006B3868A36AD4E9EF
:105630000212FFF750F95B467A69B8F1000F31D0DA
:10564000B96C00292CDB280505D5216B43F8041C17
:1056500001327A61043BB2687969914211DA9100B2
:105660000E3121F00701ADEB010D04AC07F114017F
:10567000CDE9013100943346796C3868FFF78BFF30
:1056800023460022B2607A69009207F10802786826
:1056900006CAFFF709FC78681C37BD46BDE8F08FE5
:1056A000E16AD3E7A905D6D5B96C0029D3D0BAF100
:1056B000400F01D1E16BC9E7C5F3803502350232F5
:1056C00059F8251043F8041CE16B43F8081C7A6173
:1056D000083BC0E7BB6C002B01DCBB6C59424FF0B0
:1056E000010887E730B587B004AC84E80C000C9B58
:1056F00002930B9B01930A9B009394E80C000546D0
:10570000FFF757FF284607B030BD2DE9F04F8BB0AB
:1057100004AF07F10805D7F840A0386085E80C0011
:10572000DAF80C3097F848607B6013F0010F07F14E
:10573000100416D17B6C0296CDE900A3204695E8B3
:105740000C00FFF736FF94E80300B860397395E862
:1057500003003B681C3783E803001846BD46BDE8DC
:10576000F08F0AF16C00FFF76BFB86B3D0E9059868
:10577000DAF80860B0453CDAA6EB0806B2000E3253
:1057800022F00702ADEB020D0DF1100B7A6C3146E1
:105790005846FEF737FC7B6803F0B0030022202B4D
:1057A000CAF8082016D14B4695E806002046CDF8E9
:1057B0000080FFF779FB94E803005B46B86039731B
:1057C000009695E806002046FFF76EFBBBE7D0E9A0
:1057D0000798CDE795E80600204600965B46FFF760
:1057E00063FB94E80300B8603973CDF800804B4642
:1057F000E7E70022CAF80820F7E72DE9F04F8BB061
:1058000004AFC7E900103E6C07F1080106F16C0017
:1058100081E80C00FFF714FBF46804F04A0896B026
:10582000B8F1400F054600F12C0A0DF1100B5DD0C8
:10583000B8F1080918BF4FF0010923465246CDF8C8
:105840000090B96C0BF15000FFF75AF82A7C786190
:10585000C0F114030BEB830392B1C0001030ADEB29
:10586000000D0DF1180B07F11402CDE90232CDE95C
:10587000006B3868AB6AD5E90212FFF72CF85B467B
:10588000B9F1000F0DD1A2050BD5BA6C4AB1B8F130
:10589000400F7A692DD1E96B43F8041C01327A611B
:1058A000043BB2687969914211DA91000E3121F01E
:1058B0000701ADEB010D04AC07F11401CDE9013195
:1058C00000943346796C3868FFF765FE2346002262
:1058D000B2607A69009207F10802786806CAFFF799
:1058E000E3FA78681C37BD46BDE8F08F4FF0000939
:1058F000A3E7C4F38034023402325AF8241043F888
:10590000041CE96B43F8081C7A61083BC9E730B511
:1059100087B004AC84E80C000C9B02930B9B0193B2
:105920000A9B009394E80C000546FFF766FF2846A3
:1059300007B030BD2DE9F04188B004AC0E9DD5F81C
:105940000C8084E80C0028F4804323F04A0343F4DD
:105950000273EB60109B02930F9BCDE9005306AFDF
:10596000064694E80C003846FFF747FF97E8030027
:1059700004908DF8141094E8030086E80300304684
:10598000C5F80C8008B0BDE8F0812DE9F04F8BB070
:1059900004AFC7E900103E6C07F1080106F16C0086
:1059A00081E80C00FFF74CFAF56805F04A09AAB047
:1059B000B9F1400F044600F12C0A0DF1100BD7E9A4
:1059C000122302D0B9F1080F75D14FF00008CDE9CC
:1059D0000158CDF800A00BF1A000FEF7C5FF227C16
:1059E0007861C0F128030BEB830392B1C000103043
:1059F000ADEB000D0DF1180B07F11402CDE90232E9
:105A0000CDE9006B3868A36AD4E90212FEF763FFA0
:105A10005B467A69B8F1000F34D0D7E9120100284B
:105A200071F100012CDB280505D5216B43F8041C1E
:105A300001327A61043BB2687969914211DA9100CE
:105A40000E3121F00701ADEB010D04AC07F114019B
:105A5000CDE9013100943346796C3868FFF79BFD3E
:105A600023460022B2607A69009207F10802786842
:105A700006CAFFF719FA78681C37BD46BDE8F08FF3
:105A8000E16AD3E7A905D6D5D7E912010143D2D0FF
:105A9000B9F1400F01D1E16BC8E7C5F3803502359C
:105AA00002325AF8251043F8041CE16B43F8081C35
:105AB0007A61083BBFE7D7E91201012871F10001C3
:105AC00004DAD7E91223524263EB43034FF0010893
:105AD0007DE730B587B004AC84E80C00DDE90C2329
