:020000040800F2
:10000000000002208D0100089301000897010008FC
:10001000090200080D020008550200080000000057
:100020000000000000000000000000009D02000829
:10003000A102000800000000A50200089D060008BB
:100040008901000889010008890100088901000868
:100050008901000889010008890100088901000858
:100060008901000889010008890100088901000848
:100070008901000889010008890100088901000838
:100080008901000889010008890100088901000828
:100090008901000889010008890100088901000818
:1000A0008901000889010008890100088901000808
:1000B00089010008890100088901000889010008F8
:1000C00089010008890100088901000889010008E8
:1000D00089010008890100088901000889010008D8
:1000E00089010008890100088901000889010008C8
:1000F00089010008890100088901000889010008B8
:1001000089010008890100088901000889010008A7
:100110008901000889010008890100088901000897
:100120008901000889010008890100088901000887
:100130008901000889010008890100088901000877
:100140008901000889010008890100088901000867
:100150008901000889010008890100088901000857
:100160008901000889010008890100088901000847
:1001700089010008890100088901000800000000C9
:100180008901000889010008FEE7FFFF08B500F0BB
:1001900093F800BEFEE71EF0040F0CBFEFF30880DB
:1001A000EFF309807146414A10472DE9F04182B0D2
:1001B00004468846124B5E6B9F6B9D6A1B6B13F067
:1001C000020F03D00E4BDB6A002B0CDB0D4800F056
:1001D000D9FBCDF800803B4632462946204600F048
:1001E000D9FA00BEFEE74BF6AB6100F04DFB0028EC
:1001F000ECD0034B4FF00042DA6202B0BDE8F08170
:1002000000ED00E0484A020800BEFEE71EF0040FC1
:100210000CBFEFF30880EFF309807146244A1047C2
:100220002DE9F04182B004468846084B5E6B9F6B17
:100230009D6A074800F0A6FBCDF800803B46324699
:100240002946204600F0A6FA00BEFEE700ED00E0D9
:10025000584A02081EF0040F0CBFEFF30880EFF3BA
:1002600009807146134A10472DE9F04182B00446D7
:100270008846084B5E6B9F6B9D6A074800F082FBC7
:10028000CDF800803B4632462946204600F082FAEF
:1002900000BEFEE700ED00E0644A020800BEFEE793
:1002A00000BEFEE700BEFEE770470000AB0100089D
:1002B000210200086902000800B583B000F062FA6C
:1002C000304B314A1360314A1360314B314A324965
:1002D0008B4204D21168196004330432F7E72A4BC9
:1002E0001A682E4B9A4200D0FEE7284B1A682C4B16
:1002F0009A42F9D1234B2B4A13602B4A13602B4BA4
:1003000002E000221A600433294A9342F9D3254BB4
:100310001B6813B9244B1B6803B1FEE700F036FAE3
:10032000694601A800F05CFC224C234BE41AA4109F
:100330000025AC4214DC214C214BE41AA41000250A
:10034000AC4213DC0099019800F090F805461D4C72
:100350001D4BE41AA410002C0EDC284600F0DCFB38
:10036000154B53F8253098470135E2E7144B53F805
:10037000253098470135E3E7013C134B53F824300F
:100380009847E8E7BABADECA00000020D802002089
:100390000000002034880208DC0200207856341265
:1003A00032547698DC020020EC1A0020DC02002097
:1003B000F01A0020F4030008F40300080C040008FD
:0C03C000F4030008140400080C040008FA
:1003CC003488020800000020DC0200203488020877
:1003DC000000001000000010DC020020F01A0020C9
:1003EC0000000010000000106D0500086D060008EC
:1003FC006577000815EB00088D4C0108C9710108E0
:08040C007B0500087B060008D7
:1004200038B504460D46012805D01CB94FF6FF73B8
:100430009D4208D038BD4FF6FF739942F5D104486C
:1004400001F0ECF9F1E7024801F074FAF2E700BFBD
:10045000E002002038B5044600F12805AC4204D083
:1004600054F8040B00F0AAF8F8E738BD10B594B0C2
:1004700002210AA800F0C8F803210BA800F0C4F874
:100480000DE00823C3F109030AAA02EB83040AABB7
:100490009C425BD0043C204600F0A8F8F7E704211A
:1004A0000CA800F0B1F801E00723EBE701210DA84B
:1004B00000F0AAF801E00623E4E702210EA800F00C
:1004C000A3F801E00523DDE705210FA800F09CF863
:1004D00001E00423D6E7012110A800F095F801E01F
:1004E0000323CFE7062111A800F08EF801E00223D4
:1004F000C8E7072112A800F087F801E00123C1E74F
:10050000082113A800F080F801E00023BAE72822B0
:10051000002168461CF0C7FA0022092A08DC930073
:100520000AA9194414A8034443F8501C0132F4E703
:100530006846FFF78FFF14AC0AAB9C4213D0043C13
:10054000204600F053F8F7E709239BE701F03BF85A
:1005500014AC0AAB9C4204D0043C204600F046F8A0
:10056000F7E701F030F8002014B010BD08B54FF6E1
:10057000FF710120FFF754FF08BD08B54FF6FF716A
:100580000020FFF74DFF08BD38B504460D46012891
:1005900005D01CB94FF6FF739D4208D038BD4FF609
:1005A000FF739942F5D1044801F038F9F1E70248A8
:1005B00001F0C0F9F2E700BFE402002038B50546BB
:1005C000074C17220749204607F0E5FF2968204617
:1005D00008F06DF80122044907F0DDFF38BD00BFC7
:1005E0004007002010490208C049020810B504461F
:1005F00008220349034807F0CEFF204610BD00BF84
:10060000044902084007002070B506460D46016007
:10061000144C0E221449204607F0BDFF29462046FF
:1006200008F045F8036853F80C3C0344DC6F64B1F0
:10063000054694F91C3053B194F92710284607F069
:10064000FBFE07F0A9FE304670BD08F034FD2046E1
:1006500008F015FC23689B690A212046984701464B
:10066000ECE700BF40070020F448020808B54FF649
:10067000FF710120FFF788FF08BD08B54FF6FF7135
:100680000020FFF781FF08BD034B1B681BB1024A26
:100690001368013B13607047E802002008B5FFF7BC
:1006A000F3FF08BD0C4B1A6842F001021A600021EA
:1006B00099601A6822F0847222F480321A60074A24
:1006C0005A601A6822F480221A60D960044B4FF0F5
:1006D00000629A60704700BF00380240103000246A
:1006E00000ED00E0224B9B6803F00C03042B15D0B7
:1006F000082B17D01BB11F4B1F4A1A6002E01D4B7D
:100700001D4A1A601A4B9B68C3F303131B4AD35C40
:10071000DAB218490B68D3400B607047154B184A82
:100720001A60EFE7124B5A685B6803F03F0312F45C
:10073000800F13D0124AB2FBF3F20D4B5B68C3F388
:10074000881303FB02F30A4A5268C2F301420132E2
:100750005200B3FBF2F3074A1360D3E7064AB2FB39
:10076000F3F2034B5B68C3F3881303FB02F3EAE77E
:1007700000380240140000200024F400040000208F
:1007800000127A0008B5FFF78DFF08BD08B5FFF726
:10079000A9FF08BDF8B504460D4617461E46274872
:1007A00000F0F0F82168264800F0ECF86168254870
:1007B00000F0E8F8A168244800F0E4F8E168234874
:1007C00000F0E0F82169224800F0DCF86169214876
:1007D00000F0D8F8A169204800F0D4F8E1691F487A
:1007E00000F0D0F81E4800F0CDF829461D4800F072
:1007F000C9F81D4CE16A1D4800F0C4F8216B1C4883
:1008000000F0C0F8E16B1B4800F0BCF815F0800F59
:100810000AD115F4004F0CD1174800F0B3F806992F
:10082000164800F0AFF8F8BD3946154800F0AAF8B0
:10083000EFE73146134800F0A5F8EDE72849020834
:10084000384902084849020858490208684902081C
:10085000784902088849020898490208A84902080C
:10086000B8490208C449020800ED00E0D449020872
:10087000E4490208F4490208244A02082C4A020802
:10088000044A0208144A020838B583691B888B425F
:1008900001D0002038BD044603684568013B302B79
:1008A00068D8DFE803F045211C1C5D30332D191991
:1008B00067191919191936192467192767396767CC
:1008C00067676767676767676767676767676767B8
:1008D00067676767671919004FF0FF330360A36903
:1008E0000233A3610120D5E700230360F7E700236B
:1008F0000360F4E700232B606B60AB60EB60EEE716
:1009000000230360EBE7AB680360E8E700230360C4
:10091000E5E700230360E2E7BFF34F8F1649CA689B
:1009200002F4E062154B1343CB60BFF34F8FFEE739
:10093000134928681DF039F940B96B6813B90123D0
:100940002360CCE7042B05D0082B06D04FF0FF33F3
:100950002360C4E702232360C1E703232360BEE7CB
:100960002B68023B012B02D9AB680360B7E7002379
:100970000360B4E700208DE700ED00E00400FA0515
:10098000444A02080FB400B583B004AB53F8042BFB
:100990000193802106481FF041F9002803DD01463C
:1009A000034800F04FF803B05DF804EB04B0704763
:1009B000EC02002010B504461DF07AFE01462046E8
:1009C00000F040F80121024800F03CF810BD00BFE3
:1009D000C0490208F0B585B006460C46174B1B68A7
:1009E00083B9174B01930423029303230393012537
:1009F00001AF28463946ABBE0546B5F1FF3F14D0DE
:100A00000E4B1D600D4B1B68019302960394052548
:100A100001AE28463146ABBE0546B5F1FF3F07D0D3
:100A2000AC4208D0601B05B0F0BD4FF0FF30FAE7D4
:100A30004FF0FF30F7E74FF0FF30F4E76C03002092
:100A4000444A020808B5FFF7C5FF08BD08B50348CA
:100A5000FFF7B0FF012000F05FF800BF744A020802
:100A600008B503460C4A12685AB10B4A10680333A2
:100A700023F003030344094A934206D8064A13604D
:100A800008BD054A06491160EFE71BF07BFA0C230D
:100A900003604FF0FF30F3E77003002000F80120FF
:100AA000F01A002030B51324002520462946ABBE9D
:100AB0000446204630BD38B504461BF063FA0546AF
:100AC000FFF7F0FF2860204638BDB0F1FF3F00D0AF
:100AD000704708B5FFF7EFFF08BD000010B50446EA
:100AE0000B4B186808B1836B5BB1132C0CD8094B06
:100AF00053F83430B3F1FF3F08D0064800EBC40090
:100B000010BD1BF047FBF0E70020F9E70020F7E7F6
:100B1000A4000020FC03002000B530B9044D1824C7
:100B200020462946ABBE0446FEE7024DF7E700BF6C
:100B300026000200230002002DE9F04184B0234F7B
:100B400001970326039600230293012401AD20465A
:100B50002946ABBE80461E4BC3F800800197039622
:100B60000423029320462946ABBE8046194BC3F8A6
:100B70000080019703960823029320462946ABBEC6
:100B80000446154B1C60B4F1FF3F01D000230AE07E
:100B9000104B1A68104B1A60F8E7104A4FF0FF31FB
:100BA00042F833100133132BF7DD0C4B084A12685F
:100BB0001A6000225A60074909689960DA6006499C
:100BC000096819615A6104B0BDE8F081444A02081D
:100BD000F4030020F8030020F0030020FC030020B1
:100BE0002DE9F04F83B083468A462F4B00934F2365
:100BF000019315266C4630462146ABBE0646002EB4
:100C00003DD1B146284B002283F84F20009D374646
:100C1000B04617E01BF0EAFD204490F90130002BAC
:100C20000FDB092C0DD0082E27DC222C01D0272C1D
:100C300001D1013527461D4B43F8265001364FF0B0
:100C40000108013595F90040BCB1B8F1000FE1D0C1
:100C500037B1A742F5D100232B704F46C846F0E7C5
:100C60001BF0C4FD204490F90130002B01DB092C5E
:100C7000E7D100232B70B846E3E70EB106E000266B
:100C8000094B00221A70094A13600136074B0022F3
:100C900043F82620CBF80060CAF80030FFF74CFF7D
:100CA00003B0BDE8F08F00BF78030020C803002028
:100CB00030B585B0019002910392062401AD204623
:100CC0002946ABBE04462046FFF7FFFE05B030BD07
:100CD00070B50E461546FFF701FF68B104462A4677
:100CE00031460068FFF7E4FFB0F1FF3F03D0281A58
:100CF00063680344636070BD1BF044F9092303601B
:100D00004FF0FF30F7E7F0B583B00C461546FFF71C
:100D1000E5FEC0B10646022D1CD8012D21D0022DC2
:100D200035D03368009301940A256F46284639462A
:100D3000ABBE05462846FFF7C8FE00283BDB7460C3
:100D4000204603B0F0BD1BF01DF9092303604FF0EE
:100D5000FF30F6E71BF016F9162303604FF0FF3063
:100D6000EFE74368E418DCD51BF00CF916230360A9
:100D70007368002B1CDD002C02DC4FF0FF30E0E735
:100D80001BF000F98B2303604FF0FF30D9E70368B5
:100D900002AF47F8083D0C2528463946ABBE05464C
:100DA0002846FFF792FEB0F1FF3FCAD00444B8E7EF
:100DB0004FF0FF30C5E74FF0FF30C2E708B5FFF74F
:100DC000A2FF08BD30B585B00190029103920524C1
:100DD00001AD20462946ABBE04462046FFF775FE0E
:100DE00005B030BD70B50E461446FFF777FE70B102
:100DF0000546224631460068FFF7E4FF021E11DB7C
:100E0000A01A6B6803446B60944207D070BD1BF05E
:100E1000B9F8092303604FF0FF30F7E70020FFF730
:100E20004AFEF3E74FF0FF30F0E730B583B002AD94
:100E300045F8040D022420462946ABBE0446204650
:100E4000FFF743FE03B030BD38B50446FFF746FE5A
:100E500090B10546013C012C04D80D4B9A681B69E2
:100E60009A4210D02868FFF7E0FF034610B94FF010
:100E7000FF322A60184638BD1BF084F8092303604E
:100E80004FF0FF33F6E74FF0FF3303600023F1E745
:100E9000FC03002070B50C46FFF720FEA8B1064603
:100EA000636843F4005363604FF4806363640C250C
:100EB00028463146ABBE05462846FFF706FEB0F190
:100EC000FF3F01D02061002070BD1BF05BF80923BB
:100ED00003604FF0FF30F7E738B505460C4658225F
:100EE000002120461BF0DFFD21462846FFF7D2FFF8
:100EF00038BD38B5FFF7F2FD80B10546092420461C
:100F00002946ABBE04462046012C06D01BF03AF819
:100F10000446FFF7C7FD2060002038BD1BF032F803
:100F2000092303600020F8E770B50023A0EBC0069A
:100F3000C0EBC00210F8015B941905F07F02A240DB
:100F400013432A06F4D40B6070BD30B500231A4653
:100F500010F8014B04F07F0595402B43250602F164
:100F60000702F5D41F2A06D8640642BF4FF0FF34AB
:100F700004FA02F213430B6030BD5028F7B5054662
:100F80000E4614461F4607D1D01C20F0030050F82F
:100F9000043B3B6003B0F0BD00F00F030C2B2ED8D8
:100FA000DFE803F025071D25292D2D2D2D182125DE
:100FB000290001A92046FFF7B7FF019B002BE8D0CD
:100FC00005F07002102A08BF264633442A0648BF9F
:100FD0001B68DEE701A92046FFF7B7FFEDE72046D3
:100FE00030F8023BEAE7204630F9023BE6E72046CC
:100FF00050F8043BE2E7204650F8083BDEE7FFF7F5
:1010000025FD1FB503AB009300230A4619461AF0CD
:10101000B5F9039805B05DF804FB00F070002028D6
:1010200008B510D004D8C0B1102816D0FFF70EFDB7
:1010300040280DD0502810D03028F7D10846BDE800
:1010400008401AF051BF0846BDE808401AF050BFEA
:101050000846BDE808401AF037BF002008BDFF2948
:1010600070B50C4615461E460BD001462046FFF7CC
:10107000D4FF014633462A462046BDE87040FFF7BC
:101080007CBF0021F6E773B50E461446054608B14D
:101090001AF01AFF20603178FF2906F101021DD0F5
:1010A000231D2846FFF7DBFF024613782375FF2B2D
:1010B00002F1010014D01023237501A9FFF734FFBA
:1010C000019B0344E3600378637501A90130FFF7D6
:1010D0002BFF019B0344236102B070BD6060E4E715
:1010E0000023EFE72DE9F04F91B00023049300F0C7
:1010F0000303012B07460C46164611D003D3022BDF
:1011000003D0FFF7A3FC02071AD5314620461AF098
:10111000C7FE18B1092011B0BDE8F08F0820FAE72A
:1011200000F0080505F0FF0875BBD1F820901046C7
:101130000D21FFF766FF814540F04581062500E05F
:10114000012510AB07F0080743F82C4D009300234E
:101150003D430C22194630461AF032F9062D40F074
:101160003E81276BD4E90A98002F0CBF4FF0010A8B
:101170004FF0030A15F0080500F0C780BAF1010F1F
:1011800040F0BE8000F008FA0225DAE700203BE1DB
:10119000079A1344BB4240F23F81089F0FB10B9B5B
:1011A0001F44099810B10E9B01381844002FACD091
:1011B000002800F0048115F00803029334D047237F
:1011C00023704E2363705523A3704323E37046239B
:1011D00023714F2363715223A3710023E3714FF0F6
:1011E000000A6FF0030B07A9FFF7AFFE08A90390F1
:1011F000FFF7ABFE0799002967D03EDD9DF83C0064
:10120000FF2834D000F00703042B3FF67AAF01A289
:1012100052F823F03B120008031100087512000871
:101220003B12000869120008E379012B0CBF54F847
:10123000203C04F158030493D1E74FF0040C0D9ABD
:1012400009AB0CFB11220C99FFF797FE099931B1FC
:101250007CB304AB0022204600F0D8F948B3DDF897
:101260001C904FF0030A38E04FF0080CE7E74FF00E
:10127000000CE4E74FF0020CE1E70D9B01FB0BB122
:1012800003EB0109E4B1029AD2B9049B0693A9F1D8
:10129000040959F8041F41B106AB00224944204615
:1012A00000F0B4F90028F4D0012181F001010029F7
:1012B000D5D1089800287ED0039B0344184692E7B6
:1012C0005958B1FA81F14909F1E74FF0010AF0E705
:1012D0004FF000094F464FF0010AEB077FF54AAF88
:1012E000BAF1020F3FF411AF0D213046049DFFF714
:1012F00088FEC4E90A98C4E90805276306200AE7BE
:10130000B9F1000F2ADA00F059F9BAF1010F02D150
:10131000204600F0C4F8B9F1000F1FDA0AAA4146CE
:101320003046FFF7B0FE9DF83C00FF280FD0314655
:10133000FFF773FE6FF0030309FB03320D9B0C9064
:101340001344002253F8221019B10132FAE728465B
:10135000F0E7C4E90A200422C4E90C2310AB3046AC
:1013600043F81C4D009300231A4619461AF028F83A
:1013700010AB012243F8209D00930023194630460C
:101380001AF01EF80F213046FFF73BFE10AB00F0BD
:101390000100074343F8247D009300230F221946E0
:1013A00030461AF00DF8BAF1020F02D1204600F0D3
:1013B0008BF90720AFE6BAF1000F3FF4A6AE8146E5
:1013C0004FF0020A89E710AA434642F82C4D4146E5
:1013D000009230460C2245F0020519F0F1FF30462C
:1013E0001AF078FD804600283FF48FAE01460AAA25
:1013F0003046FFF748FE81469DF83C00FF283FF449
:10140000C5AE3146FFF709FE0C900F213046FFF7BD
:10141000F8FD20F00100471E0E9B4B457FF658AFAC
:101420004A4606AB9DF83D100020FFF718FE07ABBB
:1014300002469DF83D100020FFF711FE08AB024662
:101440009DF83D100020FFF70AFE09A9FFF76CFD8B
:101450000A9B069A1344BB4281467FF699AEDDF89B
:101460003890D9E70378472B17D143784E2B14D106
:101470008378552B11D1C378432B0ED10379432B9D
:101480000BD143792B2B08D183792B2B05D1C07934
:1014900001288CBF0020012070470020704710B544
:1014A000044648B100F03BF82046FFF7DBFF18B1D7
:1014B00054F8140C00F064F800F06EF838B50246E9
:1014C000FFF7D0FF40B152F8184C0025104600F04D
:1014D00026F825B100F072F804460125F6E720460B
:1014E00000F05FF80378472B17D143784E2B14D1C7
:1014F0008378552B11D1C378432B0ED10379432B1D
:101500000BD143792B2B08D183792B2B05D1C079B3
:1015100001288CBF0020012070470020704738B59B
:10152000054600F029F8014602682846A5F1200486
:10153000FFF7D8FF30B90AB100F02EF80C6014465E
:10154000204638BD55F80C3C002BB4BFC3F1010355
:10155000013345F80C3C4B68A24203F1FF334B606A
:1015600028461CBF45F8102C0C606C6A19F0FEFE72
:10157000E6E7002070470000004870479C04002008
:1015800008B58047FFF762FA024B1868BFF35B8F1C
:10159000704700BF2000002008B5FFF7F5FFFFF7F8
:1015A000EFFF08B58047FFF7F7FF0000024B186810
:1015B000BFF35B8F704700BF2400002008B5FFF722
:1015C000F5FFFFF7EEFF1EB400F09BF81EBC1AF00B
:1015D00091FA0378472B17D143784E2B14D1837897
:1015E000552B11D1C378432B0ED10379432B0BD14B
:1015F00043792B2B08D183792B2B05D1C079012876
:101600008CBF002001207047002070472DE9F34176
:101610001E460378472B0D460246C17913D1437805
:101620004E2B10D18378552B0DD1C378432B0AD183
:101630000379462B07D143794F2B04D18379522B61
:1016400001D1002931D01046FFF7C3FF80F001001F
:10165000C0B200230024019453BB58BB01290ABF28
:1016600052F8203CA2F12003783B012908BF52F830
:10167000202C1C6818BF58320192236820469B68B2
:101680009847C8B1019B1B68019302272B6801AAE8
:10169000D3F81080214601232846C04770B1019B32
:1016A0003360384602B0BDE8F08101230846D1E737
:1016B000034CE2E7034CE0E70127E7E70746F0E7E2
:1016C000345D02083C5D020810B50446FFF754FF84
:1016D00002462046A4F12001FFF77BFF60B154F8D9
:1016E000043C0133012B44F8043C03D1936844F8D3
:1016F000083C9160012010BD9368002BF9D0FFF7E2
:101700004BFF10B5FFF738FF826801460AB9FFF7B3
:1017100043FF02F120042046FFF75BFF40B1D3698D
:10172000013BD36113B9906988609361204610BD75
:101730008860FBE70DF061BA7FB500241023CDE986
:1017400002340368009415469E698DF804406B4688
:101750001268B0479DF8043003F00603062B03BF60
:10176000009B2B600120204604B070BD0098904281
:101770000CBF06200120704710B5034B03600446E0
:101780000DF05FFD204610BDC04A020810B50446AA
:10179000FFF7F2FF20460821FFF7CCFF204610BDDF
:1017A0002DE9F0419846DDE90834069E9E42074641
:1017B000154607D107990DF047FD18B16571002056
:1017C000BDE8F081414638460DF03EFD0028F6D0D8
:1017D000012326602571A371F1E738B515461C4633
:1017E0000DF032FD20B10823E3600623256023714C
:1017F00038BD2DE9F04105460C4616461F460DF052
:1018000023FD48B9032F07D82368324629462046CE
:101810005B69BDE8F0411847BDE8F0812DE9F84368
:10182000334D2B685A1C07462A60002B5CD1314C83
:10183000314B3248DFF8F080DFF8F090304E012273
:101840001A702368996806F0F9FC23682D485968D6
:1018500006F0F4FC23682C48D96806F0EFFC274911
:10186000404606F067FD2749484607F09FFB26499A
:10187000304606F05FFD2449244806F05BFD3369DD
:10188000C6F8748043F40053336123682048996894
:10189000C9F8788006F0E2FC23681E4859681E4E9D
:1018A000DFF88C8006F0DAFC23681C48D9681C4CF1
:1018B00006F0D4FC1649304606F0EEFD15494046C8
:1018C00007F0BEFB1549204606F0E6FD1349154812
:1018D00006F0E2FD2369C8F8786043F40053236101
:1018E0002B68666701332B603846BDE8F88300BF7C
:1018F000980A0020A40000201C000020F80400200A
:1019000028060020A8040020D0040020B4060020EF
:1019100070050020200500208009002048050020D7
:1019200060080020F00800204007002098050020F3
:10193000CC0700200D4A1368591E022B10B504462F
:10194000116011D10A4806F027FD0A4806F024FD6F
:10195000094806F021FD094806F0D0FD084806F0C8
:10196000CDFD084806F0CAFD204610BD980A0020AB
:101970004007002028060020B4060020800900202F
:1019800060080020F008002010B5034B03600446F7
:1019900007F0FCFB204610BDEC4A020810B5034BD3
:1019A0000360044607F0F2FB204610BDFC4A020823
:1019B00010B50446FFF7E8FF20460DF01EF920465B
:1019C00010BD10B50446FFF7E9FF20460DF015F9EC
:1019D000204610BD08B5836F3BB14161D0E90423B7
:1019E0001A4205D0034807F08DFB41F00101F4E7EE
:1019F00008BD00BF044B020808B543691943FFF74F
:101A0000E9FF08BD70B5C46F0D460CB907F053FB74
:101A1000237F4BB9204607F032FA23682946204637
:101A20009B69BDE8704018470C44607F70BD90F81A
:101A3000753010B504463BB92021FFF7E3FF0123C1
:101A400084F8740084F8753094F8740010BD0000B8
:101A500010B5044607F05AFB064B236000232367AA
:101A600084F8743084F87530C4E91E33C4E9203337
:101A7000204610BDEC4A020838B5044608460D461B
:101A800008F082FC10B1284608F0A8F9E067284663
:101A900008F098FC10B1284608F07CFAC4F88000E1
:101AA000284608F0ADFC10B1284608F091FAC4F8B9
:101AB000840038BD38B504460D460EF07AFA04F1BC
:101AC0006C012046FFF7D8FFA567B5FA85F500231E
:101AD0006D0984F8743084F875302367236165617B
:101AE00038BD000008B5C36F3BB14161D0E90423A4
:101AF0001A4205D0034807F005FB41F00101F4E765
:101B000008BD00BF044B020808B543691943FFF73D
:101B1000E9FF08BD10B5044607F0F8FA064B23604C
:101B20000023C4E91C3384F87830C4E91F33C4E9C6
:101B30002133204610BD00BFFC4A020838B50446D8
:101B400008460D4601F0A6F810B1284600F0D0FF77
:101B5000C4F88000284601F0BBF810B1284601F017
:101B600003F8C4F88400284601F0D0F810B12846E4
:101B700001F018F8C4F8880038BD38B504460D46A1
:101B80000EF017FA04F16C012046FFF7D7FFE56766
:101B9000B5FA85F500236D09636784F8783023670B
:101BA0002361656138BD7047704730B500224FF042
:101BB000FF344FF0FF35C0E90045C0E9022230BDD7
:101BC00082B08DE80C004FF0FF334FF0FF32C0E9D8
:101BD00000230023C0E9023302B0704700207047A1
:101BE000002070474FF0FF307047036810B55B6A04
:101BF00004469847431C1EBFA36813F8010BA3605B
:101C000010BD4FF0FF3070474FF0FF307047704706
:101C1000704730B500224FF0FF344FF0FF35C0E978
:101C20000045C0E9022230BD82B08DE80C004FF0C3
:101C3000FF334FF0FF32C0E900230023C0E9023335
:101C400002B0704700207047002070474FF0FF300F
:101C50007047036810B55B6A04469847431C1EBF73
:101C6000A36853F8040BA36010BD4FF0FF3070471A
:101C70004FF0FF307047000010B5044B044640F8A9
:101C80001C3B0EF0E1FA204610BD00BF7C4B020861
:101C900010B5044B044640F81C3B0EF0D5FA204624
:101CA00010BD00BFBC4B020810B50446FFF7E4FFAF
:101CB00020460CF0A2FF204610BD10B50446FFF7E9
:101CC000E7FF20460CF099FF204610BD2DE9F041BA
:101CD00006460D469046002444451DDAD6E9050720
:101CE0003B1A0FD0A8EB04079F42A8BF1F463A46F5
:101CF00029461AF0B4FE73693C443D44A0451F4494
:101D00007761E9DD336829785B6B304698470130AD
:101D100002D001340135DFE72046BDE8F0812DE92E
:101D2000F04107460E4690460025454521DAD7E9A1
:101D30000504844213D0241AA410A8EB05039C4286
:101D4000A8BF1C461CB1224631461EF01CFF7B6911
:101D50002544A4002644A8451C447C61E5DD3B687D
:101D600031685B6B38469847013002D00135043644
:101D7000DBE72846BDE8F0812DE9F04106460D4637
:101D80009046002444451DDAD6E902177B1A0FD08D
:101D9000A8EB04079F42A8BF1F463A4628461AF000
:101DA0005EFEB3683C443D44A0451F44B760E9DD96
:101DB000336830469B6A9847431C03D0287001342F
:101DC0000135DFE72046BDE8F0812DE9F041074607
:101DD0000E4690460025454521DAD7E902148C428B
:101DE00013D0641AA410A8EB05039C42A8BF1C469C
:101DF0001CB1224630461EF0C6FEBB682544A40036
:101E00002644A8451C44BC60E5DD3B6838469B6A17
:101E10009847431C03D0306001350436DBE7284681
:101E2000BDE8F08103689B691847D0E902318B4215
:101E3000024602D303689B6A184713F8010B9360AC
:101E40007047D0E902218A4202D303685B6A1847CF
:101E50001078704730B4D0E90525954203D803685F
:101E600030BC5B6B1847117042690132426130BC73
:101E70000846704703681B6B1847000010B5074BF6
:101E8000036000230446C0E90133C0E90333C0E91D
:101E900005331C300DF05EFD204610BD7C4B020862
:101EA00003689B691847D0E902318B42024602D38E
:101EB00003689B6A184753F8040B93607047D0E996
:101EC00002218A4202D303685B6A18471068704790
:101ED00003681B6B1847000010B5074B0360002315
:101EE0000446C0E90133C0E90333C0E905331C30BF
:101EF0000DF030FD204610BDBC4B020883685869C8
:101F000070478368986970478368586B7047836827
:101F10009B6B0020DAB262F30700C3F3072262F37F
:101F20000F20C3F3074262F317401B0E82B063F326
:101F30001F6002B070478368DB6B0020DAB262F387
:101F40000700C3F3072262F30F20C3F3074262F3D3
:101F500017401B0E82B063F31F6002B070478368A6
:101F6000586970478368986970478368586B7047F1
:101F700083689B6B0020DAB262F30700C3F3072289
:101F800062F30F20C3F3074262F317401B0E82B0C7
:101F900063F31F6002B070478368DB6B0020DAB226
:101FA00062F30700C3F3072262F30F20C3F3074273
:101FB00062F317401B0E82B063F31F6002B07047DC
:101FC0008368586A70478368986A70470020704732
:101FD0000020704770470020914204D251F8043B22
:101FE00003EB7060F8E7704710B50D4B036090F895
:101FF0006C3004467BB1806808B10CF067FEE06984
:1020000008B10CF063FE606A08B10CF05FFEE06A94
:1020100008B10CF05BFE20460EF0A8F8204610BD7B
:10202000044F020810B50D4B036090F86C30044665
:102030007BB1806808B10CF049FEE06908B10CF092
:1020400045FE606A08B10CF041FEE06A08B10CF090
:102050003DFE20460EF08AF8204610BD144F0208BF
:1020600010B5034B036004460EF080F8204610BD07
:10207000984E020810B5034B036004460EF076F844
:10208000204610BDB04E02080B4B10B5036090F80F
:10209000243104465BB1806808B10CF017FE60691A
:1020A00008B10CF013FEE06908B10CF00FFE2046F9
:1020B0000EF05CF8204610BD244F020810B5034B0B
:1020C000036004460EF052F8204610BD5C4D020835
:1020D00010B5034B036004460EF048F8204610BDCF
:1020E000984D020810B5034B036004460EF03EF80D
:1020F000204610BDC84D020810B5034B03600446CE
:102100000EF034F8204610BDC84E020810B5034B3F
:10211000036004460EF02AF8204610BDDC4E02088B
:1021200010B50446FFF760FF20460CF066FD204620
:1021300010BD10B50446FFF775FF20460CF05DFD9D
:10214000204610BD10B50446FFF78AFF20460CF06C
:1021500054FD204610BD10B50446FFF78BFF204606
:102160000CF04BFD204610BD10B50446FFF78CFF68
:1021700020460CF042FD204610BD10B50446FFF786
:102180009DFF20460CF039FD204610BD10B50446D9
:10219000FFF79EFF20460CF030FD204610BD10B525
:1021A0000446FFF79FFF20460CF027FD204610BD98
:1021B00010B50446FFF7A0FF20460CF01EFD204698
:1021C00010BD10B50446FFF7A1FF20460CF015FD29
:1021D000204610BD13B58B6801AA9968044605F026
:1021E000BFFE204602B010BD13B58B6801AA9968E6
:1021F000044605F0B5FE204602B010BD13B58B684D
:1022000001AA9968044605F0ABFE204602B010BD55
:1022100013B58B6801AAD969044606F0B3FD2046C0
:1022200002B010BD13B58B6801AA596A044606F0C6
:10223000A9FD204602B010BD13B58B6801AAD96A6A
:10224000044606F09FFD204602B010BD13B58B6812
:1022500001AAD969044606F095FD204602B010BDDA
:1022600013B58B6801AA596A044606F08BFD204617
:1022700002B010BD13B58B6801AAD96A044606F0F6
:1022800081FD204602B010BD13B58B6801AA5969C3
:10229000044606F077FD204602B010BD13B58B68EA
:1022A00001AAD969044606F06DFD204602B010BDB2
:1022B00010B5054B044640F8083B0EF04DFC204697
:1022C0000DF054FF204610BD504E020810B50446D4
:1022D000FFF7EEFF20460CF090FC204610BD0000FA
:1022E00010B5054B044640F8083B0EF035FC20467F
:1022F0000DF03CFF204610BDDC4C020810B5044632
:10230000FFF7EEFF20460CF078FC204610BD0000E1
:1023100038B50D4B0360056904460DF04BFF85424F
:1023200003D015B128460CF0D1FCA06810B10368A9
:102330005B68984704F10C000EF00EFC20460DF08F
:1023400015FF204638BD00BFD84D020810B5044621
:10235000FFF7DEFF20460CF050FC204610BD2DE9B3
:10236000F04385B01C46814603AB02A806F020FD71
:1023700001AB21460C9A03A806F01AFD029D039CAE
:1023800055F80C3C54F80C7C05EB830804EB8707EC
:102390002246294648460DF0B2FC064678B9284642
:1023A0001EF066FA05EB800520461EF061FAA8458E
:1023B00004EB80040DD13E1B18BF4FF0FF3603A87D
:1023C00006F074FA02A806F071FA304605B0BDE8CE
:1023D000F083A74202D004350434D9E70126EEE7A2
:1023E0002DE9F34715461C46284B036022466B46F1
:1023F0000746894601A8294606F0DAFC019EDFF867
:1024000090A056F80C3C641B06EB8308204B64102C
:102410009C4294BFA0004FF0FF300CF090FE0546A8
:1024200023463246294648460DF074FC844211D8B2
:10243000441C28460CF04AFC544594BFA0004FF0C1
:10244000FF300CF07CFE23460546014632464846E6
:102450000DF060FC02462946384606F0AFFB3046D8
:102460001EF006FA06EB8006B04505D0002138467E
:10247000043606F02CFCD3E728460CF027FC01A814
:1024800006F014FA384602B0BDE8F0878C0A002046
:10249000FEFFFF1F0A2807D82F2917D930308142A5
:1024A00014D2A1F130007047A1F1300009280FD9F2
:1024B000A1F16103052B02D8A1F157007047A1F1EA
:1024C0004103052B02D8A1F1370070474FF0FF30D0
:1024D0007047000008B42DE9F7410F4604200021A1
:1024E00090461AF091F9164905461BF05EFB28B399
:1024F00028461CF0DDF8461C30460CF020FE29462C
:10250000324604461AF0ABFA0D4904201AF07CF961
:102510000AAB099A0193414638461DF07FFB0546F8
:1025200034B1214604201AF06FF920460CF0CEFB9E
:10253000284603B0BDE8F04101B070470446E7E724
:102540004A4F020813460A4611B119681EF00CBB27
:10255000084670470AB11EF016BB704713460A467C
:1025600011B119461EF015BB7047000000310B4A2F
:10257000026018BF012100224160C0E902220274FA
:10258000C0E90522C0E90722C0E90922C0E90B22FF
:10259000C0E90D22C26380F86C207047044F020826
:1025A00000310B4A026018BF012100224160C0E9DE
:1025B00002220274C0E90522C0E90722C0E909220B
:1025C000C0E90B22C0E90D22C26380F86C2070477D
:1025D000144F020810B5003218BF01224260054BAB
:1025E000036000220446816011460DF0F3FA204694
:1025F00010BD00BF1C4E020803689B6818470368A3
:10260000DB68184710B50B6804461B6998472046DD
:1026100010BD10B50B6804465B699847204610BD95
:1026200010B50B6804469B699847204610BD10B54D
:102630000B680446DB699847204610BD03681B6A97
:10264000184703685B6A82B002B0184703689B6A48
:1026500082B002B01847000010B5003218BF012246
:102660004260054B036000220446816011460DF074
:102670005FFA204610BD00BFE84D020803689B6862
:1026800018470368DB68184710B50B6804461B69D8
:102690009847204610BD10B50B6804465B69984703
:1026A000204610BD10B50B6804469B69984720462C
:1026B00010BD10B50B680446DB699847204610BD75
:1026C00003681B6A184703685B6A82B002B0184748
:1026D00003689B6A82B002B01847F0B589B006ACB7
:1026E00084E80C00139A0B680592129A0492119ACE
:1026F00003929DF8402002920EAA05460E4692E8EB
:1027000003008DE8030028469F68314694E80C00DA
:10271000B847284609B0F0BDF0B589B006AC84E8EA
:102720000C00139A0B680592129A0492119A039264
:102730009DF8402002920EAA05460E4692E803003C
:102740008DE803002846DF68314694E80C00B8475E
:10275000284609B0F0BD70B588B006AC84E80C001E
:10276000DDE91023CDE904230E9B02930D9B019319
:102770000E689DF830300093B66894E80C0005466A
:10278000B047284608B070BD70B586B004AC84E888
:102790000C000D9A03920C9A02920B9A01920B680C
:1027A0009DF828200092DE6894E80C000546B047AA
:1027B000284606B070BD00000031094A026018BF0B
:1027C000012100224160C0E902220274C0E9052211
:1027D000C0E90722C0E9092280F82421704700BF20
:1027E000244F020810B5003218BF0122044B42608A
:1027F00004460360816000210DF000FB204610BDFF
:10280000384D020803689B6818470368DB6818475F
:1028100010B50B6804461B699847204610BD10B5DB
:102820000B6804465B699847204610BD10B50B68DD
:1028300004469B699847204610BD0000003218BF2F
:102840000122074B10B542600360816004460DF021
:10285000B1FC0021206120460DF06EFF204610BD26
:10286000D84D020883689A680A60DB684B6070473D
:1028700083681A690A605B694B60704783689A696C
:102880000A60DB694B6070478368DA6A0A601A6B1A
:102890004A605A6B8A609A6BCA60DA6B0A611A6C7A
:1028A0004A615B6C8B61704783689A6C0A60DA6C72
:1028B0004A601A6D8A605A6DCA609A6D0A61DA6D53
:1028C0004A611B6E8B61704783685A6E0A609A6E0C
:1028D0004A60DA6E8A601A6FCA605A6F0A619A6F2C
:1028E0004A61DA6F8A61D3F88020CA61D3F8842004
:1028F0000A62D3F888204A62D3F88C208A62D3F81F
:102900009030CB6270478368D3F894200A60D3F884
:1029100098204A60D3F89C208A60D3F8A020CA602F
:10292000D3F8A4200A61D3F8A8204A61D3F8AC20D8
:102930008A61D3F8B020CA61D3F8B4200A62D3F810
:10294000B8204A62D3F8BC208A62D3F8C030CB6288
:10295000704703689B681847F0B589B006AC84E8F7
:102960000C00129A0B680492119A0392109A029228
:102970000EAA05460E4692E803008DE8030028469D
:10298000DF68314694E80C00B847284609B0F0BD2E
:10299000F0B589B006AC84E80C00129A0B6804927A
:1029A000119A0392109A02920EAA05460E4692E8D8
:1029B00003008DE8030028461F69314694E80C00A7
:1029C000B847284609B0F0BDF0B589B006AC84E838
:1029D0000C00129A0B680492119A0392109A0292B8
:1029E0000EAA05460E4692E803008DE8030028462D
:1029F0005F69314694E80C00B847284609B0F0BD3D
:102A0000F0B589B006AC84E80C00129A0B68049209
:102A1000119A0392109A02920EAA05460E4692E867
:102A200003008DE8030028469F69314694E80C00B6
:102A3000B847284609B0F0BDF0B589B006AC84E8C7
:102A40000C00129A0B680492119A0392109A029247
:102A50000EAA05460E4692E803008DE803002846BC
:102A6000DF69314694E80C00B847284609B0F0BD4C
:102A7000003110B518BF0121044B416003600446CA
:102A80000DF08EFBA060204610BD00BF504E020826
:102A900003689B68184773B5079E01960D68069EEC
:102AA0000096ED680446A847204602B070BD036852
:102AB0001B691847003110B518BF0121044B416054
:102AC000036004460DF06CFBA060204610BD00BF03
:102AD000DC4C020810B40468A468A44610BC60472B
:102AE00038B50D680446ED68A847204638BD00009B
:102AF00010B504460A480DF0BDFB2368D3E9012355
:102B0000834202D952F8200008B906F0D4FA002313
:102B1000044A05490CF073F808B90CF0D4F810BD5C
:102B2000940A0020105602088060020810B504467E
:102B30000A480DF09FFB2368D3E90123834202D9A1
:102B400052F8200008B906F0B6FA0023044A0549F5
:102B50000CF055F808B90CF0B6F810BD5C0A00206E
:102B60004C5002088060020810B504460A480DF077
:102B700081FB2368D3E90123834202D952F8200064
:102B800008B906F098FA0023044A05490CF037F812
:102B900008B90CF098F810BD540A00202050020823
:102BA0008060020810B504460A480DF063FB2368F4
:102BB000D3E90123834202D952F8200008B906F074
:102BC0007AFA0023044A05490CF019F808B90CF008
:102BD0007AF810BD580A00201450020880600208DC
:102BE00010B504460A480DF045FB2368D3E90123DC
:102BF000834202D952F8200008B906F05CFA00239B
:102C0000044A05490BF0FBFF08B90CF05CF810BD55
:102C1000680A00206C4F02088060020810B5044664
:102C20000A480DF027FB2368D3E90123834202D928
:102C300052F8200008B906F03EFA0023044A05497C
:102C40000BF0DDFF08B90CF03EF810BD6C0A002057
:102C50004C4F02088060020810B504460A480DF087
:102C600009FB2368D3E90123834202D952F82000EB
:102C700008B906F020FA0023044A05490BF0BFFF0B
:102C800008B90CF020F810BD500A00208C4F020843
:102C90008060020810B504460A480DF0EBFA23687C
:102CA0009A6882420CD95B6853F8200038B100233F
:102CB000054A06490BF0A3FF003018BF012010BDE4
:102CC0000020FCE7940A00201056020880600208E9
:102CD00010B504460A480DF0CDFA23689A6882427E
:102CE0000CD95B6853F8200038B10023054A064927
:102CF0000BF085FF003018BF012010BD0020FCE75D
:102D0000540A0020205002088060020810B50446D2
:102D10000A480DF0AFFA23689A6882420CD95B68C2
:102D200053F8200038B10023054A06490BF067FF2D
:102D3000003018BF012010BD0020FCE7580A002019
:102D400014500208806002082DE9F043DDE90774A1
:102D50000026B446013B12F80CE0A4EB0708BEEBDA
:102D6000A80F02EB0C0509DBA0F1040C3B46A342C3
:102D700011D053F8047B4CF8047FF8E74FFA8EF932
:102D8000B9F1000FF0DD6345A4EB8E048CBF0CF1AC
:102D9000010C0136DFE7404416F1FF360FD3016026
:102DA0002B789B00074604EB030E744502D10433D5
:102DB0001844F1E754F804CB47F804CFF5E79542FF
:102DC00010D0016015F8013D9B00064604EB030C92
:102DD000644502D104331844F1E754F8047B46F803
:102DE000047FF5E7BDE8F083F7B5DDE90874084630
:102DF0001946DDE90A36C7B1FD1AAD1003EB850CA3
:102E0000CDE9003C134602462046FFF79DFF041B18
:102E1000A4103FB132683946521BFFF79BFB336861
:102E20005D1B2C44346003B0F0BD3568E6E773B534
:102E3000099DDDE907401E462B6800EB8303CDE9C1
:102E40000003134620460A463146FFF77DFF001B6C
:102E50008010286002B070BD30B59DF80C4084B180
:102E600003460A25B1FBF5F405FB1411043152F8B1
:102E7000211043F8041D2146002CF3D1C01A801004
:102E800030BD03F04A04402C0AD1034601F0070488
:102E90000434C90852F8244043F8044DF6D1EDE754
:102EA00013F4804F14BF14250425034601F00F04CA
:102EB0002C44090952F8244043F8044DF6D1DDE7CB
:102EC0002DE9F04114469DF820201D460746DDE916
:102ED0000683D2B10646204629460A22002317F06F
:102EE00007FF0432204658F8223046F8043D2946B0
:102EF00000230A2217F0FCFE04460D4654EA05039F
:102F0000E9D1B81B8010BDE8F08103F04A02402AE5
:102F100011D1064604F007030433EA0858F82330B9
:102F200046F8043DE30843EA45731C46154654EA57
:102F30000503EFD1E5E713F4804F14BF14210421FA
:102F4000064604F00F030B442A0958F8233046F8CC
:102F5000043D230943EA05731C46154654EA05035C
:102F6000EFD1CEE710B40468E46AA44610BC604711
:102F70002DE9FF47044608460F46FFF74FFE05467A
:102F8000FFF73AFB60612846FFF739FBA06128464E
:102F9000FFF754FB294660636846FFF733FB009B4D
:102FA00053F80C0CE0600CF0CAF80023014606460A
:102FB000E268684604F098FCE3682BB196F90030AB
:102FC000002BD4BF002301232946237401A8FFF757
:102FD00020FB019B53F80C0C344B2062984294BFA9
:102FE00080004FF0FF300CF0AAF8226A80460023E0
:102FF000014601A805F0BAFB294602A8FFF710FB1D
:10300000029B53F80C0C294BA062984294BF80009D
:103010004FF0FF300CF093F8A26A8146002301467E
:1030200002A805F0A3FB294603A8FFF700FB039BBA
:1030300053F80C0C1D4B2063984294BF80004FF056
:10304000FF300CF07CF8226B01460023824603A877
:1030500005F08CFB2846FFF7F4FAA0632846FFF73B
:10306000F5FAE0633846FFF743FD114B196804F1A8
:10307000400301F10B02FFF775FF012384F86C3068
:10308000A660C4F81C80C4F82490C4F82CA003A83F
:1030900005F00CFC02A805F009FC01A805F006FCEF
:1030A000684604F0CBFC04B0BDE8F087FEFFFF1FCC
:1030B000300000202DE9F04105460F480DF0DAF808
:1030C0002B68DE6856F820800446B8F1000F0FD157
:1030D00070200BF081FD41460746FFF747FA29466D
:1030E0003846FFF745FF2246394628680DF080F93B
:1030F00056F82400BDE8F0816C0A00202DE9FF4756
:10310000044608460F46FFF76BFD0546FFF7B6FA83
:1031100060612846FFF7B5FAA0612846FFF7D0FAAC
:10312000294660636846FFF7AFFA009B53F80C0C22
:10313000E0600CF004F8002301460646E2686846A9
:1031400004F0D2FBE3682BB196F90030002BD4BF1A
:10315000002301232946237401A8FFF79CFA019B51
:1031600053F80C0C344B2062984294BF80004FF00F
:10317000FF300BF0E4FF226A80460023014601A8DD
:1031800005F0F4FA294602A8FFF78CFA029B53F8DF
:103190000C0C294BA062984294BF80004FF0FF3086
:1031A0000BF0CDFFA26A81460023014602A805F07C
:1031B000DDFA294603A8FFF77CFA039B53F80C0CB1
:1031C0001D4B2063984294BF80004FF0FF300BF0FE
:1031D000B6FF226B01460023824603A805F0C6FA1B
:1031E0002846FFF770FAA0632846FFF771FAE063FC
:1031F0003846FFF77DFC114B196804F1400301F1DB
:103200000B02FFF7AFFE012384F86C30A660C4F810
:103210001C80C4F82490C4F82CA003A805F046FB39
:1032200002A805F043FB01A805F040FB684604F046
:1032300005FC04B0BDE8F087FEFFFF1F3000002052
:103240002DE9F04105460F480DF014F82B68DE68B3
:1032500056F820800446B8F1000F0FD170200BF013
:10326000BBFC41460746FFF79BF929463846FFF766
:1032700045FF2246394628680DF0BAF856F8240072
:10328000BDE8F081680A00202DE9F043044685B0CE
:1032900008460F46FFF74AFC0146054601A8FFF71E
:1032A000B7FA019B53F80C0CE0600BF048FF0023C9
:1032B00001460646E26801A804F016FBE3682BB15C
:1032C00096F90030002BD4BF002301232946237434
:1032D00002A8FFF7A4FA029B53F80C0C2B4BA06139
:1032E000984294BF80004FF0FF300BF028FFA26996
:1032F00081460023014602A805F038FA294603A8B2
:10330000FFF794FA039B53F80C0C204B2062984271
:1033100094BF80004FF0FF300BF011FF226A01468E
:103320000023804603A805F021FA2846FFF76AFA31
:1033300060622846FFF769FAA0623846FFF7D8FBBB
:10334000134B196804F12C0301F124020546FFF721
:1033500009FE104B1968284601F11A0204F1BC035A
:10336000FFF700FE012384F82431A660C4F814900E
:10337000C4F81C8003A805F099FA02A805F096FA93
:1033800001A804F05BFB05B0BDE8F083FEFFFF1F62
:103390002C000020280000202DE9F04105461048AF
:1033A0000CF068FF2B68DE6856F820800446B8F100
:1033B000000F10D14FF494700BF00EFC41460746FD
:1033C000FFF7FAF929463846FFF75EFF22463946ED
:1033D00028680DF00DF856F82400BDE8F08100BF14
:1033E0005C0A002010B50446006820B1FEF75BFDC2
:1033F0004FF0FF336360204610BD03689B68184799
:10340000F7B56C4684E806009DF80450089F064610
:103410003DB93A4619460098FEF75AFD874218BF53
:1034200001258DF8045094E8030086E80300304637
:1034300003B0F0BD2DE9F04F8FB00DF1180ADDF8A3
:103440006080049008F16C0420468AE80C00FFF7C5
:103450004FFB06462046FFF7F3FE1A9B1D68036CE0
:103460002A689A42044655F80C3C00F08480826B2E
:103470000992D0F82890426A029232683046576921
:1034800005EB83032A460421B847401B8610B34648
:10349000002E00F0C6800EAF7A4B47F8103D710049
:1034A000384605F041FB626BB31A002B74DD16EA57
:1034B000220638BF1E46E368002B67D00022710049
:1034C000384605F0A5FA384605F064FA05EB8603A0
:1034D000CDE900530A98A169D4E90223FFF734FC2F
:1034E0000390384605F056FA0A9B0399C91A4FF023
:1034F000FF328910384605F057FA636B002B0BDD5D
:1035000061690AA805F0E3FB002E47DB626B05EB5F
:1035100086010AA805F052FBD8F80C2002F0B0038F
:1035200003930A9B12F4007253F80C3C18BF226AF2
:103530000EAD4B441344534A45F80C2D5900284610
:10354000059305F0F1FA039BD8F80860102B059B52
:103550002CD1B3422CBF4FF0000B4FF0010BF31AEC
:103560000027059309ABDB5D042B2BD8DFE803F0C4
:103570007E7321656E00C26B0992C26A0292D0F816
:103580003090002B3FF479AF043576E73246294678
:10359000384605F06DFAB0E71E46AEE7626C714240
:1035A0000AA805F045FB5A462946B2E74FF0000B42
:1035B000D5E7D8F80C309B0504D5D4E907120BA841
:1035C00005F0FCFA0137042FCCD1B9F1010F06D96F
:1035D000029909F1FF320431284605F0EFFA0B9BFE
:1035E00053F80C1C8E4209D9039B202BA6EB01013A
:1035F00040D1199A284605F01BFB31460CAC0091CE
:103600009AE806000B9B2046FFF7FAFE94E80300B9
:10361000069028468DF81C1005F048F90AA805F018
:1036200045F99AE803000023C8F80830049B83E8B2
:10363000030018460FB0BDE8F08FB9F1000FC1D0FC
:10364000029B1968284605F042FBBBE70AA92846F9
:1036500005F0B0FAB6E7BBF1000F05D0199A05994D
:103660000BA805F0E5FAADE71999EBE7BBF1000F00
:10367000A8D0F3E70A46199B0021284605F0D4F9A3
:10368000BBE700BF8C0A00202DE9F04F8FB00DF191
:10369000180ADDF86080049008F16C0420468AE87E
:1036A0000C00FFF725FA06462046FFF703FD1A9B9C
:1036B0001D68036C2A689A42044655F80C3C00F0D9
:1036C0008480826B0992D0F82890426A0292326814
:1036D0003046576905EB83032A460421B847401B4F
:1036E0008610B346002E00F0C6800EAF7A4B47F826
:1036F000103D7100384605F017FA626BB31A002BC3
:1037000074DD16EA220638BF1E46E368002B67D038
:1037100000227100384605F07BF9384605F03AF989
:1037200005EB8603CDE900530A98A169D4E9022389
:10373000FFF70AFB0390384605F02CF90A9B039922
:10374000C91A4FF0FF328910384605F02DF9636B26
:10375000002B0BDD61690AA805F0B9FA002E47DBE2
:10376000626B05EB86010AA805F028FAD8F80C2050
:1037700002F0B00303930A9B12F4007253F80C3C5E
:1037800018BF226A0EAD4B441344534A45F80C2D22
:1037900059002846059305F0C7F9039BD8F808603F
:1037A000102B059B2CD1B3422CBF4FF0000B4FF0D8
:1037B000010BF31A0027059309ABDB5D042B2BD813
:1037C000DFE803F07E7321656E00C26B0992C26A66
:1037D0000292D0F83090002B3FF479AF043576E7B1
:1037E00032462946384605F043F9B0E71E46AEE7B3
:1037F000626C71420AA805F01BFA5A462946B2E7E4
:103800004FF0000BD5E7D8F80C309B0504D5D4E970
:1038100007120BA805F0D2F90137042FCCD1B9F16A
:10382000010F06D9029909F1FF320431284605F04B
:10383000C5F90B9B53F80C1C8E4209D9039B202B16
:10384000A6EB010140D1199A284605F0F1F931465D
:103850000CAC00919AE806000B9B2046FFF7D0FDC8
:1038600094E80300069028468DF81C1005F01EF819
:103870000AA805F01BF89AE803000023C8F80830EE
:10388000049B83E8030018460FB0BDE8F08FB9F140
:10389000000FC1D0029B1968284605F018FABBE753
:1038A0000AA9284605F086F9B6E7BBF1000F05D056
:1038B000199A05990BA805F0BBF9ADE71999EBE743
:1038C000BBF1000FA8D0F3E70A46199B0021284658
:1038D00005F0AAF8BBE700BF8C0A00202DE9F04FE5
:1038E0008FB004AF07F1100585E80C0097F8503051
:1038F000BB607B6D81468A4607F1200003F16C01B5
:103900000CF03EFC07F12000FFF7F2F892B0F860EF
:103910000CF046FC07F12806D7E9183446F8040DE8
:103920000DF110084FF0000BCDE90234CDF800B0D6
:103930002C4B402241463046FEF7CCFD3F28044642
:1039400018DD0F3424F00704ADEB040D421C7A603F
:103950000CF026FCD7E918340DF11008CDE902343B
:103960007862CDF800B01F4B7A6841463046FEF7CA
:10397000B1FD044607F12406214607F11C0300228D
:10398000304604F079FF4444304605F003F87B6A82
:10399000F86822464146FFF7E5FABB680296ABB1EC
:1039A000BB6D01937B6D0093514695E80C00484632
:1039B000FFF740FD304604F079FF07F120000CF0DE
:1039C00043FC48462C37BD46BDE8F08FBB6D0193E4
:1039D0007B6D0093514695E80C004846FFF754FE76
:1039E000E8E700BF444F0208F0B587B004AC84E8B4
:1039F0000C00DDE90D320F9D9DF830700093CDE98C
:103A00000125064694E80C0027B1FFF713FD304668
:103A100007B0F0BDFFF738FEF9E703681B6B1847E6
:103A200003689B6A18472DE9F8431D46C368DDE922
:103A3000086703F0B003202B89461446A6EB07065F
:103A40000CD13A4629462046FEF784FD4A463146C7
:103A500004EB8700FEF782FDBDE8F883102B0FD042
:103A60004FF000084A4631462046FEF777FDA7EBA7
:103A7000080205EB880104EB8600FEF76BFDEBE71F
:103A80006C30FFF735F82D218046FFF7C9FF2B6812
:103A9000984205D12B6844F8043B4FF00108E1E758
:103AA0002B214046FFF7BCFF2B689842F2D0302113
:103AB0004046FFF7B5FF2B689842D1D1012FCFDDEB
:103AC00078214046FFF7ACFF6B68984207D12B681E
:103AD00023606B6863604FF002080834C2E7582126
:103AE0004046FFF79DFF6B689842B9D1EFE737B5C5
:103AF000089C184623681546CDE90023DDE9062316
:103B0000FFF791FF256003B030BD2DE9F04F8BB07A
:103B100004AFC7E900103E6C07F1080106F16C0024
:103B200081E80C00FFF738FCF568B96C05F04A0A2B
:103B300096B0BAF1400F044600F12C090DF1100BBC
:103B400002D0BAF1080F71D14FF000082B464A4657
:103B5000CDF800800BF15000FFF77EF9227C7861F0
:103B6000C0F114030BEB830392B1C0001030ADEB36
:103B7000000D0DF1180B07F11402CDE90232CDE969
:103B8000006B3868A36AD4E90212FFF750F95B466C
:103B90007A69B8F1000F31D0B96C00292CDB280507
:103BA00005D5216B43F8041C01327A61043BB268ED
:103BB0007969914211DA91000E3121F00701ADEBE4
:103BC000010D04AC07F11401CDE901310094334635
:103BD000796C3868FFF78BFF23460022B2607A6960
:103BE000009207F10802786806CAFFF709FC7868B6
:103BF0001C37BD46BDE8F08FE16AD3E7A905D6D5ED
:103C0000B96C0029D3D0BAF1400F01D1E16BC9E7FB
:103C1000C5F380350235023259F8251043F8041CEB
:103C2000E16B43F8081C7A61083BC0E7BB6C002BD2
:103C300001DCBB6C59424FF0010887E730B587B013
:103C400004AC84E80C000C9B02930B9B01930A9B31
:103C5000009394E80C000546FFF757FF284607B08D
:103C600030BD2DE9F04F8BB004AF07F10805D7F850
:103C700040A0386085E80C00DAF80C3097F848600E
:103C80007B6013F0010F07F1100416D17B6C0296D4
:103C9000CDE900A3204695E80C00FFF736FF94E835
:103CA0000300B860397395E803003B681C3783E86C
:103CB00003001846BD46BDE8F08F0AF16C00FFF71F
:103CC0006BFB86B3D0E90598DAF80860B0453CDABA
:103CD000A6EB0806B2000E3222F00702ADEB020D91
:103CE0000DF1100B7A6C31465846FEF737FC7B68B5
:103CF00003F0B0030022202BCAF8082016D14B464F
:103D000095E806002046CDF80080FFF779FB94E89F
:103D100003005B46B8603973009695E806002046BC
:103D2000FFF76EFBBBE7D0E90798CDE795E8060003
:103D3000204600965B46FFF763FB94E80300B860FB
:103D40003973CDF800804B46E7E70022CAF8082017
:103D5000F7E72DE9F04F8BB004AFC7E900103E6CD8
:103D600007F1080106F16C0081E80C00FFF714FB75
:103D7000F46804F04A0896B0B8F1400F054600F127
:103D80002C0A0DF1100B5DD0B8F1080918BF4FF0E7
:103D9000010923465246CDF80090B96C0BF1500052
:103DA000FFF75AF82A7C7861C0F114030BEB830308
:103DB00092B1C0001030ADEB000D0DF1180B07F102
:103DC0001402CDE90232CDE9006B3868AB6AD5E95F
:103DD0000212FFF72CF85B46B9F1000F0DD1A205D6
:103DE0000BD5BA6C4AB1B8F1400F7A692DD1E96BA5
:103DF00043F8041C01327A61043BB268796991424C
:103E000011DA91000E3121F00701ADEB010D04AC88
:103E100007F11401CDE9013100943346796C38681B
:103E2000FFF765FE23460022B2607A69009207F12F
:103E30000802786806CAFFF7E3FA78681C37BD46BF
:103E4000BDE8F08F4FF00009A3E7C4F380340234DB
:103E500002325AF8241043F8041CE96B43F8081C9A
:103E60007A61083BC9E730B587B004AC84E80C0040
:103E70000C9B02930B9B01930A9B009394E80C000C
:103E80000546FFF766FF284607B030BD2DE9F04133
:103E900088B004AC0E9DD5F80C8084E80C0028F4A2
:103EA000804323F04A0343F40273EB60109B0293B8
:103EB0000F9BCDE9005306AF064694E80C00384648
:103EC000FFF747FF97E8030004908DF8141094E87B
:103ED000030086E803003046C5F80C8008B0BDE852
:103EE000F0812DE9F04F8BB004AFC7E900103E6CB4
:103EF00007F1080106F16C0081E80C00FFF74CFAAD
:103F0000F56805F04A09AAB0B9F1400F044600F17E
:103F10002C0A0DF1100BD7E9122302D0B9F1080FCA
:103F200075D14FF00008CDE90158CDF800A00BF194
:103F3000A000FEF7C5FF227C7861C0F128030BEBDF
:103F4000830392B1C0001030ADEB000D0DF1180BE2
:103F500007F11402CDE90232CDE9006B3868A36A9B
:103F6000D4E90212FEF763FF5B467A69B8F1000FED
:103F700034D0D7E91201002871F100012CDB2805AB
:103F800005D5216B43F8041C01327A61043BB26809
:103F90007969914211DA91000E3121F00701ADEB00
:103FA000010D04AC07F11401CDE901310094334651
:103FB000796C3868FFF79BFD23460022B2607A696E
:103FC000009207F10802786806CAFFF719FA7868C4
:103FD0001C37BD46BDE8F08FE16AD3E7A905D6D509
:103FE000D7E912010143D2D0B9F1400F01D1E16B01
:103FF000C8E7C5F38035023502325AF8251043F878
:10400000041CE16B43F8081C7A61083BBFE7D7E961
:104010001201012871F1000104DAD7E9122352429A
:1040200063EB43034FF001087DE730B587B004AC84
:1040300084E80C00DDE90C23CDE902230B9B0193FE
:104040000A9B009394E80C000546FFF74AFF2846B8
:1040500007B030BD2DE9F04F8BB004AFC7E90010B9
:104060003E6C07F1080106F16C0081E80C00FFF7D7
:1040700093F9F46804F04A08AAB0B8F1400F054675
:1040800000F12C0A0DF1100B60D0B8F1080918BF2F
:104090004FF00109D7E91223CDE90149CDF800A07D
:1040A0000BF1A000FEF70CFF2A7C7861C0F1280319
:1040B0000BEB830392B1C0001030ADEB000D0DF19E
:1040C000180B07F11402CDE90232CDE9006B386814
:1040D000AB6AD5E90212FEF7AAFE5B46B9F1000F02
:1040E0000FD1A2050DD5D7E912120A4309D0B8F1B4
:1040F000400F7A692DD1E96B43F8041C01327A61D3
:10410000043BB2687969914211DA91000E3121F0D5
:104110000701ADEB010D04AC07F11401CDE901314C
:1041200000943346796C3868FFF7E1FC234600229F
:10413000B2607A69009207F10802786806CAFFF750
:104140005FF978681C37BD46BDE8F08F4FF0000975
:10415000A0E7C4F38034023402325AF8241043F842
:10416000041CE96B43F8081C7A61083BC9E730B5C9
:1041700087B004AC84E80C00DDE90C23CDE9022310
:104180000B9B01930A9B009394E80C000546FFF7F4
:1041900061FF284607B030BD2DE9F04F8FB004AF66
:1041A00081463D6D396005F16C0A07F10801504602
:1041B00081E80C00FFF7F0F8D5F8048097F8582054
:1041C000B8F1000F064607F118012846B8BF4FF0B6
:1041D00006080BF07AFEEB6803F482738EB0B3F539
:1041E000827F7B6004AC00F0B3800BF0D9FFD7E98D
:1041F00018237861CDE90223CDF8008007F1180378
:104200002D22214607F11400FEF764F938613B695D
:104210002C2B1EDD03F1010B0F3323F00703ADEB55
:10422000030D7B68B3F5827F04AC00F0A1800BF036
:10423000B7FFD7E918237861CDE90223CDF80080D4
:1042400007F118035A46214607F11400FEF742F918
:1042500038615046FEF74CFC3A6993000E3323F068
:104260000703ADEB030D0DF1100843462244214630
:10427000FEF778FED7F810B0BBF1000F00F08A808F
:104280005A462E21204618F08BFB28B1031B726A78
:1042900048F8232008EB8300337C9BB350B9BBF173
:1042A000020F07DD6378303B092B2BD8A378303B16
:1042B000092B27D84FEACB030833ADEB030D237846
:1042C0002D2B0DF1100A01D02B2B65D1D8F8003021
:1042D000CAF800300BF1FF333B610124A30007F162
:1042E0001002039208EB03025344CDE9000302924B
:1042F000B36A3868D6E90212FEF776FD3B691C44C2
:104300003C61D046AA683B69934211DA93000E33B0
:1043100023F00703ADEB030D04AC07F11003CDE967
:10432000018300942B46796D3868FFF7E0FBA046C7
:104330000023AB603B69009307F1080248464346FF
:1043400006CAFFF75DF848462C37BD46BDE8F08F3A
:104350000BF026FFD7E918237861CDE90023214629
:1043600007F118032D2207F11400FEF7B3F84DE70B
:104370000BF016FF07F1280CD7E918234CF8140DA1
:104380002146CDE90023604607F118035A46FEF79F
:10439000A1F85DE758467FE700249FE730B589B074
:1043A00006AC84E80C00DDE90E23CDE904230023EC
:1043B00002930D9B01930C9B009394E80C0005461F
:1043C000FFF7EAFE284609B030BD2DE9F04F8FB067
:1043D00004AF81463D6D396005F16C0A07F10801B3
:1043E000504681E80C00FEF7D7FFD5F8048097F817
:1043F0005820B8F1000F064607F118012846B8BF4B
:104400004FF006080BF061FDEB6803F482738EB089
:10441000B3F5827F7B6004AC00F0B3800BF0C0FE8C
:10442000D7E918237861CDE90223CDF8008007F1A0
:1044300018032D22214607F11400FEF74BF83861CE
:104440003B692C2B1EDD03F1010B0F3323F0070317
:10445000ADEB030D7B68B3F5827F04AC00F0A18067
:104460000BF09EFED7E918237861CDE90223CDF841
:10447000008007F118035A46214607F11400FEF7A1
:1044800029F838615046FEF733FB3A6993000E3342
:1044900023F00703ADEB030D0DF110084346224452
:1044A0002146FEF75FFDD7F810B0BBF1000F00F01A
:1044B0008A805A462E21204618F072FA28B1031B32
:1044C000726A48F8232008EB8300337C9BB350B911
:1044D000BBF1020F07DD6378303B092B2BD8A378A3
:1044E000303B092B27D84FEACB030833ADEB030D44
:1044F00023782D2B0DF1100A01D02B2B65D1D8F884
:104500000030CAF800300BF1FF333B610124A300F7
:1045100007F11002039208EB03025344CDE90003B4
:104520000292B36A3868D6E90212FEF75DFC3B6975
:104530001C443C61D046AA683B69934211DA93005F
:104540000E3323F00703ADEB030D04AC07F11003AA
:10455000CDE9018300942B46796D3868FFF7C7FADF
:10456000A0460023AB603B69009307F10802484670
:10457000434606CAFEF744FF48462C37BD46BDE811
:10458000F08F0BF00DFED7E918237861CDE90023F9
:10459000214607F118032D2207F11400FDF79AFFB9
:1045A0004DE70BF0FDFD07F1280CD7E918234CF877
:1045B000140D2146CDE90023604607F118035A4641
:1045C000FDF788FF5DE758467FE700249FE730B599
:1045D00089B006AC84E80C00DDE90E23CDE90423A4
:1045E0004C2302930D9B01930C9B009394E80C00C9
:1045F0000546FFF7EAFE284609B030BD2DE9F04335
:10460000ADF5097D0746909D9DF84C829DF850625E
:104610006C35284602AC84E80C00FEF769FA814646
:104620002846FEF719FB252105464846FFF7F8F90D
:104630000490C6B9CDE90586929B009308A904AB06
:10464000802228460CF04AF808A81CF011F90090C6
:1046500008AB384694E80600FEF7D2FE38460DF562
:10466000097DBDE8F0830023CDE905680793E3E702
:1046700003689B691847036810B504465BB140683E
:10468000421C07D11846FDF71AFC431C0ABF002341
:104690006060236010BD4FF0FF30FBE738B50D467A
:1046A000FFF7E9FF04462846FFF7E5FF431C5842A1
:1046B00004F10102584154425441011B484248410F
:1046C00038BD08B5FFF7EAFF80F00100C0B208BDB1
:1046D0002DE9F74F8146DDE9120602A96C30DDF8BD
:1046E000448001E90C00FEF703FAB8F1020F83469B
:1046F0002ED0B8F1040F0CBF4FF47A7701270024B5
:1047000025464FF00A0A0CA96846FFF7DAFF08B3FE
:10471000454521D06846FFF7AEFF2A22014658469C
:10472000FFF77BF93038C2B2092A20D80AFB04040B
:10473000109B04FB07F29A4219DC0F9B3A449A4201
:1047400015DD97FBFAF76846FEF74CFE0135DAE710
:104750000A27D4E745450AD10E9B1C6002AB13E93A
:10476000030089E80300484603B0BDE8F08FB8F1C4
:10477000040F03D1022D01D1643CEDE7336843F00F
:1047800004033360EAE72DE9F04F87B000AF07F18B
:104790001004F860786DD7F84C806C3084E80C0019
:1047A000FEF7A6F93B6D9B000E3323F0070383460B
:1047B000ADEB030D07F1400120466E46FFF781FF88
:1047C00000287ED02046FFF756FF4FF000098246B2
:1047D0004D463B6D994510D058F829100968514550
:1047E00005D146F82590013509F10109F1E7584650
:1047F000FFF73EFF5045F7D1F3E74FF0000B012DD7
:1048000041D9B14659F8042B58F822001CF030F871
:1048100006EB8501824659F8040BB96058F8200070
:104820001CF026F8B968824528BF82464945F2D176
:1048300020460BF1010BFEF7D5FDD34541D207F120
:1048400040012046FFF73DFF00283AD04FEA8B0297
:104850004FF0000A56F82A1058F8211089582046BF
:10486000C7E90121FFF707FFB9687A68814217BFDE
:1048700005F1FF350AF1010A56F8251046F82A100D
:10488000AA45E7D3BBE71CD12046FEF7ABFD356850
:1048900058F8256030461BF0EBFF0BF1010B80460A
:1048A000C3451ED207F140012046FFF70AFF40B181
:1048B00056F82B30BB602046FFF7DDFEBB68834215
:1048C00013D0BB6DBA6D1B6843F00403136094E80A
:1048D0000300FB681C3783E803001846BD46BDE8AB
:1048E000F08FEED1BB6C1D60F1E72046FEF77AFD3C
:1048F0000BF1010BD4E72DE9F04F85B000AF8146F5
:10490000F86CD7F844A007F108086C3088E80C0070
:10491000FEF7EEF8BB6CDB0008338346ADEB030D0E
:1049200007F1380140466D46FFF7CBFEB0B3404675
:10493000FFF7A1FEBA6C0026034652003446B2428D
:1049400013D05AF826100968994204D145F824601A
:1049500001340136F3E75846C7E90032FFF788FE15
:104960003B687A689842F4D1F0E7BCB14046FEF764
:1049700039FDA3000E3323F00703ADEB030DEB4627
:10498000002655F826305AF823001BF071FF4BF82B
:1049900026000136B442F4D1012602E00026B346D7
:1049A00034464FEA860807F1380107F10800FFF79F
:1049B00088FE68B307F10800FFF75DFE0023844618
:1049C00019469C421AD95BF823209800B2420BEB9F
:1049D000000E02D801310133F3E755F823205AF8CD
:1049E000222052F808206245F5D0013C55F82420D9
:1049F0002A505BF82420CEF80020E2E78C4208F130
:104A0000040805D007F10800FEF7ECFC0136CAE700
:104A1000012C15D1DBF80030B3421AD1BA6C2B68E7
:104A2000934228BF9B1A3A6C136007F1100313E9F5
:104A30000300143789E803004846BD46BDE8F08FFF
:104A4000022C06D1DBF80030B342E7D0DBF80430AB
:104A5000E2E73B6D3A6D1B6843F00403E4E70000B6
:104A60002DE9F04F9FB00D462A9C0B9004F16C0687
:104A70000EA9304681E80C00DDF8B0A0FEF7ECF896
:104A800008903046FEF734F883462D981BF0F0FE70
:104A900000260A9010960EAF28A93846FFF711FE9F
:104AA000DDF84090002867D00A9B9E4264D2B9F19D
:104AB000000F61D12D9B4A4653F82610584603EB50
:104AC0008608FEF7AAFF252840F0BD82731C4A46DF
:104AD000D8F8041009935846FEF79FFF4528CDF8F3
:104AE000449001D04F2807D1B31C0022D8F80810F9
:104AF00009935846FEF791FF41380EAE382800F270
:104B00009D82DFE810F074009F00E90100019B0224
:104B10009B029B02200145019B029B029B027401A8
:104B20009B029B029B029B02A801AD01DB019B0241
:104B30009B029B02E401E90113029B029B029B0280
:104B40009B029B029B024E007A00A500AD00C200B2
:104B50009B029B027A009B029B029B029B025001DC
:104B600099019B029B029B029B029B02D1019B022B
:104B70009B029B02DF01E901B9F1000F02D10A9B00
:104B80009E4205D02B9B2B9A1B6843F004031360B5
:104B900097E803000B9B83E8030018461FB0BDE8AD
:104BA000F08F12AE31460898FDF77EFE10ABCDE9CE
:104BB00005430723CDE9036311AB029328AB93E8C8
:104BC00003008DE803000CAF0EAE96E80C002946FA
:104BD0003846FFF7D8FD97E80300109B86E80300EE
:104BE00013B9119BCAF81830099E013653E712AE6B
:104BF00031460898FDF748FED8E712AE31460898CE
:104C0000FDF781FE10ABCDE905430C23CDE903632D
:104C100011AB029328AB93E803008DE803000CAFBF
:104C20000EAE96E80C0029463846FFF7ACFD97E833
:104C30000300109B86E80300002BD5D1119BCAF816
:104C40001030D1E712AE31460898FDF73DFED9E7A6
:104C500012A90898FDF712FE129B05930CAF5CE0B9
:104C600010ABCDE9064302211F23CDE90431012316
:104C7000039311AB029328AB93E803008DE8030084
:104C80000CAF0EAE96E80C001DE03046FFF7F3FCCB
:104C9000082102465846FEF7B0FB0CAF10B3304671
:104CA000FEF7A0FB10AACDE9064209210122CDE9B9
:104CB0000412039211AA029228AA034692E8030062
:104CC0008DE803000CCB29463846FFF701FD97E835
:104CD0000300109B86E80300002B85D1119BCAF8C6
:104CE0000C3081E710ABCDE9064302221F23CDE94A
:104CF00004320A23039311AB029328AB93E8030019
:104D00008DE80300BEE712AEC84A3346A2F109019E
:104D10005846FEF727F90CAF059610ABCDE90243D4
:104D2000CDF810A028AB93E803008DE803000EAE89
:104D30002946384696E80C00FFF792FE97E80300F4
:104D400086E8030050E710ABCDE906434FF00209B7
:104D50001723CDE904390CAF0023039311AB029361
:104D600028AB93E803008DE803000EAE96E80C0034
:104D700029463846FFF7ACFC97E80300109B86E80D
:104D80000300002B7FF430AF119BCAF808302BE7EB
:104D900010ABCDE906434FF002080C23CDE90438EF
:104DA0000CAF0123D9E710ABCDE906434FF0020E5B
:104DB0000C23CDE9043E0123039311AB029328ABEE
:104DC00093E803008DE803000CAF0EAE96E80C00EC
:104DD00029463846FFF77CFC97E80300109B86E8DD
:104DE0000300002B7FF400AF119B013B27E710ABC2
:104DF000CDE906434FF0020C3B23CDE9043C0023F0
:104E0000039311AB029328AB93E803008DE80300F2
:104E10000CAF0EAE96E80C0029463846FFF758FC5A
:104E200097E80300109B86E80300002B7FF4DCAEBC
:104E3000119BCAF80430D7E63046FFF71CFC00226D
:104E400001465846FEF7E9FD0A2840F0F780304653
:104E5000FEF7C8FAC8E6764A12AE3346911F57E706
:104E600010ABCDE9064302263D23CDE904360023ED
:104E7000039311AB029328AB93E803008DE8030082
:104E80000CAF0EAE96E80C0029463846FFF720FC22
:104E900097E80300109B86E80300002B7FF4A4AE84
:104EA000119BCAF800309FE63046FFF7E4FB002272
:104EB00001465846FEF7B1FD0928C6E712AE334653
:104EC0005C4A23E712A90898FDF7CCFCC4E612A9B6
:104ED0000898FDF7CDFCBFE610ABCDE906430420F2
:104EE00042F20F73CDE904300023039311AB029318
:104EF00028AB93E803008DE803000CAF0EAE96E8F4
:104F00000C0029463846FFF7E3FB97E80300109BA7
:104F100086E80300002B7FF467AE119B002BB4BF23
:104F20006433A3F26C73CAF814305DE63046FFF7C1
:104F3000A2FB012102465846FEF75FFA00287DD009
:104F400010ABCDE905430E2304933B4B039312AB07
:104F5000029328AB93E803008DE803000CAF2946C9
:104F6000384696E80C00FFF70EFC97E8030086E849
:104F7000030028A93046FFF7A4FB00283FF434AE15
:104F8000109B002B7FF430AE129B002B7FF42CAED5
:104F90003046FFF770FB2D2107465846FEF740FDCF
:104FA000B84236D110AF17230222CDE90432CDE941
:104FB0000647002312AE0393029628AB93E8030042
:104FC0008DE803000DF130090DF1380898E80C0068
:104FD00029464846FFF77CFB99E803003B2388E815
:104FE00003000221CDE904310023CDE90263CDE9BC
:104FF000064728AB93E803008DE80300294648469E
:1050000098E80C00FFF764FB99E8030088E80300C8
:10501000EAE53046FFF72FFB2B2106465846FEF700
:10502000FFFCB0427FF4E0ADBCE700BF354F0208A3
:105030003B4F0208444F02086C000020109B43F0D5
:1050400004031093D0E52D9B384653F82680FFF7D4
:1050500012FB804503D13846FEF7C4F9C5E5109B25
:1050600043F004031093C0E52DE9F04F89B004AE7E
:10507000029014986C3086E80C00FEF78DF900233E
:10508000044612A930460693FFF708FB8246002823
:1050900049D13046FFF7EFFAD4F8C01006908142AC
:1050A00003D0D4F8BC30834219D1237C13B1A36A56
:1050B000834214D0636A834211D0814214BF2D21F0
:1050C0002B21169802F0F1FE3046FEF78BF912A95B
:1050D000FFF7F7FA38B33046FFF7CDFA069000270E
:1050E000B846227C069B12B1A26A9A4220D0626A1C
:1050F0009A421DD0D4F8CC209A4219D11FB9302140
:10510000169802F0D2FE3046FEF76CF912A9FFF7AE
:10511000D8FA08F10108074600284CD03046FFF7BE
:10512000AAFA0690DDE74FF0000847464FF0010A63
:10513000A64B0793237C1BB1202107A802F0E2FDB8
:1051400094F824B1BBF1000F5DD004F1CC0300252D
:105150000193A946BAF1000F40F0A080227C069B83
:10516000002A00F0BF80A26A9A4240F0BB80B9F1E9
:10517000000F40F09380002D40F09080B8F1000FB8
:1051800000F088805FFA88F107A802F08EFEBA4628
:105190004B46C84630460393FEF724F912A9FFF7A1
:1051A00090FA039B002873D03046FFF764FA00257D
:1051B0000690039B66E04FF0010A5746B8E7AA46FF
:1051C0005D465F46BAF1000F68D1069A0A20114683
:1051D000FDF760F9431C19D000F13001C9B21698EF
:1051E00002F063FE4FF0010B3046FEF7FBF812A908
:1051F000FFF767FA20B13046FFF73DFA0690E0E787
:105200004FF0010ADDE75D46D946DBE7636A9A4263
:105210000BD1B9F1000F08D13DB92E21169802F03B
:1052200044FEBB464FF00109DEE7D4F804319A4250
:1052300003D0D4F81C319A4230D17DBB77B36521BD
:10524000169802F032FE3046FEF7CCF812A9FFF7AE
:1052500038FA8346002800F0B6803046FFF70BFA94
:10526000D4F8C0300690834209D0D4F8BC308342D1
:10527000A5D12D21169802F018FE5D46B4E72B212A
:10528000F8E79A465746AA461D4663E75346F9E7AC
:105290005D46F7E7169802F0DBFBC14608AF57F80A
:1052A000043D53F80C3C8BB1B9F1000F05D125B981
:1052B0005FFA88F1384602F0F8FD3A46D4E9020177
:1052C0000AF072FE10B9159B04221A6096E80300DA
:1052D000029B83E80300384602F0B0FB029809B055
:1052E000BDE8F08F626A9A4215D1079B53F80C3CD7
:1052F000B9F1000FD2D1002DD0D123B15FFA88F1DE
:1053000007A802F0D2FD2E21169802F0CEFDD94654
:105310000023BA463EE706AA0A210198FDF712F9D2
:1053200060B1019BC11A89103031C9B2169802F0E0
:10533000BCFD08F101082B46DA462BE7069BD4F8A2
:1053400004219A4203D0D4F81C219342A6D1079B92
:1053500053F80C3C002DA1D1002F9FD03BB1B9F1E7
:10536000000F04D15FFA88F107A802F09EFD6521C5
:10537000169802F09AFD3046FEF734F812A9FFF7AE
:10538000A0F98246F8B13046FFF775F9D4F8C0109D
:105390000690814204D0D4F8BC3083427FF476AFCB
:1053A000237C1BB1A26A82423FF46BAF636A8342E3
:1053B0003FF46CAF814214BF2D212B21169802F0CF
:1053C00074FD5346E6E63D4668E700BF7C0A0020D0
:1053D0002DE9F0438DB008AC0CAD84E80C001F4BF8
:1053E00045F8083D179E894607462021284602F0C9
:1053F00089FCCDE90365169B029314AB93E8030087
:105400008DE803000DF1180894E80C004046494669
:10541000FFF72AFE98E80300DDF8288084E80300FF
:105420000AF0BEFE0CAB189943F8040D3246404614
:105430000BF080FA14A92046FFF730F918B1336851
:1054400043F00203336094E8030087E80300284632
:1054500002F0F4FA38460DB0BDE8F0837C0A002073
:105460002DE9F0438DB008AC0CAD84E80C001F4B67
:1054700045F8083D179E894607462021284602F038
:1054800041FCCDE90365169B029314AB93E803003E
:105490008DE803000DF1180894E80C0040464946D9
:1054A000FFF7E2FD98E80300DDF8288084E80300B8
:1054B0000AF076FE0CAB189943F8040D32464046CC
:1054C0000BF084FA14A92046FFF7E8F818B1336806
:1054D00043F00203336094E8030087E803002846A2
:1054E00002F0ACFA38460DB0BDE8F0837C0A00202B
:1054F0002DE9F0438DB008AC0CAD84E80C001F4BD7
:1055000045F8083D179E894607462021284602F0A7
:10551000F9FBCDE90365169B029314AB93E80300F6
:105520008DE803000DF1180894E80C004046494648
:10553000FFF79AFD98E80300DDF8288084E803006F
:105540000AF02EFE0CAB189943F8040D3246404683
:105550000BF096FA14A92046FFF7A0F818B13368AB
:1055600043F00203336094E8030087E80300284611
:1055700002F064FA38460DB0BDE8F0837C0A0020E2
:105580002DE9F04F8BB00DF1180A169C059004F12F
:105590006C008AE80C00FDF7FFFEE76807F04A0799
:1055A0000023402F0546089348D0082F14BF4FF022
:1055B0000A084FF0100814A95046FFF76FF881460B
:1055C00000286FD15046FFF756F8D5F8BC30089048
:1055D00083420CBF4FF0010B4FF0000B03D0D5F806
:1055E000C030834214D12B7C13B1AB6A83420FD0FD
:1055F0006B6A83420CD05046FDF7F4FE14A9FFF706
:1056000060F80646002857D05046FFF734F8089057
:10561000002634462A7C089B12B1AA6A9A4245D0D9
:105620006A6A9A4242D0D5F8CC209A4210D146B14B
:10563000B8F10A0F0DD147B93C4629E04FF00808F0
:10564000B9E71FB3B8F1080F25D0013401260EE0E9
:10565000D6B1D5F8C4209A4203D0D5F8C8209A42D2
:105660002ED1D7B1B8F1100F2FD1002426465046C5
:10567000FDF7B8FE14A9FFF724F818B35046FEF75B
:10568000FAFF0890002EC5D1B1460FE03C46012636
:105690004FF00808EBE73446D8E73E463C464FF06B
:1056A0001008E4E74FF0000B5C465E46B8F1100FBF
:1056B0000CD1162301930BE04FF001090446F5E7E6
:1056C0000126F3E74FF00109F0E70126CDF8048049
:1056D0006B4B09932B7C1BB1202109A802F012FB14
:1056E000BBF1000F0CBF6FF000434FF0004302937B
:1056F000B3FBF8F3039395F824310093002B4AD0C1
:1057000005F1CC0300270493BA46B9F1000F1BD171
:105710002B7C089A002B6AD0A96A8A4267D1A4B16F
:10572000E1B209A802F0C1FB002406A8FDF75AFE69
:1057300014A9FEF7C6FF002856D006A8FEF79BFF67
:105740000890E5E74FF001090023099A52F80C2C64
:1057500072B1E1B209A8009302F0A7FB09AAD5E94A
:1057600002010AF021FC009B10B9179904220A607B
:105770002CB926B9099A52F80C2C002A5AD0002BC1
:1057800058D1BAF1000F71D1BBF1000F00D07F42A8
:10579000189B1F6054E0DDF800A05746B9F1000FD8
:1057A000D2D108990198FCF775FE431CCCD0039B1D
:1057B0009F4216D8029B07FB08F71B1ABB4238BF53
:1057C0004AF0010A0134074406A8FDF70BFE14A9AC
:1057D000FEF777FF0028B5D006A8FEF74CFF08902B
:1057E000DFE74FF0010AEFE7DDF800908DE76B6A25
:1057F0009A42A9D008AA01990498FCF7A3FEB8B16F
:10580000049B039AC01A3C284FEAA003C8BF063B7A
:1058100097420AD8029A07FB08F7D21ABA4238BF51
:105820004AF0010A01341F447FE7DDF800A07CE75D
:1058300003468AE70023189A1360179A042313601B
:10584000B9F1000F05D0179B179A1B6843F00203AC
:10585000136006AB93E80300059B83E8030009A8E7
:1058600002F0ECF805980BB0BDE8F08FBBF1000F2B
:1058700002D04FF00043DEE76FF00043DBE700BFEC
:105880007C0A002070B588B006AC84E80C00109B40
:1058900004930F9B03930E9B02930CAB05460E469D
:1058A00093E803008DE80300284694E80C00314695
:1058B000FFF766FE284608B070BD2DE9F04F8FB0A7
:1058C0000AAC0690DDE91A0984E80C00C368DDF82B
:1058D00070A0DD070E4639D44FF0FF330D930DABAA
:1058E000CDE90393029018AB93E803008DE8030021
:1058F00008AD94E80C0031462846FFF741FE95E8D4
:1059000003000D9B012B84E803000CD803F0010376
:105910008AF8003094E80300069B83E803001846E9
:105920000FB0BDE8F08F01238AF800300423C9F8D6
:10593000003018A92046FEF7B1FE0028EAD0D9F8B9
:10594000003043F00203C9F80030E3E76C30FDF7A4
:1059500023FD036A8169B3FA83F3B1FA81F8012563
:1059600083465B094FEA581800272E4613B1B8F159
:10597000000F45D118A920460793FEF78FFE002897
:105980003FD12046FEF777FE079B33B9DBF81C10AA
:1059900051F82760311A4E424E4156B9B8F1000F06
:1059A0000AD0002D46D18AF8005041E04FF001089E
:1059B000DCE7B8F1000F06D1DBF8141051F82750DE
:1059C0002A1A554255411DB9002B44D1002E40D012
:1059D00020460137FDF706FD86B1DBF82030BB42DB
:1059E0008CBF00230123002DE0D0DBF81810B94252
:1059F0008CBF4FF000084FF00108B7E70123F2E732
:105A000000203EB9BDB900238AF8003080B10623DA
:105A100099E72846DBF82030BB42F3D1002FF1D0C4
:105A200000238AF800307DB1DBF81830BB420BD17F
:105A3000042388E73046DBF81830BB42E3D1002F5F
:105A4000E1D001238AF80030002814BF022300238C
:105A500079E73046D7E7002EDBD18AF80060E7E728
:105A60002DE9F04F8BB00DF1180A169C049004F14B
:105A70006C008AE80C00FDF78FFCE46804F04A042F
:105A80000023402C0646089347D0082C14BF4FF043
:105A90000A084FF0100814A95046FEF7FFFD814692
:105AA00000286ED15046FEF7E6FDD6F8BC300890CF
:105AB00083420CBF01230023009303D0D6F8C030EB
:105AC000834214D1337C13B1B36A83420FD0736A1B
:105AD00083420CD05046FDF785FC14A9FEF7F1FD7A
