:020000040800F2
:10000000000002208D0100089301000897010008FC
:10001000090200080D020008550200080000000057
:100020000000000000000000000000009D02000829
:10003000A102000800000000A50200084509000810
:100040008901000889010008890100088901000868
:100050008901000889010008890100088901000858
:100060008901000889010008890100088901000848
:100070008901000889010008890100088901000838
:100080008901000889010008890100088901000828
:100090008901000889010008890100088901000818
:1000A0008901000889010008890100088901000808
:1000B00089010008890100088901000889010008F8
:1000C00089010008890100088901000889010008E8
:1000D00089010008890100088901000889010008D8
:1000E00089010008890100088901000889010008C8
:1000F00089010008890100088901000889010008B8
:1001000089010008890100088901000889010008A7
:100110008901000889010008890100088901000897
:100120008901000889010008890100088901000887
:100130008901000889010008890100088901000877
:100140008901000889010008890100088901000867
:100150008901000889010008890100088901000857
:100160008901000889010008890100088901000847
:1001700089010008890100088901000800000000C9
:100180008901000889010008FEE7FFFF08B500F0BB
:1001900093F800BEFEE71EF0040F0CBFEFF30880DB
:1001A000EFF309807146414A10472DE9F04182B0D2
:1001B00004468846124B5E6B9F6B9D6A1B6B13F067
:1001C000020F03D00E4BDB6A002B0CDB0D4800F056
:1001D00043FDCDF800803B4632462946204600F0DC
:1001E00043FC00BEFEE74BF6AB6100F0B7FC002815
:1001F000ECD0034B4FF00042DA6202B0BDE8F08170
:1002000000ED00E0784C020800BEFEE71EF0040F8F
:100210000CBFEFF30880EFF309807146244A1047C2
:100220002DE9F04182B004468846084B5E6B9F6B17
:100230009D6A074800F010FDCDF800803B4632462D
:100240002946204600F010FC00BEFEE700ED00E06D
:10025000884C02081EF0040F0CBFEFF30880EFF388
:1002600009807146134A10472DE9F04182B00446D7
:100270008846084B5E6B9F6B9D6A074800F0ECFC5C
:10028000CDF800803B4632462946204600F0ECFB84
:1002900000BEFEE700ED00E0944C020800BEFEE761
:1002A00000BEFEE700BEFEE770470000AB0100089D
:1002B000210200086902000800B583B000F0CCFB01
:1002C000304B314A1360314A1360314B314A324965
:1002D0008B4204D21168196004330432F7E72A4BC9
:1002E0001A682E4B9A4200D0FEE7284B1A682C4B16
:1002F0009A42F9D1234B2B4A13602B4A13602B4BA4
:1003000002E000221A600433294A9342F9D3254BB4
:100310001B6813B9244B1B6803B1FEE700F0A0FB78
:10032000694601A800F0C6FD224C234BE41AA41034
:100330000025AC4214DC214C214BE41AA41000250A
:10034000AC4213DC0099019800F00CF905461D4CF5
:100350001D4BE41AA410002C0EDC284600F046FDCC
:10036000154B53F8253098470135E2E7144B53F805
:10037000253098470135E3E7013C134B53F824300F
:100380009847E8E7BABADECA00000020F802002069
:1003900000000020188B0208FC020020785634125E
:1003A00032547698FC020020141B0020FC0200202E
:1003B000181B0020F4030008F40300080C040008D4
:0C03C000F4030008140400080C040008FA
:1003CC00188B020800000020FC020020188B020889
:1003DC000000001000000010FC020020181B002080
:1003EC00000000100000001071060008A5080008AD
:1003FC00697B000819EE0008614E01089D73010825
:08040C007F060008B308000898
:1004200038B5044615460A46052100F031FA024B5C
:100430002360E560204638BDE44A020838B5054629
:1004400000F0F0F9002441F287339C420DDCE868AB
:1004500000F01CF9012000F079FAE86800F01AF9C0
:10046000012000F073FA0134EDE738BD38B50446D9
:1004700015460A46062100F00BFA024B2360E560A0
:10048000204638BD084B020810B5044600F0CAF9F2
:10049000E06800F0FBF841F2707000F057FAE06895
:1004A00000F0F8F810BD84B070B4064604AC84E8DF
:1004B0000E0005460FCC0FC594E80F0085E80F002D
:1004C000304670BC04B0704738B5044600F12005D2
:1004D00000E00434AC4206D020680028F9D003685C
:1004E0001B689847F5E738BD38B5044615460A46F7
:1004F000042100F0CDF9024B2360E560204638BDB1
:100500002C4B020810B5044600F08CF9E06800F0AE
:10051000BDF840F6B83000F019FAE06800F0D5F800
:1005200040F6B83000F012FAE06800F0B3F810BD01
:1005300038B504460D46012805D01CB94FF6FF73A7
:100540009D4208D038BD4FF6FF739942F5D104485B
:1005500001F066FBF1E7024801F0EEFBF2E700BFB5
:100560000003002030B5BFB036A800F008F932A86B
:1005700000F094F836AA01212FA800F089F936AAD4
:1005800002212CA800F084F936AA032129A800F042
:100590007FF932AA36A925A8FFF7A6FF32AA36A905
:1005A00021A8FFF73DFF32AA36A91DA8FFF75EFF7D
:1005B00036AA07211AA800F06BF936AA082117A855
:1005C00000F066F92FAB0F932CAB109329AB11936E
:1005D00025AB129321AB13931DAB14931AAB159358
:1005E0006C4612AD0FCD0FC417AB23600FAB0ECB13
:1005F00007A8FFF758FF07A8FFF766FFFEE717A851
:1006000000F034F91AA800F031F93EA8154B40F873
:10061000843D00F02BF93EA8134B40F8743D00F0E8
:1006200025F93EA8114B40F8643D00F01FF929A8B8
:1006300000F01CF92CA800F019F92FA800F016F909
:1006400032A800F03CF836A800F0B6F801F025F921
:10065000D8E7DAE7DFE7E4E7E9E7EBE7EDE7EFE73D
:10066000F1E700BF084B0208E44A02082C4B0208DD
:1006700008B54FF6FF710120FFF75AFF08BD08B516
:100680004FF6FF710020FFF753FF08BD08B500F0DB
:1006900036F808BD08B500F03AF808BD10B50446B4
:1006A0000C22032100F03CF80D22032104F1080084
:1006B00000F036F82046FFF7EDFF204610BD10B5DC
:1006C0000446FFF7E7FF204610BD10B500F108040F
:1006D000204600F039F818B9204600F010F810BD97
:1006E000204600F014F8FAE710B404682368416863
:1006F000490001228A401343236010BC70470168FF
:100700004B6940680122824013434B617047016886
:100710004B6940680122824023EA02034B61704723
:1007200010B50446074B53F8213003604260084679
:1007300000F0C6F82046FFF7D7FF2046FFF7E7FF97
:10074000204610BD0400002003685A694168012357
:100750008B401A4214BF01200020704710B5044698
:100760001830FFF7CCFF04F11000FFF7C8FF04F1C9
:100770000800FFF7C4FF2046FFF7C1FF10BD10B50A
:10078000044608220321FFF7CBFF0922032104F1CD
:100790000800FFF7C5FF0A22032104F11000FFF74C
:1007A000BFFF0B22032104F11800FFF7B9FF204619
:1007B000FFF7D4FF204610BD10B50446FFF7CEFF6B
:1007C000204610BD38B504460D4611F0010F17D074
:1007D000FFF795FF15F0020F15D004F10800FFF7A1
:1007E0008EFF15F0040F13D004F11000FFF787FF00
:1007F00015F0080F11D104F11800FFF788FF38BD7C
:10080000FFF785FFE6E704F10800FFF780FFE8E760
:1008100004F11000FFF77BFFEAE704F11800FFF78F
:100820006EFFECE708B501798068FFF7CBFF4FF466
:100830007A7000F08BF808BD38B504460D460128E3
:1008400005D01CB94FF6FF739D4208D038BD4FF656
:10085000FF739942F5D1044801F0E2F9F1E702484B
:1008600001F06AFAF2E700BF0403002010B5044665
:10087000044B036008220449044808F06CF8204641
:1008800010BD00BF544B0208304B0208680700201F
:1008900010B4034C04600171826010BC704700BF4B
:1008A000544B020808B54FF6FF710120FFF7C4FF53
:1008B00008BD08B54FF6FF710020FFF7BDFF08BD6A
:1008C00003490B68012202FA00F003430B607047F2
:1008D000303802400A4B1B680A4AA2FB03239B09DB
:1008E000013BB3F1807F09D2074A5360074BF021E7
:1008F00083F823100023936007231360704700BF21
:1009000038000020D34D621010E000E000ED00E060
:1009100010B50446FFF7DEFF204610BD034B1860FC
:10092000024B1B68002BFBD1704700BF0C0300205B
:10093000034B1B681BB1024A1368013B13607047ED
:100940000C03002008B5FFF7F3FF08BD10B50446FF
:10095000074B1B6813F0010F03D02046FFF7DEFFA3
:1009600010BD0448FFF7D4FF014B01221A60F4E7E1
:1009700008030020100300200C4B1A6842F001020B
:100980001A60002199601A6822F0847222F4803281
:100990001A60074A5A601A6822F480221A60D960E5
:1009A000044B4FF000629A60704700BF003802406D
:1009B0001030002400ED00E0224B9B6803F00C0394
:1009C000042B15D0082B17D01BB11F4B1F4A1A60E0
:1009D00002E01D4B1D4A1A601A4B9B68C3F30313B8
:1009E0001B4AD35CDAB218490B68D3400B607047DE
:1009F000154B184A1A60EFE7124B5A685B6803F010
:100A00003F0312F4800F13D0124AB2FBF3F20D4BE6
:100A10005B68C3F3881303FB02F30A4A5268C2F30C
:100A2000014201325200B3FBF2F3074A1360D3E7ED
:100A3000064AB2FBF3F2034B5B68C3F3881303FB74
:100A400002F3EAE700380240380000200024F400F6
:100A50002800002000127A0008B5FFF78DFF08BDBE
:100A600008B5FFF7A9FF08BDF8B504460D461746BF
:100A70001E46274800F0F0F82168264800F0ECF800
:100A80006168254800F0E8F8A168244800F0E4F81F
:100A9000E168234800F0E0F82169224800F0DCF822
:100AA0006169214800F0D8F8A169204800F0D4F825
:100AB000E1691F4800F0D0F81E4800F0CDF8294643
:100AC0001D4800F0C9F81D4CE16A1D4800F0C4F84B
:100AD000216B1C4800F0C0F8E16B1B4800F0BCF82B
:100AE00015F0800F0AD115F4004F0CD1174800F013
:100AF000B3F80699164800F0AFF8F8BD3946154826
:100B000000F0AAF8EFE73146134800F0A5F8EDE74A
:100B1000584B0208684B0208784B0208884B0208C1
:100B2000984B0208A84B0208B84B0208C84B0208B1
:100B3000D84B0208E84B0208F44B020800ED00E035
:100B4000044C0208144C0208244C0208544C0208BD
:100B50005C4C0208344C0208444C020838B58369E6
:100B60001B888B4201D0002038BD044603684568CD
:100B7000013B302B68D8DFE803F045211C1C5D30B9
:100B8000332D1919671919191919361924671927D5
:100B90006739676767676767676767676767676713
:100BA0006767676767676767671919004FF0FF3303
:100BB0000360A3690233A3610120D5E7002303602A
:100BC000F7E700230360F4E700232B606B60AB6062
:100BD000EB60EEE700230360EBE7AB680360E8E758
:100BE00000230360E5E700230360E2E7BFF34F8FD4
:100BF0001649CA6802F4E062154B1343CB60BFF399
:100C00004F8FFEE7134928681DF0B7F840B96B68AD
:100C100013B901232360CCE7042B05D0082B06D0A1
:100C20004FF0FF332360C4E702232360C1E70323AF
:100C30002360BEE72B68023B012B02D9AB6803603F
:100C4000B7E700230360B4E700208DE700ED00E084
:100C50000400FA05744C02080FB400B583B004AB6D
:100C600053F8042B0193802106481FF0BFF8002899
:100C700003DD0146034800F04FF803B05DF804EBD4
:100C800004B070471403002010B504461DF0F8FDB1
:100C90000146204600F040F80121024800F03CF8EF
:100CA00010BD00BFF04B0208F0B585B006460C46FB
:100CB000174B1B6883B9174B01930423029303233B
:100CC0000393012501AF28463946ABBE0546B5F171
:100CD000FF3F14D00E4B1D600D4B1B680193029615
:100CE0000394052501AE28463146ABBE0546B5F155
:100CF000FF3F07D0AC4208D0601B05B0F0BD4FF0FD
:100D0000FF30FAE74FF0FF30F7E74FF0FF30F4E73E
:100D100094030020744C020808B5FFF7C5FF08BD16
:100D200008B50348FFF7B0FF012000F05FF800BFEF
:100D3000A44C020808B503460C4A12685AB10B4A83
:100D40001068033323F003030344094A934206D88F
:100D5000064A136008BD054A06491160EFE71BF01B
:100D6000FBF90C2303604FF0FF30F3E798030020FA
:100D700000F80120181B002030B513240025204660
:100D80002946ABBE0446204630BD38B504461BF0AC
:100D9000E3F90546FFF7F0FF2860204638BDB0F1C3
:100DA000FF3F00D0704708B5FFF7EFFF08BD000018
:100DB00010B504460B4B186808B1836B5BB1132C5C
:100DC0000CD8094B53F83430B3F1FF3F08D0064834
:100DD00000EBC40010BD1BF0C7FAF0E70020F9E7F4
:100DE0000020F7E7C80000202404002000B530B937
:100DF000044D182420462946ABBE0446FEE7024DAA
:100E0000F7E700BF26000200230002002DE9F041B1
:100E100084B0234F019703260396002302930124F5
:100E200001AD20462946ABBE80461E4BC3F800806C
:100E3000019703960423029320462946ABBE8046C1
:100E4000194BC3F8008001970396082302932046AC
:100E50002946ABBE0446154B1C60B4F1FF3F01D0E0
:100E600000230AE0104B1A68104B1A60F8E7104A8A
:100E70004FF0FF3142F833100133132BF7DD0C4BE9
:100E8000084A12681A6000225A6007490968996086
:100E9000DA600649096819615A6104B0BDE8F08159
:100EA000744C02081C0400202004002018040020B8
:100EB000240400202DE9F04F83B083468A462F4B4F
:100EC00000934F23019315266C4630462146ABBE56
:100ED0000646002E3DD1B146284B002283F84F2014
:100EE000009D3746B04617E01BF06AFD204490F99C
:100EF0000130002B0FDB092C0DD0082E27DC222C13
:100F000001D0272C01D1013527461D4B43F826502F
:100F100001364FF00108013595F90040BCB1B8F138
:100F2000000FE1D037B1A742F5D100232B704F4617
:100F3000C846F0E71BF044FD204490F90130002B37
:100F400001DB092CE7D100232B70B846E3E70EB193
:100F500006E00026094B00221A70094A1360013688
:100F6000074B002243F82620CBF80060CAF8003077
:100F7000FFF74CFF03B0BDE8F08F00BFA0030020D7
:100F8000F003002030B585B0019002910392062451
:100F900001AD20462946ABBE04462046FFF7FFFEC2
:100FA00005B030BD70B50E461546FFF701FF68B1BC
:100FB00004462A4631460068FFF7E4FFB0F1FF3FE0
:100FC00003D0281A63680344636070BD1BF0C4F843
:100FD000092303604FF0FF30F7E7F0B583B00C460C
:100FE0001546FFF7E5FEC0B10646022D1CD8012DBF
:100FF00021D0022D35D03368009301940A256F4625
:1010000028463946ABBE05462846FFF7C8FE0028ED
:101010003BDB7460204603B0F0BD1BF09DF8092354
:1010200003604FF0FF30F6E71BF096F816230360DD
:101030004FF0FF30EFE74368E418DCD51BF08CF885
:10104000162303607368002B1CDD002C02DC4FF0BC
:10105000FF30E0E71BF080F88B2303604FF0FF3098
:10106000D9E7036802AF47F8083D0C252846394602
:10107000ABBE05462846FFF792FEB0F1FF3FCAD04F
:101080000444B8E74FF0FF30C5E74FF0FF30C2E748
:1010900008B5FFF7A2FF08BD30B585B001900291F9
:1010A0000392052401AD20462946ABBE04462046E6
:1010B000FFF775FE05B030BD70B50E461446FFF75C
:1010C00077FE70B10546224631460068FFF7E4FF1F
:1010D000021E11DBA01A6B6803446B60944207D0B8
:1010E00070BD1BF039F8092303604FF0FF30F7E7BC
:1010F0000020FFF74AFEF3E74FF0FF30F0E730B58E
:1011000083B002AD45F8040D022420462946ABBE4B
:1011100004462046FFF743FE03B030BD38B5044611
:10112000FFF746FE90B10546013C012C04D80D4B5B
:101130009A681B699A4210D02868FFF7E0FF0346BF
:1011400010B94FF0FF322A60184638BD1BF004F882
:10115000092303604FF0FF33F6E74FF0FF330360DE
:101160000023F1E72404002070B50C46FFF720FEB1
:10117000A8B10646636843F4005363604FF480638C
:1011800063640C2528463146ABBE05462846FFF76A
:1011900006FEB0F1FF3F01D02061002070BD1AF0C3
:1011A000DBFF092303604FF0FF30F7E738B5054652
:1011B0000C465822002120461BF05DFD21462846A2
:1011C000FFF7D2FF38BD38B5FFF7F2FD80B1054615
:1011D000092420462946ABBE04462046012C06D0F1
:1011E0001AF0BAFF0446FFF7C7FD2060002038BDA3
:1011F0001AF0B2FF092303600020F8E770B500235E
:10120000A0EBC006C0EBC00210F8015B941905F01A
:101210007F02A24013432A06F4D40B6070BD30B5A0
:1012200000231A4610F8014B04F07F0595402B432C
:10123000250602F10702F5D41F2A06D8640642BF2C
:101240004FF0FF3404FA02F213430B6030BD502814
:10125000F7B505460E4614461F4607D1D01C20F0B0
:10126000030050F8043B3B6003B0F0BD00F00F03F7
:101270000C2B2ED8DFE803F025071D25292D2D2D59
:101280002D182125290001A92046FFF7B7FF019B52
:10129000002BE8D005F07002102A08BF2646334420
:1012A0002A0648BF1B68DEE701A92046FFF7B7FF03
:1012B000EDE7204630F8023BEAE7204630F9023BF2
:1012C000E6E7204650F8043BE2E7204650F8083BAA
:1012D000DEE7FFF725FD1FB503AB009300230A46A9
:1012E00019461AF035F9039805B05DF804FB00F0D3
:1012F0007000202808B510D004D8C0B1102816D02E
:10130000FFF70EFD40280DD0502810D03028F7D11F
:101310000846BDE808401AF0D1BE0846BDE80840BE
:101320001AF0D0BE0846BDE808401AF0B7BE00204B
:1013300008BDFF2970B50C4615461E460BD0014668
:101340002046FFF7D4FF014633462A462046BDE833
:101350007040FFF77CBF0021F6E773B50E461446D8
:10136000054608B11AF09AFE20603178FF2906F18F
:1013700001021DD0231D2846FFF7DBFF024613782C
:101380002375FF2B02F1010014D01023237501A94E
:10139000FFF734FF019B0344E3600378637501A901
:1013A0000130FFF72BFF019B0344236102B070BDA6
:1013B0006060E4E70023EFE72DE9F04F91B00023F0
:1013C000049300F00303012B07460C46164611D088
:1013D00003D3022B03D0FFF7A3FC02071AD5314633
:1013E00020461AF047FE18B1092011B0BDE8F08F71
:1013F0000820FAE700F0080505F0FF0875BBD1F8F2
:10140000209010460D21FFF766FF814540F0458191
:10141000062500E0012510AB07F0080743F82C4D26
:10142000009300233D430C22194630461AF0B2F8CF
:10143000062D40F03E81276BD4E90A98002F0CBF9F
:101440004FF0010A4FF0030A15F0080500F0C780BD
:10145000BAF1010F40F0BE8000F008FA0225DAE789
:1014600000203BE1079A1344BB4240F23F81089FB2
:101470000FB10B9B1F44099810B10E9B0138184403
:10148000002FACD0002800F0048115F0080302936F
:1014900034D0472323704E2363705523A370432316
:1014A000E370462323714F2363715223A3710023FA
:1014B000E3714FF0000A6FF0030B07A9FFF7AFFECF
:1014C00008A90390FFF7ABFE0799002967D03EDD1E
:1014D0009DF83C00FF2834D000F00703042B3FF6B2
:1014E0007AAF01A252F823F00F150008D7130008B5
:1014F000491500080F1500083D150008E379012B78
:101500000CBF54F8203C04F158030493D1E74FF08A
:10151000040C0D9A09AB0CFB11220C99FFF797FEF6
:10152000099931B17CB304AB0022204600F0D8F910
:1015300048B3DDF81C904FF0030A38E04FF0080C78
:10154000E7E74FF0000CE4E74FF0020CE1E70D9BFA
:1015500001FB0BB103EB0109E4B1029AD2B9049B80
:101560000693A9F1040959F8041F41B106AB002202
:101570004944204600F0B4F90028F4D0012181F05C
:1015800001010029D5D1089800287ED0039B03448F
:10159000184692E75958B1FA81F14909F1E74FF03D
:1015A000010AF0E74FF000094F464FF0010AEB0740
:1015B0007FF54AAFBAF1020F3FF411AF0D2130466B
:1015C000049DFFF788FEC4E90A98C4E9080527636B
:1015D00006200AE7B9F1000F2ADA00F059F9BAF14A
:1015E000010F02D1204600F0C4F8B9F1000F1FDA54
:1015F0000AAA41463046FFF7B0FE9DF83C00FF289E
:101600000FD03146FFF773FE6FF0030309FB03327F
:101610000D9B0C901344002253F8221019B1013293
:10162000FAE72846F0E7C4E90A200422C4E90C23BB
:1016300010AB304643F81C4D009300231A46194660
:1016400019F0A8FF10AB012243F8209D009300235E
:101650001946304619F09EFF0F213046FFF73BFE3A
:1016600010AB00F00100074343F8247D00930023F2
:101670000F221946304619F08DFFBAF1020F02D140
:10168000204600F08BF90720AFE6BAF1000F3FF4D7
:10169000A6AE81464FF0020A89E710AA434642F8F7
:1016A0002C4D4146009230460C2245F0020519F0BF
:1016B00071FF30461AF0F8FC804600283FF48FAEE8
:1016C00001460AAA3046FFF748FE81469DF83C00D5
:1016D000FF283FF4C5AE3146FFF709FE0C900F21FD
:1016E0003046FFF7F8FD20F00100471E0E9B4B45EA
:1016F0007FF658AF4A4606AB9DF83D100020FFF735
:1017000018FE07AB02469DF83D100020FFF711FEC2
:1017100008AB02469DF83D100020FFF70AFE09A91C
:10172000FFF76CFD0A9B069A1344BB4281467FF685
:1017300099AEDDF83890D9E70378472B17D1437875
:101740004E2B14D18378552B11D1C378432B0ED156
:101750000379432B0BD143792B2B08D183792B2B86
:1017600005D1C07901288CBF0020012070470020DE
:10177000704710B5044648B100F03BF82046FFF72B
:10178000DBFF18B154F8140C00F064F800F06EF8A8
:1017900038B50246FFF7D0FF40B152F8184C00258B
:1017A000104600F026F825B100F072F80446012535
:1017B000F6E7204600F05FF80378472B17D143780F
:1017C0004E2B14D18378552B11D1C378432B0ED1D6
:1017D0000379432B0BD143792B2B08D183792B2B06
:1017E00005D1C07901288CBF00200120704700205E
:1017F000704738B5054600F029F8014602682846CA
:10180000A5F12004FFF7D8FF30B90AB100F02EF897
:101810000C601446204638BD55F80C3C002BB4BF74
:10182000C3F10103013345F80C3C4B68A24203F1BC
:10183000FF334B6028461CBF45F8102C0C606C6AC7
:1018400019F07EFEE6E70020704700000048704770
:10185000C404002008B58047FFF762FA024B1868FD
:10186000BFF35B8F704700BF4400002008B5FFF74F
:10187000F5FFFFF7EFFF08B58047FFF7F7FF000020
:10188000024B1868BFF35B8F704700BF4800002011
:1018900008B5FFF7F5FFFFF7EEFF1EB400F09BF869
:1018A0001EBC1AF011FA0378472B17D143784E2B40
:1018B00014D18378552B11D1C378432B0ED10379E2
:1018C000432B0BD143792B2B08D183792B2B05D1BB
:1018D000C07901288CBF002001207047002070478C
:1018E0002DE9F3411E460378472B0D460246C17988
:1018F00013D143784E2B10D18378552B0DD1C3785B
:10190000432B0AD10379462B07D143794F2B04D1BE
:101910008379522B01D1002931D01046FFF7C3FF44
:1019200080F00100C0B200230024019453BB58BBD7
:1019300001290ABF52F8203CA2F12003783B01297B
:1019400008BF52F8202C1C6818BF58320192236837
:1019500020469B689847C8B1019B1B6801930227EA
:101960002B6801AAD3F81080214601232846C047DE
:1019700070B1019B3360384602B0BDE8F0810123AD
:101980000846D1E7034CE2E7034CE0E70127E7E72D
:101990000746F0E7DC5F0208E45F020810B5044682
:1019A000FFF754FF02462046A4F12001FFF77BFF1A
:1019B00060B154F8043C0133012B44F8043C03D1DA
:1019C000936844F8083C9160012010BD9368002B97
:1019D000F9D0FFF74BFF10B5FFF738FF82680146DB
:1019E0000AB9FFF743FF02F120042046FFF75BFF2F
:1019F00040B1D369013BD36113B9906988609361A9
:101A0000204610BD8860FBE70DF079BA10B5034B96
:101A10000360044600F0B2F8204610BDF44C020802
:101A200010B50446FFF7F2FF20460C21FFF7ECFF4C
:101A3000204610BD2DE9F041069E96420746884695
:101A400015461C460AD0B868036806961E6A2A46E0
:101A500023464146B446BDE8F0416047194600F0D0
:101A600057F80028EFD00620BDE8F0812DE9F14FAE
:101A70000E461946834617469946DDE90A4ADDE9CE
:101A80000C8500F045F890B1002E2C602F7109DB19
:101A90003444A0450CBF06240124AC71002001B0E1
:101AA000BDE8F08F0236F9D10123AB71F6E744456A
:101AB00006D15146584600F02BF808B16F71EDE79A
:101AC000DBF808000368CDE90C85CDE90A4ADC693A
:101AD0003A464B463146A44601B0BDE8F04F604758
:101AE0002DE9F04104460D4616461F4600F077F8F2
:101AF00048B9A06803689C6932463B462946A4461B
:101B0000BDE8F0416047BDE8F081704700207047B4
:101B1000814208B50ED0406803782A2B0CD0496862
:101B20000B782A2B08BF01311CF027F9B0FA80F09E
:101B3000400908BD0120FCE70020FAE77FB500243A
:101B40001023CDE902340368009415469E698DF890
:101B500004406B461268B0479DF8043003F006035A
:101B6000062B03BF009B2B600120204604B070BDF4
:101B7000009890420CBF06200120704710B5034B1F
:101B800003600446FFF7C1FF204610BD684D020800
:101B900010B50446FFF7F2FF20460821FFF734FF97
:101BA000204610BD2DE9F0419846DDE90834069E37
:101BB0009E420746154607D10799FFF7A9FF18B1BE
:101BC00065710020BDE8F08141463846FFF7A0FF6F
:101BD0000028F6D0012326602571A371F1E738B5FE
:101BE00015461C46FFF794FF20B10823E360062347
:101BF0002560237138BD2DE9F04105460C46164697
:101C00001F46FFF785FF48B9032F07D823683246E0
:101C1000294620465B69BDE8F0411847BDE8F081E0
:101C20002DE9F843334D2B685A1C07462A60002BD8
:101C30005CD1314C314B3248DFF8F080DFF8F09066
:101C4000304E01221A702368996806F0F9FC236867
:101C50002D48596806F0F4FC23682C48D96806F032
:101C6000EFFC2749404606F067FD2749484607F044
:101C700033FB2649304606F05FFD2449244806F030
:101C80005BFD3369C6F8748043F400533361236805
:101C900020489968C9F8788006F0E2FC23681E485D
:101CA00059681E4EDFF88C8006F0DAFC23681C4869
:101CB000D9681C4C06F0D4FC1649304606F0CCFD21
:101CC0001549404607F052FB1549204606F0C4FD71
:101CD0001349154806F0C0FD2369C8F8786043F43D
:101CE000005323612B68666701332B603846BDE8DB
:101CF000F88300BFC00A0020C80000204000002078
:101D00002005002050060020D0040020F804002008
:101D1000DC0600209805002048050020A8090020C6
:101D2000700500208808002018090020680700209E
:101D3000C0050020F40700200D4A1368591E022B2D
:101D400010B50446116011D10A4806F027FD0A4873
:101D500006F024FD094806F021FD094806F0AEFD15
:101D6000084806F0ABFD084806F0A8FD204610BD67
:101D7000C00A00206807002050060020DC06002072
:101D8000A8090020880800201809002010B5034B7E
:101D90000360044607F090FB204610BD944D0208F6
:101DA00010B5034B0360044607F086FB204610BDC8
:101DB000A44D020810B50446FFF7E8FF20460DF0D9
:101DC0009EF8204610BD10B50446FFF7E9FF2046F7
:101DD0000DF095F8204610BD08B5836F3BB1416109
:101DE000D0E904231A4205D0034807F021FB41F053
:101DF0000101F4E708BD00BFAC4D020808B5436916
:101E00001943FFF7E9FF08BD70B5C46F0D460CB963
:101E100007F0E7FA237F4BB9204607F0C6F923689D
:101E2000294620469B69BDE8704018470C44607FF6
:101E300070BD90F8753010B504463BB92021FFF70E
:101E4000E3FF012384F8740084F8753094F874007B
:101E500010BD000010B5044607F0EEFA064B2360F3
:101E60000023236784F8743084F87530C4E91E3386
:101E7000C4E92033204610BD944D020838B504460D
:101E800008460D4608F002FC10B1284608F028F973
:101E9000E067284608F018FC10B1284608F0FCF965
:101EA000C4F88000284608F02DFC10B1284608F040
:101EB00011FAC4F8840038BD38B504460D460EF05A
:101EC00062F904F16C012046FFF7D8FFA567B5FA67
:101ED00085F500236D0984F8743084F87530236724
:101EE0002361656138BD000008B5C36F3BB1416136
:101EF000D0E904231A4205D0034807F099FA41F0CB
:101F00000101F4E708BD00BFAC4D020808B5436904
:101F10001943FFF7E9FF08BD10B5044607F08CFA36
:101F2000064B23600023C4E91C3384F87830C4E9ED
:101F30001F33C4E92133204610BD00BFA44D020861
:101F400038B5044608460D4601F0A6F810B12846FB
:101F500000F0D0FFC4F88000284601F0BBF810B1B3
:101F6000284601F003F8C4F88400284601F0D0F8B0
:101F700010B1284601F018F8C4F8880038BD38B50B
:101F800004460D460EF0FFF804F16C012046FFF701
:101F9000D7FFE567B5FA85F500236D09636784F817
:101FA000783023672361656138BD7047704730B56D
:101FB00000224FF0FF344FF0FF35C0E90045C0E983
:101FC000022230BD82B08DE80C004FF0FF334FF09D
:101FD000FF32C0E900230023C0E9023302B070479A
:101FE00000207047002070474FF0FF3070470368B3
:101FF00010B55B6A04469847431C1EBFA36813F8DC
:10200000010BA36010BD4FF0FF3070474FF0FF3061
:1020100070477047704730B500224FF0FF344FF0E3
:10202000FF35C0E90045C0E9022230BD82B08DE82D
:102030000C004FF0FF334FF0FF32C0E900230023C4
:10204000C0E9023302B0704700207047002070479B
:102050004FF0FF307047036810B55B6A044698473D
:10206000431C1EBFA36853F8040BA36010BD4FF0C0
:10207000FF3070474FF0FF307047000010B5044B41
:10208000044640F81C3B0EF0C9F9204610BD00BFC5
:10209000244E020810B5044B044640F81C3B0EF0D9
:1020A000BDF9204610BD00BF644E020810B50446BD
:1020B000FFF7E4FF20460CF022FF204610BD10B5CC
:1020C0000446FFF7E7FF20460CF019FF204610BD3D
:1020D0002DE9F04106460D469046002444451DDAA0
:1020E000D6E905073B1A0FD0A8EB04079F42A8BF0B
:1020F0001F463A4629461AF09AFD73693C443D440E
:10210000A0451F447761E9DD336829785B6B304671
:102110009847013002D001340135DFE72046BDE8A1
:10212000F0812DE9F04107460E46904600254545D1
:1021300021DAD7E90504844213D0241AA410A8EBAD
:1021400005039C42A8BF1C461CB1224631461EF026
:1021500002FE7B692544A4002644A8451C447C61FA
:10216000E5DD3B6831685B6B38469847013002D04B
:1021700001350436DBE72846BDE8F0812DE9F04162
:1021800006460D469046002444451DDAD6E902175E
:102190007B1A0FD0A8EB04079F42A8BF1F463A4600
:1021A00028461AF044FDB3683C443D44A0451F4412
:1021B000B760E9DD336830469B6A9847431C03D01B
:1021C000287001340135DFE72046BDE8F0812DE9B4
:1021D000F04107460E4690460025454521DAD7E9ED
:1021E00002148C4213D0641AA410A8EB05039C427D
:1021F000A8BF1C461CB1224630461EF0ACFDBB6891
:102200002544A4002644A8451C44BC60E5DD3B6889
:1022100038469B6A9847431C03D03060013504362A
:10222000DBE72846BDE8F08103689B691847D0E9E1
:1022300002318B42024602D303689B6A184713F8A7
:10224000010B93607047D0E902218A4202D30368F0
:102250005B6A18471078704730B4D0E9052595427D
:1022600003D8036830BC5B6B1847117042690132B8
:10227000426130BC0846704703681B6B184700007A
:1022800010B5074B036000230446C0E90133C0E9E1
:102290000333C0E905331C300DF046FC204610BD69
:1022A000244E020803689B691847D0E902318B422B
:1022B000024602D303689B6A184753F8040B9360E5
:1022C0007047D0E902218A4202D303685B6A18474B
:1022D0001068704703681B6B1847000010B5074B68
:1022E000036000230446C0E90133C0E90333C0E9B9
:1022F00005331C300DF018FC204610BD644E02085A
:102300008368586970478368986970478368586B19
:10231000704783689B6B0020DAB262F30700C3F357
:10232000072262F30F20C3F3074262F317401B0E2C
:1023300082B063F31F6002B070478368DB6B0020DC
:10234000DAB262F30700C3F3072262F30F20C3F38C
:10235000074262F317401B0E82B063F31F6002B0A6
:1023600070478368586970478368986970478368C5
:10237000586B704783689B6B0020DAB262F30700EA
:10238000C3F3072262F30F20C3F3074262F317403F
:102390001B0E82B063F31F6002B070478368DB6B73
:1023A0000020DAB262F30700C3F3072262F30F20C2
:1023B000C3F3074262F317401B0E82B063F31F6042
:1023C00002B070478368586A70478368986A70479C
:1023D000002070470020704770470020914204D2CF
:1023E00051F8043B03EB7060F8E7704710B50D4BF4
:1023F000036090F86C3004467BB1806808B10CF043
:10240000E7FDE06908B10CF0E3FD606A08B10CF08B
:10241000DFFDE06A08B10CF0DBFD20460DF090FF17
:10242000204610BDAC51020810B50D4B036090F86A
:102430006C3004467BB1806808B10CF0C9FDE069DE
:1024400008B10CF0C5FD606A08B10CF0C1FDE06A8E
:1024500008B10CF0BDFD20460DF072FF204610BD06
:10246000BC51020810B5034B036004460DF068FF31
:10247000204610BD4051020810B5034B03600446CE
:102480000DF05EFF204610BD585102080B4B10B5F1
:10249000036090F8243104465BB1806808B10CF009
:1024A00097FD606908B10CF093FDE06908B10CF08C
:1024B0008FFD20460DF044FF204610BDCC51020890
:1024C00010B5034B036004460DF03AFF204610BDE3
:1024D0000450020810B5034B036004460DF030FFB2
:1024E000204610BD4050020810B5034B036004465F
:1024F0000DF026FF204610BD7050020810B5034BAA
:10250000036004460DF01CFF204610BD7051020808
:1025100010B5034B036004460DF012FF204610BDBA
:102520008451020810B50446FFF760FF20460CF006
:10253000E6FC204610BD10B50446FFF775FF2046A7
:102540000CF0DDFC204610BD10B50446FFF78AFFF5
:1025500020460CF0D4FC204610BD10B50446FFF711
:102560008BFF20460CF0CBFC204610BD10B5044676
:10257000FFF78CFF20460CF0C2FC204610BD10B5C2
:102580000446FFF79DFF20460CF0B9FC204610BD25
:1025900010B50446FFF79EFF20460CF0B0FC204625
:1025A00010BD10B50446FFF79FFF20460CF0A7FCB6
:1025B000204610BD10B50446FFF7A0FF20460CF0E2
:1025C0009EFC204610BD10B50446FFF7A1FF204633
:1025D0000CF095FC204610BD13B58B6801AA9968D4
:1025E000044605F0BFFE204602B010BD13B58B684F
:1025F00001AA9968044605F0B5FE204602B010BD58
:1026000013B58B6801AA9968044605F0ABFE204615
:1026100002B010BD13B58B6801AAD969044606F053
:1026200047FD204602B010BD13B58B6801AA596A58
:10263000044606F03DFD204602B010BD13B58B6880
:1026400001AAD96A044606F033FD204602B010BD47
:1026500013B58B6801AAD969044606F029FD204606
:1026600002B010BD13B58B6801AA596A044606F082
:102670001FFD204602B010BD13B58B6801AAD96AB0
:10268000044606F015FD204602B010BD13B58B6858
:1026900001AA5969044606F00BFD204602B010BDA0
:1026A00013B58B6801AAD969044606F001FD2046DE
:1026B00002B010BD10B5054B044640F8083B0EF0C3
:1026C00035FB20460DF03CFE204610BDF8500208B8
:1026D00010B50446FFF7EEFF20460CF010FC204634
:1026E00010BD000010B5054B044640F8083B0EF045
:1026F0001DFB20460DF024FE204610BD844F02082D
:1027000010B50446FFF7EEFF20460CF0F8FB20461C
:1027100010BD000038B50D4B0360056904460DF08F
:1027200033FE854203D015B128460CF051FCA06859
:1027300010B103685B68984704F10C000EF0F6FADC
:1027400020460DF0FDFD204638BD00BF8050020838
:1027500010B50446FFF7DEFF20460CF0D0FB204604
:1027600010BD2DE9F04385B01C46814603AB02A89D
:1027700006F0B4FC01AB21460C9A03A806F0AEFCAF
:10278000029D039C55F80C3C54F80C7C05EB830827
:1027900004EB87072246294648460DF09AFB064679
:1027A00078B928461EF04CF905EB800520461EF04E
:1027B00047F9A84504EB80040DD13E1B18BF4FF02C
:1027C000FF3603A806F008FA02A806F005FA30461C
:1027D00005B0BDE8F083A74202D004350434D9E740
:1027E0000126EEE72DE9F34715461C46284B03600A
:1027F00022466B460746894601A8294606F06EFC2C
:10280000019EDFF890A056F80C3C641B06EB830891
:10281000204B64109C4294BFA0004FF0FF300CF09E
:1028200010FE054623463246294648460DF05CFB1D
:10283000844211D8441C28460CF0CAFB544594BF6E
:10284000A0004FF0FF300CF0FCFD2346054601468A
:10285000324648460DF048FB02462946384606F007
:1028600043FB30461EF0ECF806EB8006B04505D081
:1028700000213846043606F0C0FBD3E728460CF0AA
:10288000A7FB01A806F0A8F9384602B0BDE8F0871A
:10289000B40A0020FEFFFF1F0A2807D82F2917D9E6
:1028A0003030814214D2A1F130007047A1F13000E4
:1028B00009280FD9A1F16103052B02D8A1F1570016
:1028C0007047A1F14103052B02D8A1F137007047F1
:1028D0004FF0FF307047000008B42DE9F7410F4674
:1028E0000420002190461AF079F8164905461BF09D
:1028F00044FA28B328461BF0C3FF461C30460CF0B0
:10290000A0FD2946324604461AF091F90D490420EB
:102910001AF064F80AAB099A0193414638461DF053
:1029200065FA054634B1214604201AF057F82046CE
:102930000CF04EFB284603B0BDE8F04101B07047F3
:102940000446E7E7F251020813460A4611B1196836
:102950001EF0F2B9084670470AB11EF0FCB9704784
:1029600013460A4611B119461EF0FBB97047000024
:1029700000310B4A026018BF012100224160C0E90A
:1029800002220274C0E90522C0E90722C0E9092237
:10299000C0E90B22C0E90D22C26380F86C207047A9
:1029A000AC51020800310B4A026018BF012100221D
:1029B0004160C0E902220274C0E90522C0E9072291
:1029C000C0E90922C0E90B22C0E90D22C26380F8E8
:1029D0006C207047BC51020810B5003218BF0122AC
:1029E0004260054B036000220446816011460DF0F1
:1029F000DBF9204610BD00BFC450020803689B6885
:102A000018470368DB68184710B50B6804461B6954
:102A10009847204610BD10B50B6804465B6998477F
:102A2000204610BD10B50B6804469B6998472046A8
:102A300010BD10B50B680446DB699847204610BDF1
:102A400003681B6A184703685B6A82B002B01847C4
:102A500003689B6A82B002B01847000010B50032CC
:102A600018BF01224260054B0360002204468160CA
:102A700011460DF047F9204610BD00BF90500208E6
:102A800003689B6818470368DB68184710B50B6834
:102A900004461B699847204610BD10B50B680446D4
:102AA0005B699847204610BD10B50B6804469B69CA
:102AB0009847204610BD10B50B680446DB6998475F
:102AC000204610BD03681B6A184703685B6A82B022
:102AD00002B0184703689B6A82B002B01847F0B58D
:102AE00089B006AC84E80C00139A0B680592129A20
:102AF0000492119A03929DF8402002920EAA054674
:102B00000E4692E803008DE8030028469F68314690
:102B100094E80C00B847284609B0F0BDF0B589B07C
:102B200006AC84E80C00139A0B680592129A049282
:102B3000119A03929DF8402002920EAA05460E4675
:102B400092E803008DE803002846DF68314694E8E8
:102B50000C00B847284609B0F0BD70B588B006AC87
:102B600084E80C00DDE91023CDE904230E9B0293D9
:102B70000D9B01930E689DF830300093B66894E881
:102B80000C000546B047284608B070BD70B586B049
:102B900004AC84E80C000D9A03920C9A02920B9AF2
:102BA00001920B689DF828200092DE6894E80C00E2
:102BB0000546B047284606B070BD00000031094AFE
:102BC000026018BF012100224160C0E902220274A4
:102BD000C0E90522C0E90722C0E9092280F82421C2
:102BE000704700BFCC51020810B5003218BF012257
:102BF000044B426004460360816000210DF0E8F957
:102C0000204610BDE04F020803689B681847036820
:102C1000DB68184710B50B6804461B6998472046C7
:102C200010BD10B50B6804465B699847204610BD7F
:102C300010B50B6804469B699847204610BD0000FC
:102C4000003218BF0122074B10B54260036081605B
:102C500004460DF099FB0021206120460DF056FE40
:102C6000204610BD8050020883689A680A60DB68BD
:102C70004B60704783681A690A605B694B607047F4
:102C800083689A690A60DB694B6070478368DA6A17
:102C90000A601A6B4A605A6B8A609A6BCA60DA6B78
:102CA0000A611A6C4A615B6C8B61704783689A6C2D
:102CB0000A60DA6C4A601A6D8A605A6DCA609A6D51
:102CC0000A61DA6D4A611B6E8B61704783685A6EC8
:102CD0000A609A6E4A60DA6E8A601A6FCA605A6F2A
:102CE0000A619A6F4A61DA6F8A61D3F88020CA61FB
:102CF000D3F884200A62D3F888204A62D3F88C2063
:102D00008A62D3F89030CB6270478368D3F89420FE
:102D10000A60D3F898204A60D3F89C208A60D3F8E0
:102D2000A020CA60D3F8A4200A61D3F8A8204A6181
:102D3000D3F8AC208A61D3F8B020CA61D3F8B420AC
:102D40000A62D3F8B8204A62D3F8BC208A62D3F86A
:102D5000C030CB62704703689B681847F0B589B0F4
:102D600006AC84E80C00129A0B680492119A039244
:102D7000109A02920EAA05460E4692E803008DE8CC
:102D800003002846DF68314694E80C00B84728461F
:102D900009B0F0BDF0B589B006AC84E80C00129A19
:102DA0000B680492119A0392109A02920EAA054699
:102DB0000E4692E803008DE8030028461F6931465D
:102DC00094E80C00B847284609B0F0BDF0B589B0CA
:102DD00006AC84E80C00129A0B680492119A0392D4
:102DE000109A02920EAA05460E4692E803008DE85C
:102DF000030028465F69314694E80C00B84728462E
:102E000009B0F0BDF0B589B006AC84E80C00129AA8
:102E10000B680492119A0392109A02920EAA054628
:102E20000E4692E803008DE8030028469F6931466C
:102E300094E80C00B847284609B0F0BDF0B589B059
:102E400006AC84E80C00129A0B680492119A039263
:102E5000109A02920EAA05460E4692E803008DE8EB
:102E600003002846DF69314694E80C00B84728463D
:102E700009B0F0BD003110B518BF0121044B41600D
:102E8000036004460DF076FAA060204610BD00BF36
:102E9000F850020803689B68184773B5079E0196AF
:102EA0000D68069E0096ED680446A847204602B0CD
:102EB00070BD03681B691847003110B518BF0121A8
:102EC000044B4160036004460DF054FAA0602046B4
:102ED00010BD00BF844F020810B40468A468A44663
:102EE00010BC604738B50D680446ED68A847204619
:102EF00038BD000010B504460A480DF0A5FA236855
:102F0000D3E90123834202D952F8200008B906F020
:102F100068FA0023044A05490BF0F3FF08B90CF0E6
:102F200054F810BDBC0A0020B8580208B06202086C
:102F300010B504460A480DF087FA2368D3E9012347
:102F4000834202D952F8200008B906F04AFA002359
:102F5000044A05490BF0D5FF08B90CF036F810BD4E
:102F6000840A0020F4520208B062020810B5044638
:102F70000A480DF069FA2368D3E90123834202D994
:102F800052F8200008B906F02CFA0023044A05493B
:102F90000BF0B7FF08B90CF018F810BD7C0A002040
:102FA000C8520208B062020810B504460A480DF083
:102FB0004BFA2368D3E90123834202D952F8200057
:102FC00008B906F00EFA0023044A05490BF099FFF0
:102FD00008B90BF0FAFF10BD800A0020BC520208AD
:102FE000B062020810B504460A480DF02DFA2368B5
:102FF000D3E90123834202D952F8200008B906F030
:10300000F0F90023044A05490BF07BFF08B90BF0E7
:10301000DCFF10BD900A002014520208B0620208C2
:1030200010B504460A480DF00FFA2368D3E90123CE
:10303000834202D952F8200008B906F0D2F90023E1
:10304000044A05490BF05DFF08B90BF0BEFF10BD47
:10305000940A0020F4510208B062020810B5044638
:103060000A480DF0F1F92368D3E90123834202D91C
:1030700052F8200008B906F0B4F90023044A0549C3
:103080000BF03FFF08B90BF0A0FF10BD780A00203D
:1030900034520208B062020810B504460A480DF026
:1030A000D3F923689A6882420CD95B6853F82000F0
:1030B00038B10023054A06490BF023FF003018BF42
:1030C000012010BD0020FCE7BC0A0020B85802080F
:1030D000B062020810B504460A480DF0B5F923683D
:1030E0009A6882420CD95B6853F8200038B10023FB
:1030F000054A06490BF005FF003018BF012010BD3E
:103100000020FCE77C0A0020C8520208B0620208D6
:1031100010B504460A480DF097F923689A68824270
:103120000CD95B6853F8200038B10023054A0649E2
:103130000BF0E7FE003018BF012010BD0020FCE7B7
:10314000800A0020BC520208B06202082DE9F04358
:10315000DDE907740026B446013B12F80CE0A4EB4D
:103160000708BEEBA80F02EB0C0509DBA0F1040C6D
:103170003B46A34211D053F8047B4CF8047FF8E798
:103180004FFA8EF9B9F1000FF0DD6345A4EB8E0420
:103190008CBF0CF1010C0136DFE7404416F1FF361D
:1031A0000FD301602B789B00074604EB030E744598
:1031B00002D104331844F1E754F804CB47F804CFA4
:1031C000F5E7954210D0016015F8013D9B000646D9
:1031D00004EB030C644502D104331844F1E754F8BE
:1031E000047B46F8047FF5E7BDE8F083F7B5DDE939
:1031F000087408461946DDE90A36C7B1FD1AAD1054
:1032000003EB850CCDE9003C134602462046FFF750
:103210009DFF041BA4103FB132683946521BFFF7D3
:103220009BFB33685D1B2C44346003B0F0BD3568F4
:10323000E6E773B5099DDDE907401E462B6800EB04
:103240008303CDE90003134620460A463146FFF7C3
:103250007DFF001B8010286002B070BD30B59DF866
:103260000C4084B103460A25B1FBF5F405FB1411AB
:10327000043152F8211043F8041D2146002CF3D1EB
:10328000C01A801030BD03F04A04402C0AD1034616
:1032900001F007040434C90852F8244043F8044DEF
:1032A000F6D1EDE713F4804F14BF1425042503462F
:1032B00001F00F042C44090952F8244043F8044D4E
:1032C000F6D1DDE72DE9F04114469DF820201D469A
:1032D0000746DDE90683D2B10646204629460A2282
:1032E000002317F0EFFD0432204658F8223046F84C
:1032F000043D294600230A2217F0E4FD04460D464A
:1033000054EA0503E9D1B81B8010BDE8F08103F051
:103310004A02402A11D1064604F007030433EA08A2
:1033200058F8233046F8043DE30843EA45731C4649
:10333000154654EA0503EFD1E5E713F4804F14BFB7
:1033400014210421064604F00F030B442A0958F8FF
:10335000233046F8043D230943EA05731C4615460D
:1033600054EA0503EFD1CEE710B40468E46AA4463A
:1033700010BC60472DE9FF47044608460F46FFF79B
:103380004FFE0546FFF73AFB60612846FFF739FB21
:10339000A0612846FFF754FB294660636846FFF7A3
:1033A00033FB009B53F80C0CE0600CF04AF8002350
:1033B00001460646E268684604F098FCE3682BB1D3
:1033C00096F90030002BD4BF002301232946237433
:1033D00001A8FFF720FB019B53F80C0C344B206233
:1033E000984294BF80004FF0FF300CF02AF8226A18
:1033F00080460023014601A805F04EFB294602A89D
:10340000FFF710FB029B53F80C0C294BA06298426B
:1034100094BF80004FF0FF300CF013F8A26A814691
:103420000023014602A805F037FB294603A8FFF751
:1034300000FB039B53F80C0C1D4B2063984294BF78
:1034400080004FF0FF300BF0FCFF226B01460023A1
:10345000824603A805F020FB2846FFF7F4FAA06394
:103460002846FFF7F5FAE0633846FFF743FD114BB6
:10347000196804F1400301F10B02FFF775FF012306
:1034800084F86C30A660C4F81C80C4F82490C4F89A
:103490002CA003A805F0A0FB02A805F09DFB01A845
:1034A00005F09AFB684604F0CBFC04B0BDE8F08759
:1034B000FEFFFF1F540000202DE9F04105460F4894
:1034C0000CF0C2FF2B68DE6856F820800446B8F185
:1034D000000F0FD170200BF001FD41460746FFF7AA
:1034E00047FA29463846FFF745FF224639462868FD
:1034F0000DF068F856F82400BDE8F081940A002029
:103500002DE9FF47044608460F46FFF76BFD0546C9
:10351000FFF7B6FA60612846FFF7B5FAA0612846C2
:10352000FFF7D0FA294660636846FFF7AFFA009BC1
:1035300053F80C0CE0600BF084FF002301460646B4
:10354000E268684604F0D2FBE3682BB196F90030DC
:10355000002BD4BF002301232946237401A8FFF7C1
:103560009CFA019B53F80C0C344B2062984294BF98
:1035700080004FF0FF300BF064FF226A804600238A
:10358000014601A805F088FA294602A8FFF78CFA3F
:10359000029B53F80C0C294BA062984294BF800008
:1035A0004FF0FF300BF04DFFA26A81460023014629
:1035B00002A805F071FA294603A8FFF77CFA039BDD
:1035C00053F80C0C1D4B2063984294BF80004FF0C1
:1035D000FF300BF036FF226B01460023824603A822
:1035E00005F05AFA2846FFF770FAA0632846FFF75D
:1035F00071FAE0633846FFF77DFC114B196804F15E
:10360000400301F10B02FFF7AFFE012384F86C3099
:10361000A660C4F81C80C4F82490C4F82CA003A8A9
:1036200005F0DAFA02A805F0D7FA01A805F0D4FAF5
:10363000684604F005FC04B0BDE8F087FEFFFF1FFC
:10364000540000202DE9F04105460F480CF0FCFE27
:103650002B68DE6856F820800446B8F1000F0FD1C1
:1036600070200BF03BFC41460746FFF79BF92946CB
:103670003846FFF745FF2246394628680CF0A2FF7E
:1036800056F82400BDE8F081900A00202DE9F043AF
:10369000044685B008460F46FFF74AFC014605463A
:1036A00001A8FFF7B7FA019B53F80C0CE0600BF090
:1036B000C8FE002301460646E26801A804F016FB96
:1036C000E3682BB196F90030002BD4BF002301230F
:1036D0002946237402A8FFF7A4FA029B53F80C0CA6
:1036E0002B4BA061984294BF80004FF0FF300BF04D
:1036F000A8FEA26981460023014602A805F0CCF984
:10370000294603A8FFF794FA039B53F80C0C204BAF
:103710002062984294BF80004FF0FF300BF091FE82
:10372000226A01460023804603A805F0B5F9284621
:10373000FFF76AFA60622846FFF769FAA062384626
:10374000FFF7D8FB134B196804F12C0301F1240295
:103750000546FFF709FE104B1968284601F11A02C9
:1037600004F1BC03FFF700FE012384F82431A660B6
:10377000C4F81490C4F81C8003A805F02DFA02A820
:1037800005F02AFA01A804F05BFB05B0BDE8F08360
:10379000FEFFFF1F500000204C0000202DE9F041EB
:1037A000054610480CF050FE2B68DE6856F8208065
:1037B0000446B8F1000F10D14FF494700BF08EFB5B
:1037C00041460746FFF7FAF929463846FFF75EFFFC
:1037D0002246394628680CF0F5FE56F82400BDE86C
:1037E000F08100BF840A002010B50446006820B1B3
:1037F000FEF75BFD4FF0FF336360204610BD0368AA
:103800009B681847F7B56C4684E806009DF804509D
:10381000089F06463DB93A4619460098FEF75AFDFC
:10382000874218BF01258DF8045094E8030086E80C
:103830000300304603B0F0BD2DE9F04F8FB00DF11D
:10384000180ADDF86080049008F16C0420468AE8CC
:103850000C00FFF74FFB06462046FFF7F3FE1A9BCE
:103860001D68036C2A689A42044655F80C3C00F027
:103870008480826B0992D0F82890426A0292326862
:103880003046576905EB83032A460421B847401B9D
:103890008610B346002E00F0C6800EAF7A4B47F874
:1038A000103D7100384605F0D5FA626BB31A002B53
:1038B00074DD16EA220638BF1E46E368002B67D087
:1038C00000227100384605F039FA384605F0F8F95B
:1038D00005EB8603CDE900530A98A169D4E90223D8
:1038E000FFF734FC0390384605F0EAF90A9B039988
:1038F000C91A4FF0FF328910384605F0EBF9636BB7
:10390000002B0BDD61690AA805F077FB002E47DB71
:10391000626B05EB86010AA805F0E6FAD8F80C20E0
:1039200002F0B00303930A9B12F4007253F80C3CAC
:1039300018BF226A0EAD4B441344534A45F80C2D70
:1039400059002846059305F085FA039BD8F80860CE
:10395000102B059B2CD1B3422CBF4FF0000B4FF026
:10396000010BF31A0027059309ABDB5D042B2BD861
:10397000DFE803F07E7321656E00C26B0992C26AB4
:103980000292D0F83090002B3FF479AF043576E7FF
:1039900032462946384605F001FAB0E71E46AEE742
:1039A000626C71420AA805F0D9FA5A462946B2E774
:1039B0004FF0000BD5E7D8F80C309B0504D5D4E9BF
:1039C00007120BA805F090FA0137042FCCD1B9F1FA
:1039D000010F06D9029909F1FF320431284605F09A
:1039E00083FA0B9B53F80C1C8E4209D9039B202BA6
:1039F000A6EB010140D1199A284605F0AFFA3146ED
:103A00000CAC00919AE806000B9B2046FFF7FAFEEB
:103A100094E80300069028468DF81C1005F0DCF8A9
:103A20000AA805F0D9F89AE803000023C8F808307E
:103A3000049B83E8030018460FB0BDE8F08FB9F18E
:103A4000000FC1D0029B1968284605F0D6FABBE7E3
:103A50000AA9284605F044FAB6E7BBF1000F05D0E5
:103A6000199A05990BA805F079FAADE71999EBE7D2
:103A7000BBF1000FA8D0F3E70A46199B00212846A6
:103A800005F068F9BBE700BFB40A00202DE9F04F4C
:103A90008FB00DF1180ADDF86080049008F16C0415
:103AA00020468AE80C00FFF725FA06462046FFF775
:103AB00003FD1A9B1D68036C2A689A42044655F858
:103AC0000C3C00F08480826B0992D0F82890426A06
:103AD000029232683046576905EB83032A46042177
:103AE000B847401B8610B346002E00F0C6800EAFCC
:103AF0007A4B47F8103D7100384605F0ABF9626B20
:103B0000B31A002B74DD16EA220638BF1E46E3689E
:103B1000002B67D000227100384605F00FF93846B7
:103B200005F0CEF805EB8603CDE900530A98A169AC
:103B3000D4E90223FFF70AFB0390384605F0C0F8EA
:103B40000A9B0399C91A4FF0FF328910384605F0D5
:103B5000C1F8636B002B0BDD61690AA805F04DFA13
:103B6000002E47DB626B05EB86010AA805F0BCF965
:103B7000D8F80C2002F0B00303930A9B12F40072F1
:103B800053F80C3C18BF226A0EAD4B441344534A01
:103B900045F80C2D59002846059305F05BF9039B69
:103BA000D8F80860102B059B2CD1B3422CBF4FF0E6
:103BB000000B4FF0010BF31A0027059309ABDB5DF7
:103BC000042B2BD8DFE803F07E7321656E00C26BF7
:103BD0000992C26A0292D0F83090002B3FF479AF7C
:103BE000043576E732462946384605F0D7F8B0E77F
:103BF0001E46AEE7626C71420AA805F0AFF95A465C
:103C00002946B2E74FF0000BD5E7D8F80C309B05FA
:103C100004D5D4E907120BA805F066F90137042F83
:103C2000CCD1B9F1010F06D9029909F1FF32043163
:103C3000284605F059F90B9B53F80C1C8E4209D904
:103C4000039B202BA6EB010140D1199A284605F0D1
:103C500085F931460CAC00919AE806000B9B204692
:103C6000FFF7D0FD94E80300069028468DF81C105D
:103C700004F0B2FF0AA804F0AFFF9AE803000023A3
:103C8000C8F80830049B83E8030018460FB0BDE86D
:103C9000F08FB9F1000FC1D0029B1968284605F0DA
:103CA000ACF9BBE70AA9284605F01AF9B6E7BBF15B
:103CB000000F05D0199A05990BA805F04FF9ADE74B
:103CC0001999EBE7BBF1000FA8D0F3E70A46199B5F
:103CD0000021284605F03EF8BBE700BFB40A0020EB
:103CE0002DE9F04F8FB004AF07F1100585E80C0007
:103CF00097F85030BB607B6D81468A4607F1200003
:103D000003F16C010CF026FB07F12000FFF7F2F83D
:103D100092B0F8600CF02EFB07F12806D7E91834B2
:103D200046F8040D0DF110084FF0000BCDE90234F8
:103D3000CDF800B02C4B402241463046FEF7CCFD7A
:103D40003F28044618DD0F3424F00704ADEB040DC2
:103D5000421C7A600CF00EFBD7E918340DF1100804
:103D6000CDE902347862CDF800B01F4B7A68414645
:103D70003046FEF7B1FD044607F12406214607F15F
:103D80001C030022304604F00DFF4444304604F08A
:103D900097FF7B6AF86822464146FFF7E5FABB6861
:103DA0000296ABB1BB6D01937B6D0093514695E8D4
:103DB0000C004846FFF740FD304604F00DFF07F1C8
:103DC00020000CF02BFB48462C37BD46BDE8F08F99
:103DD000BB6D01937B6D0093514695E80C004846FE
:103DE000FFF754FEE8E700BFEC510208F0B587B0DA
:103DF00004AC84E80C00DDE90D320F9D9DF83070B5
:103E00000093CDE90125064694E80C0027B1FFF7A1
:103E100013FD304607B0F0BDFFF738FEF9E7036841
:103E20001B6B184703689B6A18472DE9F8431D462A
:103E3000C368DDE9086703F0B003202B8946144608
:103E4000A6EB07060CD13A4629462046FEF784FD2C
:103E50004A46314604EB8700FEF782FDBDE8F88351
:103E6000102B0FD04FF000084A4631462046FEF78F
:103E700077FDA7EB080205EB880104EB8600FEF74F
:103E80006BFDEBE76C30FFF735F82D218046FFF72F
:103E9000C9FF2B68984205D12B6844F8043B4FF0CA
:103EA0000108E1E72B214046FFF7BCFF2B68984251
:103EB000F2D030214046FFF7B5FF2B689842D1D1B0
:103EC000012FCFDD78214046FFF7ACFF6B689842A9
:103ED00007D12B6823606B6863604FF002080834D9
:103EE000C2E758214046FFF79DFF6B689842B9D161
:103EF000EFE737B5089C184623681546CDE900233F
:103F0000DDE90623FFF791FF256003B030BD2DE901
:103F1000F04F8BB004AFC7E900103E6C07F1080109
:103F200006F16C0081E80C00FFF738FCF568B96C0D
:103F300005F04A0A96B0BAF1400F044600F12C0988
:103F40000DF1100B02D0BAF1080F71D14FF000083B
:103F50002B464A46CDF800800BF15000FFF77EF962
:103F6000227C7861C0F114030BEB830392B1C00093
:103F70001030ADEB000D0DF1180B07F11402CDE977
:103F80000232CDE9006B3868A36AD4E90212FFF768
:103F900050F95B467A69B8F1000F31D0B96C00294D
:103FA0002CDB280505D5216B43F8041C01327A610E
:103FB000043BB2687969914211DA91000E3121F027
:103FC0000701ADEB010D04AC07F11401CDE901319E
:103FD00000943346796C3868FFF78BFF2346002244
:103FE000B2607A69009207F10802786806CAFFF7A2
:103FF00009FC78681C37BD46BDE8F08FE16AD3E75D
:10400000A905D6D5B96C0029D3D0BAF1400F01D19A
:10401000E16BC9E7C5F380350235023259F8251046
:1040200043F8041CE16B43F8081C7A61083BC0E7C5
:10403000BB6C002B01DCBB6C59424FF0010887E7D9
:1040400030B587B004AC84E80C000C9B02930B9B4A
:1040500001930A9B009394E80C000546FFF757FF75
:10406000284607B030BD2DE9F04F8BB004AF07F103
:104070000805D7F840A0386085E80C00DAF80C3065
:1040800097F848607B6013F0010F07F1100416D118
:104090007B6C0296CDE900A3204695E80C00FFF763
:1040A00036FF94E80300B860397395E803003B6875
:1040B0001C3783E803001846BD46BDE8F08F0AF1BF
:1040C0006C00FFF76BFB86B3D0E90598DAF808605F
:1040D000B0453CDAA6EB0806B2000E3222F0070229
:1040E000ADEB020D0DF1100B7A6C31465846FEF720
:1040F00037FC7B6803F0B0030022202BCAF80820AD
:1041000016D14B4695E806002046CDF80080FFF713
:1041100079FB94E803005B46B8603973009695E834
:1041200006002046FFF76EFBBBE7D0E90798CDE716
:1041300095E80600204600965B46FFF763FB94E88F
:104140000300B8603973CDF800804B46E7E70022E2
:10415000CAF80820F7E72DE9F04F8BB004AFC7E9A4
:1041600000103E6C07F1080106F16C0081E80C00BC
:10417000FFF714FBF46804F04A0896B0B8F1400F5A
:10418000054600F12C0A0DF1100B5DD0B8F10809BD
:1041900018BF4FF0010923465246CDF80090B96C84
:1041A0000BF15000FFF75AF82A7C7861C0F1140334
:1041B0000BEB830392B1C0001030ADEB000D0DF19D
:1041C000180B07F11402CDE90232CDE9006B386813
:1041D000AB6AD5E90212FFF72CF85B46B9F1000F84
:1041E0000DD1A2050BD5BA6C4AB1B8F1400F7A696E
:1041F0002DD1E96B43F8041C01327A61043BB268AB
:104200007969914211DA91000E3121F00701ADEB8D
:10421000010D04AC07F11401CDE9013100943346DE
:10422000796C3868FFF765FE23460022B2607A6930
:10423000009207F10802786806CAFFF7E3FA786887
:104240001C37BD46BDE8F08F4FF00009A3E7C4F36B
:104250008034023402325AF8241043F8041CE96B0B
:1042600043F8081C7A61083BC9E730B587B004AC55
:1042700084E80C000C9B02930B9B01930A9B009318
:1042800094E80C000546FFF766FF284607B030BDEE
:104290002DE9F04188B004AC0E9DD5F80C8084E87F
:1042A0000C0028F4804323F04A0343F40273EB60CC
:1042B000109B02930F9BCDE9005306AF064694E88E
:1042C0000C003846FFF747FF97E8030004908DF88D
:1042D000141094E8030086E803003046C5F80C800B
:1042E00008B0BDE8F0812DE9F04F8BB004AFC7E90D
:1042F00000103E6C07F1080106F16C0081E80C002B
:10430000FFF74CFAF56805F04A09AAB0B9F1400F79
:10431000044600F12C0A0DF1100BD7E9122302D04C
:10432000B9F1080F75D14FF00008CDE90158CDF86B
:1043300000A00BF1A000FEF7C5FF227C7861C0F160
:1043400028030BEB830392B1C0001030ADEB000DDE
:104350000DF1180B07F11402CDE90232CDE9006B23
:104360003868A36AD4E90212FEF763FF5B467A69F4
:10437000B8F1000F34D0D7E91201002871F1000123
:104380002CDB280505D5216B43F8041C01327A612A
:10439000043BB2687969914211DA91000E3121F043
:1043A0000701ADEB010D04AC07F11401CDE90131BA
:1043B00000943346796C3868FFF79BFD2346002252
:1043C000B2607A69009207F10802786806CAFFF7BE
:1043D00019FA78681C37BD46BDE8F08FE16AD3E76B
:1043E000A905D6D5D7E912010143D2D0B9F1400FC2
:1043F00001D1E16BC8E7C5F38035023502325AF8C6
:10440000251043F8041CE16B43F8081C7A61083B53
:10441000BFE7D7E91201012871F1000104DAD7E9F9
:104420001223524263EB43034FF001087DE730B59E
:1044300087B004AC84E80C00DDE90C23CDE902234D
:104440000B9B01930A9B009394E80C000546FFF731
:104450004AFF284607B030BD2DE9F04F8BB004AFBE
:10446000C7E900103E6C07F1080106F16C0081E815
:104470000C00FFF793F9F46804F04A08AAB0B8F109
:10448000400F054600F12C0A0DF1100B60D0B8F179
:10449000080918BF4FF00109D7E91223CDE90149F6
:1044A000CDF800A00BF1A000FEF70CFF2A7C78618C
:1044B000C0F128030BEB830392B1C0001030ADEBC9
:1044C000000D0DF1180B07F11402CDE90232CDE910
:1044D000006B3868AB6AD5E90212FEF7AAFE5B46AC
:1044E000B9F1000F0FD1A2050DD5D7E912120A4379
:1044F00009D0B8F1400F7A692DD1E96B43F8041C5B
:1045000001327A61043BB2687969914211DA910013
:104510000E3121F00701ADEB010D04AC07F11401E0
:10452000CDE9013100943346796C3868FFF7E1FC3E
:1045300023460022B2607A69009207F10802786887
:1045400006CAFFF75FF978681C37BD46BDE8F08FF3
:104550004FF00009A0E7C4F38034023402325AF865
:10456000241043F8041CE96B43F8081C7A61083BEB
:10457000C9E730B587B004AC84E80C00DDE90C2352
:10458000CDE902230B9B01930A9B009394E80C0056
:104590000546FFF761FF284607B030BD2DE9F04F13
:1045A0008FB004AF81463D6D396005F16C0A07F1AB
:1045B0000801504681E80C00FFF7F0F8D5F80480B8
:1045C00097F85820B8F1000F064607F11801284661
:1045D000B8BF4FF006080BF062FDEB6803F482737E
:1045E0008EB0B3F5827F7B6004AC00F0B3800BF03B
:1045F000C1FED7E918237861CDE90223CDF8008008
:1046000007F118032D22214607F11400FEF764F983
:1046100038613B692C2B1EDD03F1010B0F3323F0B6
:104620000703ADEB030D7B68B3F5827F04AC00F0AC
:10463000A1800BF09FFED7E918237861CDE9022312
:10464000CDF8008007F118035A46214607F11400FF
:10465000FEF742F938615046FEF74CFC3A69930088
:104660000E3323F00703ADEB030D0DF110084346A5
:1046700022442146FEF778FED7F810B0BBF1000FB8
:1046800000F08A805A462E21204618F071FA28B18F
:10469000031B726A48F8232008EB8300337C9BB32A
:1046A00050B9BBF1020F07DD6378303B092B2BD8E3
:1046B000A378303B092B27D84FEACB030833ADEB67
:1046C000030D23782D2B0DF1100A01D02B2B65D172
:1046D000D8F80030CAF800300BF1FF333B610124F9
:1046E000A30007F11002039208EB03025344CDE943
:1046F00000030292B36A3868D6E90212FEF776FD2B
:104700003B691C443C61D046AA683B69934211DA7C
:1047100093000E3323F00703ADEB030D04AC07F158
:104720001003CDE9018300942B46796D3868FFF7BB
:10473000E0FBA0460023AB603B69009307F1080251
:104740004846434606CAFFF75DF848462C37BD4643
:10475000BDE8F08F0BF00EFED7E918237861CDE9A4
:104760000023214607F118032D2207F11400FEF75C
:10477000B3F84DE70BF0FEFD07F1280CD7E918233D
:104780004CF8140D2146CDE90023604607F11803CB
:104790005A46FEF7A1F85DE758467FE700249FE7F9
:1047A00030B589B006AC84E80C00DDE90E23CDE914
:1047B0000423002302930D9B01930C9B009394E828
:1047C0000C000546FFF7EAFE284609B030BD2DE98A
:1047D000F04F8FB004AF81463D6D396005F16C0A32
:1047E00007F10801504681E80C00FEF7D7FFD5F825
:1047F000048097F85820B8F1000F064607F1180119
:104800002846B8BF4FF006080BF049FCEB6803F4EC
:1048100082738EB0B3F5827F7B6004AC00F0B3800E
:104820000BF0A8FDD7E918237861CDE90223CDF874
:10483000008007F118032D22214607F11400FEF72E
:104840004BF838613B692C2B1EDD03F1010B0F3354
:1048500023F00703ADEB030D7B68B3F5827F04AC57
:1048600000F0A1800BF086FDD7E918237861CDE92F
:104870000223CDF8008007F118035A46214607F1BC
:104880001400FEF729F838615046FEF733FB3A6909
:1048900093000E3323F00703ADEB030D0DF1100869
:1048A000434622442146FEF75FFDD7F810B0BBF126
:1048B000000F00F08A805A462E21204618F058F941
:1048C00028B1031B726A48F8232008EB8300337C6D
:1048D0009BB350B9BBF1020F07DD6378303B092B66
:1048E0002BD8A378303B092B27D84FEACB030833CA
:1048F000ADEB030D23782D2B0DF1100A01D02B2BDE
:1049000065D1D8F80030CAF800300BF1FF333B61B5
:104910000124A30007F11002039208EB03025344A1
:10492000CDE900030292B36A3868D6E90212FEF7B5
:104930005DFC3B691C443C61D046AA683B699342DC
:1049400011DA93000E3323F00703ADEB030D04AC33
:1049500007F11003CDE9018300942B46796D386887
:10496000FFF7C7FAA0460023AB603B69009307F14D
:1049700008024846434606CAFEF744FF48462C371D
:10498000BD46BDE8F08F0BF0F5FCD7E91823786140
:10499000CDE90023214607F118032D2207F1140069
:1049A000FDF79AFF4DE70BF0E5FC07F1280CD7E97E
:1049B00018234CF8140D2146CDE90023604607F179
:1049C00018035A46FDF788FF5DE758467FE7002445
:1049D0009FE730B589B006AC84E80C00DDE90E2312
:1049E000CDE904234C2302930D9B01930C9B009370
:1049F00094E80C000546FFF7EAFE284609B030BDF2
:104A00002DE9F043ADF5097D0746909D9DF84C8258
:104A10009DF850626C35284602AC84E80C00FEF725
:104A200069FA81462846FEF719FB252105464846C6
:104A3000FFF7F8F90490C6B9CDE90586929B00937B
:104A400008A904AB802228460BF032FF08A81BF00F
:104A5000F7FF009008AB384694E80600FEF7D2FE58
:104A600038460DF5097DBDE8F0830023CDE90568E2
:104A70000793E3E703689B691847036810B504468A
:104A80005BB14068421C07D11846FDF71AFC431C75
:104A90000ABF00236060236010BD4FF0FF30FBE7CA
:104AA00038B50D46FFF7E9FF04462846FFF7E5FF56
:104AB000431C584204F10102584154425441011B25
:104AC0004842484138BD08B5FFF7EAFF80F00100D1
:104AD000C0B208BD2DE9F74F8146DDE9120602A9F3
:104AE0006C30DDF8448001E90C00FEF703FAB8F100
:104AF000020F83462ED0B8F1040F0CBF4FF47A7723
:104B00000127002425464FF00A0A0CA96846FFF742
:104B1000DAFF08B3454521D06846FFF7AEFF2A22E9
:104B200001465846FFF77BF93038C2B2092A20D82F
:104B30000AFB0404109B04FB07F29A4219DC0F9B4A
:104B40003A449A4215DD97FBFAF76846FEF74CFEA9
:104B50000135DAE70A27D4E745450AD10E9B1C60E8
:104B600002AB13E9030089E80300484603B0BDE83F
:104B7000F08FB8F1040F03D1022D01D1643CEDE7B1
:104B8000336843F004033360EAE72DE9F04F87B060
:104B900000AF07F11004F860786DD7F84C806C30E6
:104BA00084E80C00FEF7A6F93B6D9B000E3323F062
:104BB00007038346ADEB030D07F1400120466E4627
:104BC000FFF781FF00287ED02046FFF756FF4FF009
:104BD000000982464D463B6D994510D058F8291082
:104BE0000968514505D146F82590013509F10109BB
:104BF000F1E75846FFF73EFF5045F7D1F3E74FF096
:104C0000000B012D41D9B14659F8042B58F8220068
:104C10001BF016FF06EB8501824659F8040BB960BC
:104C200058F820001BF00CFFB968824528BF824667
:104C30004945F2D120460BF1010BFEF7D5FDD345D6
:104C400041D207F140012046FFF73DFF00283AD04E
:104C50004FEA8B024FF0000A56F82A1058F821103C
:104C600089582046C7E90121FFF707FFB9687A682C
:104C7000814217BF05F1FF350AF1010A56F82510E8
:104C800046F82A10AA45E7D3BBE71CD12046FEF719
:104C9000ABFD356858F8256030461BF0D1FE0BF1AE
:104CA000010B8046C3451ED207F140012046FFF7A5
:104CB0000AFF40B156F82B30BB602046FFF7DDFEFF
:104CC000BB68834213D0BB6DBA6D1B6843F004030D
:104CD000136094E80300FB681C3783E80300184660
:104CE000BD46BDE8F08FEED1BB6C1D60F1E72046FC
:104CF000FEF77AFD0BF1010BD4E72DE9F04F85B0FB
:104D000000AF8146F86CD7F844A007F108086C3072
:104D100088E80C00FEF7EEF8BB6CDB000833834636
:104D2000ADEB030D07F1380140466D46FFF7CBFEB2
:104D3000B0B34046FFF7A1FEBA6C0026034652000E
:104D40003446B24213D05AF826100968994204D169
:104D500045F8246001340136F3E75846C7E90032CC
:104D6000FFF788FE3B687A689842F4D1F0E7BCB15F
:104D70004046FEF739FDA3000E3323F00703ADEBE9
:104D8000030DEB46002655F826305AF823001BF099
:104D900057FE4BF826000136B442F4D1012602E05A
:104DA0000026B34634464FEA860807F1380107F17A
:104DB0000800FFF788FE68B307F10800FFF75DFE03
:104DC0000023844619469C421AD95BF82320980098
:104DD000B2420BEB000E02D801310133F3E755F874
:104DE00023205AF8222052F808206245F5D0013CD1
:104DF00055F824202A505BF82420CEF80020E2E762
:104E00008C4208F1040805D007F10800FEF7ECFC1D
:104E10000136CAE7012C15D1DBF80030B3421AD1B4
:104E2000BA6C2B68934228BF9B1A3A6C136007F147
:104E3000100313E90300143789E803004846BD4610
:104E4000BDE8F08F022C06D1DBF80030B342E7D08A
:104E5000DBF80430E2E73B6D3A6D1B6843F0040376
:104E6000E4E700002DE9F04F9FB00D462A9C0B901F
:104E700004F16C060EA9304681E80C00DDF8B0A004
:104E8000FEF7ECF808903046FEF734F883462D988C
:104E90001BF0D6FD00260A9010960EAF28A93846C2
:104EA000FFF711FEDDF84090002867D00A9B9E4274
:104EB00064D2B9F1000F61D12D9B4A4653F82610F8
:104EC000584603EB8608FEF7AAFF252840F0BD826E
:104ED000731C4A46D8F8041009935846FEF79FFF02
:104EE0004528CDF8449001D04F2807D1B31C0022AB
:104EF000D8F8081009935846FEF791FF41380EAED6
:104F0000382800F29D82DFE810F074009F00E9016C
:104F100000019B029B029B02200145019B029B0218
:104F20009B0274019B029B029B029B02A801AD01A4
:104F3000DB019B029B029B02E401E90113029B023D
:104F40009B029B029B029B029B024E007A00A500E3
:104F5000AD00C2009B029B027A009B029B029B0257
:104F60009B02500199019B029B029B029B029B02A8
:104F7000D1019B029B029B02DF01E901B9F1000F05
:104F800002D10A9B9E4205D02B9B2B9A1B6843F0B3
:104F90000403136097E803000B9B83E803001846A3
:104FA0001FB0BDE8F08F12AE31460898FDF77EFEC7
:104FB00010ABCDE905430723CDE9036311AB0293A1
:104FC00028AB93E803008DE803000CAF0EAE96E823
:104FD0000C0029463846FFF7D8FD97E80300109BE0
:104FE00086E8030013B9119BCAF81830099E0136F0
:104FF00053E712AE31460898FDF748FED8E712AEE7
:1050000031460898FDF781FE10ABCDE905430C232E
:10501000CDE9036311AB029328AB93E803008DE85D
:1050200003000CAF0EAE96E80C0029463846FFF799
:10503000ACFD97E80300109B86E80300002BD5D158
:10504000119BCAF81030D1E712AE31460898FDF72F
:105050003DFED9E712A90898FDF712FE129B0593B1
:105060000CAF5CE010ABCDE9064302211F23CDE974
:1050700004310123039311AB029328AB93E803009F
:105080008DE803000CAF0EAE96E80C001DE0304634
:10509000FFF7F3FC082102465846FEF7B0FB0CAFC1
:1050A00010B33046FEF7A0FB10AACDE90642092155
:1050B0000122CDE90412039211AA029228AA034602
:1050C00092E803008DE803000CCB29463846FFF731
:1050D00001FD97E80300109B86E80300002B85D1B3
:1050E000119BCAF80C3081E710ABCDE906430222D0
:1050F0001F23CDE904320A23039311AB029328AB9B
:1051000093E803008DE80300BEE712AEC84A3346B9
:10511000A2F109015846FEF727F90CAF059610AB2E
:10512000CDE90243CDF810A028AB93E803008DE849
:1051300003000EAE2946384696E80C00FFF792FEB3
:1051400097E8030086E8030050E710ABCDE906437B
:105150004FF002091723CDE904390CAF0023039364
:1051600011AB029328AB93E803008DE803000EAE69
:1051700096E80C0029463846FFF7ACFC97E8030098
:10518000109B86E80300002B7FF430AF119BCAF818
:1051900008302BE710ABCDE906434FF002080C2393
:1051A000CDE904380CAF0123D9E710ABCDE90643B4
:1051B0004FF0020E0C23CDE9043E0123039311AB03
:1051C000029328AB93E803008DE803000CAF0EAE0A
:1051D00096E80C0029463846FFF77CFC97E8030068
:1051E000109B86E80300002B7FF400AF119B013B6E
:1051F00027E710ABCDE906434FF0020C3B23CDE986
:10520000043C0023039311AB029328AB93E8030003
:105210008DE803000CAF0EAE96E80C002946384628
:10522000FFF758FC97E80300109B86E80300002B6B
:105230007FF4DCAE119BCAF80430D7E63046FFF7A6
:105240001CFC002201465846FEF7E9FD0A2840F002
:10525000F7803046FEF7C8FAC8E6764A12AE334603
:10526000911F57E710ABCDE9064302263D23CDE958
:1052700004360023039311AB029328AB93E8030099
:105280008DE803000CAF0EAE96E80C0029463846B8
:10529000FFF720FC97E80300109B86E80300002B33
:1052A0007FF4A4AE119BCAF800309FE63046FFF7AA
:1052B000E4FB002201465846FEF7B1FD0928C6E787
:1052C00012AE33465C4A23E712A90898FDF7CCFCDE
:1052D000C4E612A90898FDF7CDFCBFE610ABCDE9F6
:1052E0000643042042F20F73CDE9043000230393F8
:1052F00011AB029328AB93E803008DE803000CAFD9
:105300000EAE96E80C0029463846FFF7E3FB97E817
:105310000300109B86E80300002B7FF467AE119B0F
:10532000002BB4BF6433A3F26C73CAF814305DE68B
:105330003046FFF7A2FB012102465846FEF75FFA0E
:1053400000287DD010ABCDE905430E2304933B4BE1
:10535000039312AB029328AB93E803008DE803009C
:105360000CAF2946384696E80C00FFF70EFC97E88C
:10537000030086E8030028A93046FFF7A4FB0028B5
:105380003FF434AE109B002B7FF430AE129B002B09
:105390007FF42CAE3046FFF770FB2D2107465846B0
:1053A000FEF740FDB84236D110AF17230222CDE9F7
:1053B0000432CDE90647002312AE0393029628ABD0
:1053C00093E803008DE803000DF130090DF1380872
:1053D00098E80C0029464846FFF77CFB99E8030053
:1053E0003B2388E803000221CDE904310023CDE905
:1053F0000263CDE9064728AB93E803008DE803007C
:105400002946484698E80C00FFF764FB99E803003A
:1054100088E80300EAE53046FFF72FFB2B2106461C
:105420005846FEF7FFFCB0427FF4E0ADBCE700BF9A
:10543000DD510208E3510208EC51020890000020FF
:10544000109B43F004031093D0E52D9B384653F88E
:105450002680FFF712FB804503D13846FEF7C4F9DA
:10546000C5E5109B43F004031093C0E52DE9F04F10
:1054700089B004AE029014986C3086E80C00FEF7F8
:105480008DF90023044612A930460693FFF708FB66
:105490008246002849D13046FFF7EFFAD4F8C01011
:1054A0000690814203D0D4F8BC30834219D1237CCA
:1054B00013B1A36A834214D0636A834211D081423C
:1054C00014BF2D212B21169802F0F1FE3046FEF775
:1054D0008BF912A9FFF7F7FA38B33046FFF7CDFA88
:1054E00006900027B846227C069B12B1A26A9A4217
:1054F00020D0626A9A421DD0D4F8CC209A4219D1A9
:105500001FB93021169802F0D2FE3046FEF76CF932
:1055100012A9FFF7D8FA08F10108074600284CD075
:105520003046FFF7AAFA0690DDE74FF0000847463D
:105530004FF0010AA64B0793237C1BB1202107A83B
:1055400002F0E2FD94F824B1BBF1000F5DD004F14C
:10555000CC0300250193A946BAF1000F40F0A080CA
:10556000227C069B002A00F0BF80A26A9A4240F08B
:10557000BB80B9F1000F40F09380002D40F0908087
:10558000B8F1000F00F088805FFA88F107A802F0F8
:105590008EFEBA464B46C84630460393FEF724F9C2
:1055A00012A9FFF790FA039B002873D03046FFF74B
:1055B00064FA00250690039B66E04FF0010A574607
:1055C000B8E7AA465D465F46BAF1000F68D1069A71
:1055D0000A201146FDF760F9431C19D000F1300193
:1055E000C9B2169802F063FE4FF0010B3046FEF789
:1055F000FBF812A9FFF767FA20B13046FFF73DFA32
:105600000690E0E74FF0010ADDE75D46D946DBE7AB
:10561000636A9A420BD1B9F1000F08D13DB92E212E
:10562000169802F044FEBB464FF00109DEE7D4F8BD
:1056300004319A4203D0D4F81C319A4230D17DBB58
:1056400077B36521169802F032FE3046FEF7CCF8AB
:1056500012A9FFF738FA8346002800F0B6803046DA
:10566000FFF70BFAD4F8C0300690834209D0D4F883
:10567000BC308342A5D12D21169802F018FE5D465C
:10568000B4E72B21F8E79A465746AA461D4663E73A
:105690005346F9E75D46F7E7169802F0DBFBC14693
:1056A00008AF57F8043D53F80C3C8BB1B9F1000F2B
:1056B00005D125B95FFA88F1384602F0F8FD3A467F
:1056C000D4E902010AF05AFD10B9159B04221A60B0
:1056D00096E80300029B83E80300384602F0B0FB23
:1056E000029809B0BDE8F08F626A9A4215D1079B13
:1056F00053F80C3CB9F1000FD2D1002DD0D123B119
:105700005FFA88F107A802F0D2FD2E21169802F068
:10571000CEFDD9460023BA463EE706AA0A210198E3
:10572000FDF712F960B1019BC11A89103031C9B27D
:10573000169802F0BCFD08F101082B46DA462BE76B
:10574000069BD4F804219A4203D0D4F81C2193423A
:10575000A6D1079B53F80C3C002DA1D1002F9FD060
:105760003BB1B9F1000F04D15FFA88F107A802F04C
:105770009EFD6521169802F09AFD3046FEF734F83A
:1057800012A9FFF7A0F98246F8B13046FFF775F984
:10579000D4F8C0100690814204D0D4F8BC308342C3
:1057A0007FF476AF237C1BB1A26A82423FF46BAFD9
:1057B000636A83423FF46CAF814214BF2D212B21D9
:1057C000169802F074FD5346E6E63D4668E700BFD2
:1057D000A40A00202DE9F0438DB008AC0CAD84E89C
:1057E0000C001F4B45F8083D179E894607462021AF
:1057F000284602F089FCCDE90365169B029314ABA1
:1058000093E803008DE803000DF1180894E80C00FC
:1058100040464946FFF72AFE98E80300DDF8288055
:1058200084E803000AF0A6FD0CAB189943F8040DB8
:10583000324640460BF068F914A92046FFF730F9CC
:1058400018B1336843F00203336094E8030087E83B
:105850000300284602F0F4FA38460DB0BDE8F083A4
:10586000A40A00202DE9F0438DB008AC0CAD84E80B
:105870000C001F4B45F8083D179E8946074620211E
:10588000284602F041FCCDE90365169B029314AB58
:1058900093E803008DE803000DF1180894E80C006C
:1058A00040464946FFF7E2FD98E80300DDF828800E
:1058B00084E803000AF05EFD0CAB189943F8040D70
:1058C000324640460BF06CF914A92046FFF7E8F881
:1058D00018B1336843F00203336094E8030087E8AB
:1058E0000300284602F0ACFA38460DB0BDE8F0835C
:1058F000A40A00202DE9F0438DB008AC0CAD84E87B
:105900000C001F4B45F8083D179E8946074620218D
:10591000284602F0F9FBCDE90365169B029314AB10
:1059200093E803008DE803000DF1180894E80C00DB
:1059300040464946FFF79AFD98E80300DDF82880C5
:1059400084E803000AF016FD0CAB189943F8040D27
:10595000324640460BF07EF914A92046FFF7A0F826
:1059600018B1336843F00203336094E8030087E81A
:105970000300284602F064FA38460DB0BDE8F08313
:10598000A40A00202DE9F04F8BB00DF1180A169CE7
:10599000059004F16C008AE80C00FDF7FFFEE76853
:1059A00007F04A070023402F0546089348D0082FE8
:1059B00014BF4FF00A084FF0100814A95046FFF723
:1059C0006FF8814600286FD15046FFF756F8D5F89A
:1059D000BC30089083420CBF4FF0010B4FF0000B1E
:1059E00003D0D5F8C030834214D12B7C13B1AB6AFD
:1059F00083420FD06B6A83420CD05046FDF7F4FE11
:105A000014A9FFF760F80646002857D05046FFF764
:105A100034F80890002634462A7C089B12B1AA6A02
:105A20009A4245D06A6A9A4242D0D5F8CC209A422E
:105A300010D146B1B8F10A0F0DD147B93C4629E063
:105A40004FF00808B9E71FB3B8F1080F25D00134AB
:105A500001260EE0D6B1D5F8C4209A4203D0D5F87D
:105A6000C8209A422ED1D7B1B8F1100F2FD10024FF
:105A700026465046FDF7B8FE14A9FFF724F818B3E0
:105A80005046FEF7FAFF0890002EC5D1B1460FE050
:105A90003C4601264FF00808EBE73446D8E73E467F
:105AA0003C464FF01008E4E74FF0000B5C465E46C2
:105AB000B8F1100F0CD1162301930BE04FF0010940
:105AC0000446F5E70126F3E74FF00109F0E7012668
:105AD000CDF804806B4B09932B7C1BB1202109A8C6
